{
  "address": "0xaBD93C89868711b08e86ADECF1Af6d094160FF23",
  "abi": [
    {
      "inputs": [
        {
          "internalType": "address",
          "name": "AssetAlreadyExists",
          "type": "address"
        }
      ],
      "name": "AssetAlreadyExists",
      "type": "error"
    },
    {
      "inputs": [
        {
          "internalType": "address",
          "name": "AssetNotAllowed",
          "type": "address"
        }
      ],
      "name": "AssetNotAllowed",
      "type": "error"
    },
    {
      "inputs": [
        {
          "internalType": "address",
          "name": "AssetDisabled",
          "type": "address"
        }
      ],
      "name": "DisabledAsset",
      "type": "error"
    },
    {
      "inputs": [],
      "name": "FailedToTransferETH",
      "type": "error"
    },
    {
      "inputs": [],
      "name": "InvalidFee",
      "type": "error"
    },
    {
      "inputs": [
        {
          "internalType": "uint256",
          "name": "WithdrawalRequestRound",
          "type": "uint256"
        },
        {
          "internalType": "uint256",
          "name": "currentRound",
          "type": "uint256"
        }
      ],
      "name": "InvalidWithdrawalRound",
      "type": "error"
    },
    {
      "inputs": [
        {
          "internalType": "address",
          "name": "actualAddr",
          "type": "address"
        },
        {
          "internalType": "address",
          "name": "ownerAddr",
          "type": "address"
        }
      ],
      "name": "NotAuthorized",
      "type": "error"
    },
    {
      "inputs": [
        {
          "internalType": "uint256",
          "name": "withdrawalBalance",
          "type": "uint256"
        },
        {
          "internalType": "uint256",
          "name": "withdrawalRequestBalance",
          "type": "uint256"
        }
      ],
      "name": "NotEnoughWithdrawalBalance",
      "type": "error"
    },
    {
      "inputs": [
        {
          "internalType": "uint256",
          "name": "withdrawalshare",
          "type": "uint256"
        },
        {
          "internalType": "uint256",
          "name": "withdrawalRequestshare",
          "type": "uint256"
        }
      ],
      "name": "NotEnoughWithdrawalShare",
      "type": "error"
    },
    {
      "inputs": [
        {
          "internalType": "address",
          "name": "guard_",
          "type": "address"
        }
      ],
      "name": "NotIERC165Compliant",
      "type": "error"
    },
    {
      "inputs": [
        {
          "internalType": "uint256",
          "name": "limit",
          "type": "uint256"
        }
      ],
      "name": "VaultReachedDepositLimit",
      "type": "error"
    },
    {
      "inputs": [
        {
          "internalType": "uint256",
          "name": "WithdrawalAlreadyExists",
          "type": "uint256"
        }
      ],
      "name": "WithdrawalAlreadyExists",
      "type": "error"
    },
    {
      "inputs": [
        {
          "internalType": "address",
          "name": "ZeroAddress",
          "type": "address"
        }
      ],
      "name": "ZeroAddress",
      "type": "error"
    },
    {
      "inputs": [
        {
          "internalType": "uint256",
          "name": "ZeroValue",
          "type": "uint256"
        }
      ],
      "name": "ZeroValue",
      "type": "error"
    },
    {
      "inputs": [],
      "name": "ZeroWithdrawalShare",
      "type": "error"
    },
    {
      "anonymous": false,
      "inputs": [
        {
          "indexed": true,
          "internalType": "address",
          "name": "previousAvatar",
          "type": "address"
        },
        {
          "indexed": true,
          "internalType": "address",
          "name": "newAvatar",
          "type": "address"
        }
      ],
      "name": "AvatarSet",
      "type": "event"
    },
    {
      "anonymous": false,
      "inputs": [
        {
          "indexed": true,
          "internalType": "address",
          "name": "token",
          "type": "address"
        },
        {
          "indexed": false,
          "internalType": "uint256",
          "name": "oldCap",
          "type": "uint256"
        },
        {
          "indexed": false,
          "internalType": "uint256",
          "name": "newCap",
          "type": "uint256"
        }
      ],
      "name": "CapSet",
      "type": "event"
    },
    {
      "anonymous": false,
      "inputs": [
        {
          "indexed": true,
          "internalType": "address",
          "name": "token",
          "type": "address"
        },
        {
          "indexed": false,
          "internalType": "bool",
          "name": "status",
          "type": "bool"
        }
      ],
      "name": "ChangeAssetStatus",
      "type": "event"
    },
    {
      "anonymous": false,
      "inputs": [
        {
          "indexed": false,
          "internalType": "address",
          "name": "guard",
          "type": "address"
        }
      ],
      "name": "ChangedGuard",
      "type": "event"
    },
    {
      "anonymous": false,
      "inputs": [
        {
          "indexed": true,
          "internalType": "address",
          "name": "token",
          "type": "address"
        },
        {
          "indexed": true,
          "internalType": "uint16",
          "name": "round",
          "type": "uint16"
        },
        {
          "indexed": false,
          "internalType": "uint256",
          "name": "SharePerUnit",
          "type": "uint256"
        },
        {
          "indexed": false,
          "internalType": "uint256",
          "name": "lockedAmount",
          "type": "uint256"
        }
      ],
      "name": "CloseRound",
      "type": "event"
    },
    {
      "anonymous": false,
      "inputs": [
        {
          "indexed": true,
          "internalType": "address",
          "name": "token",
          "type": "address"
        },
        {
          "indexed": false,
          "internalType": "uint256",
          "name": "round",
          "type": "uint256"
        }
      ],
      "name": "CollectVaultFee",
      "type": "event"
    },
    {
      "anonymous": false,
      "inputs": [
        {
          "indexed": true,
          "internalType": "address",
          "name": "token",
          "type": "address"
        },
        {
          "indexed": true,
          "internalType": "address",
          "name": "crToken",
          "type": "address"
        },
        {
          "indexed": false,
          "internalType": "string",
          "name": "tokenName",
          "type": "string"
        },
        {
          "indexed": false,
          "internalType": "string",
          "name": "tokenSymbol",
          "type": "string"
        },
        {
          "indexed": false,
          "internalType": "uint8",
          "name": "decimal",
          "type": "uint8"
        },
        {
          "indexed": false,
          "internalType": "uint256",
          "name": "tokenCap",
          "type": "uint256"
        }
      ],
      "name": "CreateToken",
      "type": "event"
    },
    {
      "anonymous": false,
      "inputs": [
        {
          "indexed": true,
          "internalType": "address",
          "name": "account",
          "type": "address"
        },
        {
          "indexed": false,
          "internalType": "uint256",
          "name": "amount",
          "type": "uint256"
        },
        {
          "indexed": true,
          "internalType": "address",
          "name": "token",
          "type": "address"
        }
      ],
      "name": "Deposit",
      "type": "event"
    },
    {
      "anonymous": false,
      "inputs": [
        {
          "indexed": false,
          "internalType": "uint8",
          "name": "version",
          "type": "uint8"
        }
      ],
      "name": "Initialized",
      "type": "event"
    },
    {
      "anonymous": false,
      "inputs": [
        {
          "indexed": true,
          "internalType": "address",
          "name": "account",
          "type": "address"
        },
        {
          "indexed": true,
          "internalType": "address",
          "name": "token",
          "type": "address"
        },
        {
          "indexed": false,
          "internalType": "uint256",
          "name": "amount",
          "type": "uint256"
        }
      ],
      "name": "InitiateStandardWithdrawal",
      "type": "event"
    },
    {
      "anonymous": false,
      "inputs": [
        {
          "indexed": true,
          "internalType": "address",
          "name": "account",
          "type": "address"
        },
        {
          "indexed": false,
          "internalType": "uint256",
          "name": "amount",
          "type": "uint256"
        },
        {
          "indexed": false,
          "internalType": "uint16",
          "name": "currentRound",
          "type": "uint16"
        },
        {
          "indexed": true,
          "internalType": "address",
          "name": "token",
          "type": "address"
        }
      ],
      "name": "InstantWithdrawal",
      "type": "event"
    },
    {
      "anonymous": false,
      "inputs": [
        {
          "indexed": false,
          "internalType": "uint256",
          "name": "managementFee",
          "type": "uint256"
        },
        {
          "indexed": false,
          "internalType": "uint256",
          "name": "newManagementFee",
          "type": "uint256"
        }
      ],
      "name": "ManagementFeeSet",
      "type": "event"
    },
    {
      "anonymous": false,
      "inputs": [
        {
          "indexed": true,
          "internalType": "address",
          "name": "previousOwner",
          "type": "address"
        },
        {
          "indexed": true,
          "internalType": "address",
          "name": "newOwner",
          "type": "address"
        }
      ],
      "name": "OwnershipTransferred",
      "type": "event"
    },
    {
      "anonymous": false,
      "inputs": [
        {
          "indexed": false,
          "internalType": "address",
          "name": "account",
          "type": "address"
        }
      ],
      "name": "Paused",
      "type": "event"
    },
    {
      "anonymous": false,
      "inputs": [
        {
          "indexed": false,
          "internalType": "uint256",
          "name": "performanceFee",
          "type": "uint256"
        },
        {
          "indexed": false,
          "internalType": "uint256",
          "name": "newPerformanceFee",
          "type": "uint256"
        }
      ],
      "name": "PerformanceFeeSet",
      "type": "event"
    },
    {
      "anonymous": false,
      "inputs": [
        {
          "indexed": true,
          "internalType": "address",
          "name": "account",
          "type": "address"
        },
        {
          "indexed": false,
          "internalType": "uint256",
          "name": "amount",
          "type": "uint256"
        },
        {
          "indexed": true,
          "internalType": "address",
          "name": "token",
          "type": "address"
        }
      ],
      "name": "StandardWithdrawal",
      "type": "event"
    },
    {
      "anonymous": false,
      "inputs": [
        {
          "indexed": true,
          "internalType": "address",
          "name": "previousTarget",
          "type": "address"
        },
        {
          "indexed": true,
          "internalType": "address",
          "name": "newTarget",
          "type": "address"
        }
      ],
      "name": "TargetSet",
      "type": "event"
    },
    {
      "anonymous": false,
      "inputs": [
        {
          "indexed": true,
          "internalType": "address",
          "name": "account",
          "type": "address"
        },
        {
          "indexed": false,
          "internalType": "uint256",
          "name": "amount",
          "type": "uint256"
        },
        {
          "indexed": true,
          "internalType": "address",
          "name": "token",
          "type": "address"
        }
      ],
      "name": "TransferFromSafe",
      "type": "event"
    },
    {
      "anonymous": false,
      "inputs": [
        {
          "indexed": false,
          "internalType": "address",
          "name": "account",
          "type": "address"
        }
      ],
      "name": "Unpaused",
      "type": "event"
    },
    {
      "inputs": [],
      "name": "ETH",
      "outputs": [
        {
          "internalType": "address",
          "name": "",
          "type": "address"
        }
      ],
      "stateMutability": "view",
      "type": "function"
    },
    {
      "inputs": [],
      "name": "avatar",
      "outputs": [
        {
          "internalType": "address",
          "name": "",
          "type": "address"
        }
      ],
      "stateMutability": "view",
      "type": "function"
    },
    {
      "inputs": [
        {
          "internalType": "address",
          "name": "token",
          "type": "address"
        },
        {
          "internalType": "address",
          "name": "account",
          "type": "address"
        }
      ],
      "name": "balanceOf",
      "outputs": [
        {
          "internalType": "uint256",
          "name": "",
          "type": "uint256"
        }
      ],
      "stateMutability": "view",
      "type": "function"
    },
    {
      "inputs": [
        {
          "internalType": "address",
          "name": "token",
          "type": "address"
        },
        {
          "internalType": "address",
          "name": "account",
          "type": "address"
        }
      ],
      "name": "balanceOfUser",
      "outputs": [
        {
          "internalType": "uint256",
          "name": "balance",
          "type": "uint256"
        }
      ],
      "stateMutability": "view",
      "type": "function"
    },
    {
      "inputs": [
        {
          "internalType": "address",
          "name": "token",
          "type": "address"
        },
        {
          "internalType": "bool",
          "name": "status",
          "type": "bool"
        }
      ],
      "name": "changeAssetStatus",
      "outputs": [],
      "stateMutability": "nonpayable",
      "type": "function"
    },
    {
      "inputs": [
        {
          "internalType": "address",
          "name": "token",
          "type": "address"
        }
      ],
      "name": "closeRound",
      "outputs": [],
      "stateMutability": "nonpayable",
      "type": "function"
    },
    {
      "inputs": [],
      "name": "crContract",
      "outputs": [
        {
          "internalType": "address",
          "name": "",
          "type": "address"
        }
      ],
      "stateMutability": "view",
      "type": "function"
    },
    {
      "inputs": [
        {
          "internalType": "string",
          "name": "name",
          "type": "string"
        },
        {
          "internalType": "string",
          "name": "symbol",
          "type": "string"
        },
        {
          "internalType": "address",
          "name": "token",
          "type": "address"
        },
        {
          "internalType": "uint104",
          "name": "tokenCap",
          "type": "uint104"
        }
      ],
      "name": "createToken",
      "outputs": [],
      "stateMutability": "nonpayable",
      "type": "function"
    },
    {
      "inputs": [],
      "name": "cruizeProxy",
      "outputs": [
        {
          "internalType": "address",
          "name": "",
          "type": "address"
        }
      ],
      "stateMutability": "view",
      "type": "function"
    },
    {
      "inputs": [
        {
          "internalType": "address",
          "name": "",
          "type": "address"
        }
      ],
      "name": "cruizeTokens",
      "outputs": [
        {
          "internalType": "address",
          "name": "",
          "type": "address"
        }
      ],
      "stateMutability": "view",
      "type": "function"
    },
    {
      "inputs": [
        {
          "internalType": "address",
          "name": "",
          "type": "address"
        }
      ],
      "name": "currentQueuedWithdrawalShares",
      "outputs": [
        {
          "internalType": "uint128",
          "name": "",
          "type": "uint128"
        }
      ],
      "stateMutability": "view",
      "type": "function"
    },
    {
      "inputs": [
        {
          "internalType": "address",
          "name": "token",
          "type": "address"
        },
        {
          "internalType": "uint256",
          "name": "amount",
          "type": "uint256"
        }
      ],
      "name": "deposit",
      "outputs": [],
      "stateMutability": "payable",
      "type": "function"
    },
    {
      "inputs": [
        {
          "internalType": "address",
          "name": "",
          "type": "address"
        },
        {
          "internalType": "address",
          "name": "",
          "type": "address"
        }
      ],
      "name": "depositReceipts",
      "outputs": [
        {
          "internalType": "uint16",
          "name": "round",
          "type": "uint16"
        },
        {
          "internalType": "uint104",
          "name": "amount",
          "type": "uint104"
        },
        {
          "internalType": "uint128",
          "name": "unredeemedShares",
          "type": "uint128"
        },
        {
          "internalType": "uint104",
          "name": "totalDeposit",
          "type": "uint104"
        }
      ],
      "stateMutability": "view",
      "type": "function"
    },
    {
      "inputs": [],
      "name": "feeRecipient",
      "outputs": [
        {
          "internalType": "address",
          "name": "",
          "type": "address"
        }
      ],
      "stateMutability": "view",
      "type": "function"
    },
    {
      "inputs": [],
      "name": "getFeeRecipient",
      "outputs": [
        {
          "internalType": "address",
          "name": "",
          "type": "address"
        }
      ],
      "stateMutability": "view",
      "type": "function"
    },
    {
      "inputs": [],
      "name": "getGuard",
      "outputs": [
        {
          "internalType": "address",
          "name": "_guard",
          "type": "address"
        }
      ],
      "stateMutability": "view",
      "type": "function"
    },
    {
      "inputs": [
        {
          "internalType": "uint256",
          "name": "totalBalanceLocked",
          "type": "uint256"
        },
        {
          "internalType": "uint256",
          "name": "decimal",
          "type": "uint256"
        }
      ],
      "name": "getManagementFee",
      "outputs": [
        {
          "internalType": "uint256",
          "name": "",
          "type": "uint256"
        }
      ],
      "stateMutability": "view",
      "type": "function"
    },
    {
      "inputs": [
        {
          "internalType": "uint256",
          "name": "roundAPY",
          "type": "uint256"
        },
        {
          "internalType": "uint256",
          "name": "decimal",
          "type": "uint256"
        }
      ],
      "name": "getPerformanceFee",
      "outputs": [
        {
          "internalType": "uint256",
          "name": "",
          "type": "uint256"
        }
      ],
      "stateMutability": "view",
      "type": "function"
    },
    {
      "inputs": [],
      "name": "gnosisSafe",
      "outputs": [
        {
          "internalType": "address",
          "name": "",
          "type": "address"
        }
      ],
      "stateMutability": "view",
      "type": "function"
    },
    {
      "inputs": [],
      "name": "guard",
      "outputs": [
        {
          "internalType": "address",
          "name": "",
          "type": "address"
        }
      ],
      "stateMutability": "view",
      "type": "function"
    },
    {
      "inputs": [
        {
          "internalType": "address",
          "name": "token",
          "type": "address"
        },
        {
          "internalType": "uint256",
          "name": "numShares",
          "type": "uint256"
        }
      ],
      "name": "initiateWithdrawal",
      "outputs": [],
      "stateMutability": "nonpayable",
      "type": "function"
    },
    {
      "inputs": [
        {
          "internalType": "address",
          "name": "token",
          "type": "address"
        },
        {
          "internalType": "uint256",
          "name": "amount",
          "type": "uint256"
        }
      ],
      "name": "instantWithdrawal",
      "outputs": [],
      "stateMutability": "nonpayable",
      "type": "function"
    },
    {
      "inputs": [
        {
          "internalType": "address",
          "name": "",
          "type": "address"
        }
      ],
      "name": "isDisable",
      "outputs": [
        {
          "internalType": "bool",
          "name": "",
          "type": "bool"
        }
      ],
      "stateMutability": "view",
      "type": "function"
    },
    {
      "inputs": [],
      "name": "isManagementFeeEnable",
      "outputs": [
        {
          "internalType": "bool",
          "name": "",
          "type": "bool"
        }
      ],
      "stateMutability": "view",
      "type": "function"
    },
    {
      "inputs": [],
      "name": "isPerformanceFeeEnabled",
      "outputs": [
        {
          "internalType": "bool",
          "name": "",
          "type": "bool"
        }
      ],
      "stateMutability": "view",
      "type": "function"
    },
    {
      "inputs": [
        {
          "internalType": "address",
          "name": "",
          "type": "address"
        }
      ],
      "name": "lastQueuedWithdrawAmounts",
      "outputs": [
        {
          "internalType": "uint256",
          "name": "",
          "type": "uint256"
        }
      ],
      "stateMutability": "view",
      "type": "function"
    },
    {
      "inputs": [],
      "name": "managementFee",
      "outputs": [
        {
          "internalType": "uint256",
          "name": "",
          "type": "uint256"
        }
      ],
      "stateMutability": "view",
      "type": "function"
    },
    {
      "inputs": [],
      "name": "module",
      "outputs": [
        {
          "internalType": "address",
          "name": "",
          "type": "address"
        }
      ],
      "stateMutability": "view",
      "type": "function"
    },
    {
      "inputs": [],
      "name": "owner",
      "outputs": [
        {
          "internalType": "address",
          "name": "",
          "type": "address"
        }
      ],
      "stateMutability": "view",
      "type": "function"
    },
    {
      "inputs": [],
      "name": "pause",
      "outputs": [],
      "stateMutability": "nonpayable",
      "type": "function"
    },
    {
      "inputs": [],
      "name": "paused",
      "outputs": [
        {
          "internalType": "bool",
          "name": "",
          "type": "bool"
        }
      ],
      "stateMutability": "view",
      "type": "function"
    },
    {
      "inputs": [],
      "name": "performanceFee",
      "outputs": [
        {
          "internalType": "uint256",
          "name": "",
          "type": "uint256"
        }
      ],
      "stateMutability": "view",
      "type": "function"
    },
    {
      "inputs": [
        {
          "internalType": "address",
          "name": "token",
          "type": "address"
        }
      ],
      "name": "pricePerShare",
      "outputs": [
        {
          "internalType": "uint256",
          "name": "",
          "type": "uint256"
        }
      ],
      "stateMutability": "view",
      "type": "function"
    },
    {
      "inputs": [],
      "name": "renounceOwnership",
      "outputs": [],
      "stateMutability": "nonpayable",
      "type": "function"
    },
    {
      "inputs": [
        {
          "internalType": "address",
          "name": "",
          "type": "address"
        },
        {
          "internalType": "uint16",
          "name": "",
          "type": "uint16"
        }
      ],
      "name": "roundPricePerShare",
      "outputs": [
        {
          "internalType": "uint256",
          "name": "",
          "type": "uint256"
        }
      ],
      "stateMutability": "view",
      "type": "function"
    },
    {
      "inputs": [
        {
          "internalType": "address",
          "name": "_avatar",
          "type": "address"
        }
      ],
      "name": "setAvatar",
      "outputs": [],
      "stateMutability": "nonpayable",
      "type": "function"
    },
    {
      "inputs": [
        {
          "internalType": "address",
          "name": "token",
          "type": "address"
        },
        {
          "internalType": "uint256",
          "name": "newCap",
          "type": "uint256"
        }
      ],
      "name": "setCap",
      "outputs": [],
      "stateMutability": "nonpayable",
      "type": "function"
    },
    {
      "inputs": [
        {
          "internalType": "address",
          "name": "newFeeRecipient",
          "type": "address"
        }
      ],
      "name": "setFeeRecipient",
      "outputs": [],
      "stateMutability": "nonpayable",
      "type": "function"
    },
    {
      "inputs": [
        {
          "internalType": "bool",
          "name": "_performanceFee",
          "type": "bool"
        },
        {
          "internalType": "bool",
          "name": "_managementFee",
          "type": "bool"
        }
      ],
      "name": "setFeeStatus",
      "outputs": [],
      "stateMutability": "nonpayable",
      "type": "function"
    },
    {
      "inputs": [
        {
          "internalType": "address",
          "name": "_guard",
          "type": "address"
        }
      ],
      "name": "setGuard",
      "outputs": [],
      "stateMutability": "nonpayable",
      "type": "function"
    },
    {
      "inputs": [
        {
          "internalType": "uint256",
          "name": "newManagementFee",
          "type": "uint256"
        }
      ],
      "name": "setManagementFee",
      "outputs": [],
      "stateMutability": "nonpayable",
      "type": "function"
    },
    {
      "inputs": [
        {
          "internalType": "uint256",
          "name": "newPerformanceFee",
          "type": "uint256"
        }
      ],
      "name": "setPerformanceFee",
      "outputs": [],
      "stateMutability": "nonpayable",
      "type": "function"
    },
    {
      "inputs": [
        {
          "internalType": "address",
          "name": "_target",
          "type": "address"
        }
      ],
      "name": "setTarget",
      "outputs": [],
      "stateMutability": "nonpayable",
      "type": "function"
    },
    {
      "inputs": [
        {
          "internalType": "bytes",
          "name": "initializeParams",
          "type": "bytes"
        }
      ],
      "name": "setUp",
      "outputs": [],
      "stateMutability": "nonpayable",
      "type": "function"
    },
    {
      "inputs": [
        {
          "internalType": "address",
          "name": "token",
          "type": "address"
        },
        {
          "internalType": "address",
          "name": "account",
          "type": "address"
        }
      ],
      "name": "shareBalances",
      "outputs": [
        {
          "internalType": "uint256",
          "name": "heldByAccount",
          "type": "uint256"
        },
        {
          "internalType": "uint256",
          "name": "heldByVault",
          "type": "uint256"
        },
        {
          "internalType": "uint256",
          "name": "totalShares",
          "type": "uint256"
        }
      ],
      "stateMutability": "view",
      "type": "function"
    },
    {
      "inputs": [
        {
          "internalType": "address",
          "name": "token",
          "type": "address"
        }
      ],
      "name": "standardWithdrawal",
      "outputs": [],
      "stateMutability": "nonpayable",
      "type": "function"
    },
    {
      "inputs": [],
      "name": "target",
      "outputs": [
        {
          "internalType": "address",
          "name": "",
          "type": "address"
        }
      ],
      "stateMutability": "view",
      "type": "function"
    },
    {
      "inputs": [
        {
          "internalType": "uint256",
          "name": "",
          "type": "uint256"
        }
      ],
      "name": "tokens",
      "outputs": [
        {
          "internalType": "address",
          "name": "",
          "type": "address"
        }
      ],
      "stateMutability": "view",
      "type": "function"
    },
    {
      "inputs": [
        {
          "internalType": "address",
          "name": "token",
          "type": "address"
        }
      ],
      "name": "totalTokenPending",
      "outputs": [
        {
          "internalType": "uint256",
          "name": "",
          "type": "uint256"
        }
      ],
      "stateMutability": "view",
      "type": "function"
    },
    {
      "inputs": [
        {
          "internalType": "address",
          "name": "_paymentToken",
          "type": "address"
        },
        {
          "internalType": "address",
          "name": "_receiver",
          "type": "address"
        },
        {
          "internalType": "address",
          "name": "_cruizeProxy",
          "type": "address"
        },
        {
          "internalType": "uint256",
          "name": "_amount",
          "type": "uint256"
        }
      ],
      "name": "transferFromSafe",
      "outputs": [],
      "stateMutability": "nonpayable",
      "type": "function"
    },
    {
      "inputs": [
        {
          "internalType": "address",
          "name": "newOwner",
          "type": "address"
        }
      ],
      "name": "transferOwnership",
      "outputs": [],
      "stateMutability": "nonpayable",
      "type": "function"
    },
    {
      "inputs": [],
      "name": "unpause",
      "outputs": [],
      "stateMutability": "nonpayable",
      "type": "function"
    },
    {
      "inputs": [
        {
          "internalType": "address",
          "name": "",
          "type": "address"
        }
      ],
      "name": "vaults",
      "outputs": [
        {
          "internalType": "uint16",
          "name": "round",
          "type": "uint16"
        },
        {
          "internalType": "uint104",
          "name": "lockedAmount",
          "type": "uint104"
        },
        {
          "internalType": "uint128",
          "name": "totalPending",
          "type": "uint128"
        },
        {
          "internalType": "uint128",
          "name": "queuedWithdrawShares",
          "type": "uint128"
        },
        {
          "internalType": "uint104",
          "name": "cap",
          "type": "uint104"
        }
      ],
      "stateMutability": "view",
      "type": "function"
    },
    {
      "inputs": [
        {
          "internalType": "address",
          "name": "",
          "type": "address"
        },
        {
          "internalType": "address",
          "name": "",
          "type": "address"
        }
      ],
      "name": "withdrawals",
      "outputs": [
        {
          "internalType": "uint16",
          "name": "round",
          "type": "uint16"
        },
        {
          "internalType": "uint128",
          "name": "shares",
          "type": "uint128"
        }
      ],
      "stateMutability": "view",
      "type": "function"
    },
    {
      "stateMutability": "payable",
      "type": "receive"
    }
  ],
  "transactionHash": "0xac569733978d920cc93027e3093c0050f505f4f68640bb98adc59564b190b196",
  "args": [],
  "numDeployments": 1,
  "solcInputHash": "fbcc673e8c5a45e8dc526136033349ca",
  "bytecode": "0x608060405234801561001057600080fd5b506147c2806100206000396000f3fe6080604052600436106103395760003560e01c806387788782116101ab578063c54c8ddc116100f7578063e3c6a66511610095578063e7de16701161006f578063e7de167014610b2e578063f2fde38b14610b7c578063f7888aec14610b9c578063fe56e23214610bbc57600080fd5b8063e3c6a66514610ace578063e409e1f814610aee578063e74b981b14610b0e57600080fd5b8063cad59d16116100d1578063cad59d16146109ff578063cd47bde114610a1f578063d4b8399214610a8e578063e19a9dd914610aae57600080fd5b8063c54c8ddc14610991578063c8393ba9146109c1578063c9106389146109e157600080fd5b8063a622ee7c11610164578063ac8469581161013e578063ac846958146108f1578063b38aaeaa14610911578063b86d529814610931578063be4d58c01461095657600080fd5b8063a622ee7c14610811578063a6f7f5d6146108bb578063a84173ae146108d157600080fd5b806387788782146106dd5780638b46ae5e146106f35780638da5cb5b146107135780639367a8e51461073157806397b7ea7d146107d7578063a4f9edbf146107f157600080fd5b80635aef7de611610285578063776d1a011161022357806380ad2cf3116101fd57806380ad2cf3146106535780638322fff2146106735780638456cb591461069b57806386fcf7f6146106b057600080fd5b8063776d1a01146105dd5780637ceab3b1146105fd5780637f288b261461061d57600080fd5b806368258f491161025f57806368258f491461056857806370897b2314610588578063715018a6146105a8578063717edf28146105bd57600080fd5b80635aef7de61461050a5780635c975abb1461052a578063619954aa1461054e57600080fd5b80633f4ba83a116102f257806346904840116102cc57806346904840146104a257806347e7ef24146104c25780634ccb20c0146104d55780634f64b2be146104ea57600080fd5b80633f4ba83a1461044d5780634292a23f14610462578063466374c91461048257600080fd5b8063086cfca814610348578063108efa931461036a578063194ecddb146103a75780631c2106a6146103c757806320ae9c5d146103f557806324116b991461041557600080fd5b3661034357600080fd5b600080fd5b34801561035457600080fd5b50610368610363366004614087565b610bdc565b005b34801561037657600080fd5b5060065461038a906001600160a01b031681565b6040516001600160a01b0390911681526020015b60405180910390f35b3480156103b357600080fd5b506103686103c2366004614087565b610c36565b3480156103d357600080fd5b506103e76103e2366004614397565b610cef565b60405190815260200161039e565b34801561040157600080fd5b506103e7610410366004614133565b610d07565b34801561042157600080fd5b506103e76104303660046141eb565b600f60209081526000928352604080842090915290825290205481565b34801561045957600080fd5b50610368610eb5565b34801561046e57600080fd5b5061036861047d366004614269565b610ec7565b34801561048e57600080fd5b5061036861049d3660046142d0565b610eef565b3480156104ae57600080fd5b5060005461038a906001600160a01b031681565b6103686104d0366004614220565b61110c565b3480156104e157600080fd5b5061038a611429565b3480156104f657600080fd5b5061038a610505366004614365565b611443565b34801561051657600080fd5b5060dc5461038a906001600160a01b031681565b34801561053657600080fd5b5060a85460ff165b604051901515815260200161039e565b34801561055a57600080fd5b5060025461053e9060ff1681565b34801561057457600080fd5b50610368610583366004614087565b61146d565b34801561059457600080fd5b506103686105a3366004614365565b6114f0565b3480156105b457600080fd5b5061036861158f565b3480156105c957600080fd5b5060075461038a906001600160a01b031681565b3480156105e957600080fd5b506103686105f8366004614087565b6115a1565b34801561060957600080fd5b5060db5461038a906001600160a01b031681565b34801561062957600080fd5b5061038a610638366004614087565b6008602052600090815260409020546001600160a01b031681565b34801561065f57600080fd5b5061036861066e366004614220565b6115fb565b34801561067f57600080fd5b5061038a73eeeeeeeeeeeeeeeeeeeeeeeeeeeeeeeeeeeeeeee81565b3480156106a757600080fd5b5061036861170d565b3480156106bc57600080fd5b506103e76106cb366004614087565b600b6020526000908152604090205481565b3480156106e957600080fd5b506103e760015481565b3480156106ff57600080fd5b506103e761070e366004614087565b61171d565b34801561071f57600080fd5b506076546001600160a01b031661038a565b34801561073d57600080fd5b5061079b61074c366004614133565b600e6020908152600092835260408084209091529082529020805460019091015461ffff8216916201000081046001600160681b0390811692600160781b9092046001600160801b0316911684565b6040805161ffff90951685526001600160681b0393841660208601526001600160801b039092169184019190915216606082015260800161039e565b3480156107e357600080fd5b5060045461053e9060ff1681565b3480156107fd57600080fd5b5061036861080c366004614287565b61176b565b34801561081d57600080fd5b5061087b61082c366004614087565b600a602052600090815260409020805460019091015461ffff8216916001600160681b036201000082048116926001600160801b03600160781b909304831692811691600160801b9091041685565b6040805161ffff90961686526001600160681b0394851660208701526001600160801b03938416908601529116606084015216608082015260a00161039e565b3480156108c757600080fd5b506103e760035481565b3480156108dd57600080fd5b5060055461038a906001600160a01b031681565b3480156108fd57600080fd5b506103e761090c366004614087565b611963565b34801561091d57600080fd5b5061036861092c366004614220565b6119d7565b34801561093d57600080fd5b5060045461038a9061010090046001600160a01b031681565b34801561096257600080fd5b50610976610971366004614133565b611b09565b6040805193845260208401929092529082015260600161039e565b34801561099d57600080fd5b5061053e6109ac366004614087565b60096020526000908152604090205460ff1681565b3480156109cd57600080fd5b506103686109dc366004614220565b611c8e565b3480156109ed57600080fd5b5060db546001600160a01b031661038a565b348015610a0b57600080fd5b50610368610a1a3660046141bd565b611d93565b348015610a2b57600080fd5b50610a6c610a3a366004614133565b600d60209081526000928352604080842090915290825290205461ffff8116906201000090046001600160801b031682565b6040805161ffff90931683526001600160801b0390911660208301520161039e565b348015610a9a57600080fd5b5060dd5461038a906001600160a01b031681565b348015610aba57600080fd5b50610368610ac9366004614087565b611e2e565b348015610ada57600080fd5b50610368610ae936600461416c565b611f3f565b348015610afa57600080fd5b506103e7610b09366004614397565b6120fb565b348015610b1a57600080fd5b50610368610b29366004614087565b61210a565b348015610b3a57600080fd5b50610b64610b49366004614087565b600c602052600090815260409020546001600160801b031681565b6040516001600160801b03909116815260200161039e565b348015610b8857600080fd5b50610368610b97366004614087565b612168565b348015610ba857600080fd5b506103e7610bb7366004614133565b6121de565b348015610bc857600080fd5b50610368610bd7366004614365565b6122ed565b610be46123b7565b60dc80546001600160a01b038381166001600160a01b0319831681179093556040519116919082907f52ae88b092de36f87fb43fe794eb1381023b9c1bce563a871154022c63dce34290600090a35050565b610c3e612411565b6001600160a01b03808216600090815260086020526040902054829116610c8857604051630188053b60e41b81526001600160a01b03821660048201526024015b60405180910390fd5b6001600160a01b038216600090815260096020526040902054829060ff1615610ccf57604051631398937760e11b81526001600160a01b0382166004820152602401610c7f565b610cd761246b565b610ce0836124b1565b5050610cec600160a955565b50565b6000610cfe838360035461278a565b90505b92915050565b6001600160a01b038083166000908152600860205260408120549091849116610d4e57604051630188053b60e41b81526001600160a01b0382166004820152602401610c7f565b826001600160a01b038116610d8157604051633202e20d60e21b81526001600160a01b0382166004820152602401610c7f565b6001600160a01b038085166000908152600e60209081526040808320938916808452938252808320815160808082018452825461ffff80821684526001600160681b03620100008084048216868a01526001600160801b03600160781b948590048116878a015260019788015483166060808901919091529b8b52600a8a52888b20895160a081018b52815495861680825293860485169b81019b909b5294909304831697890197909752919094015493841697860197909752600160801b909204909516908301529091610e55896127c0565b90506000610e788361ffff16610e6f8c8860000151612860565b879190856128ca565b90506000610e9a82610e948d610e8f6001896146c9565b612860565b8561293b565b9050610ea6898261299d565b9b9a5050505050505050505050565b610ebd6123b7565b610ec56129a9565b565b610ecf6123b7565b6002805492151560ff199384161790556004805491151591909216179055565b6001600160681b03811680610f1a576040516302ee6a2560e21b815260048101829052602401610c7f565b610f226123b7565b6000610f2d846127c0565b6001600160a01b038581166000908152600860205260409020549192501615610f7457604051634af8dd4d60e11b81526001600160a01b0385166004820152602401610c7f565b600754600090610f8c906001600160a01b03166129fb565b6001600160a01b038681166000908152600860205260409081902080546001600160a01b031916928416928317905551630b127b6360e11b815291925090631624f6c690610fe2908a908a90879060040161446a565b600060405180830381600087803b158015610ffc57600080fd5b505af1158015611010573d6000803e3d6000fd5b505050506001600160a01b0385166000818152600a602052604081208054600161ffff19909116811782559081018054600160801b600160e81b031916600160801b6001600160681b038a1602179055601080549182018155918290527f1b6847dc741a1b0cd08d278845f9d819d87b734759afb55fe2de5cb82a9ae6720180546001600160a01b03191690921790915580546110b09082908190613f95565b50816001600160a01b0316866001600160a01b03167f2bb8c305337fc72d58a951859397f8a5a04a46d9cfcb5b57b28b185fb73bcb3e8a8a878a6040516110fa94939291906144a3565b60405180910390a35050505050505050565b611114612411565b6001600160a01b0380831660009081526008602052604090205483911661115957604051630188053b60e41b81526001600160a01b0382166004820152602401610c7f565b818061117b576040516302ee6a2560e21b815260048101829052602401610c7f565b6001600160a01b038416600090815260096020526040902054849060ff16156111c257604051631398937760e11b81526001600160a01b0382166004820152602401610c7f565b6111ca61246b565b6111d48585612a4d565b6001600160a01b03851673eeeeeeeeeeeeeeeeeeeeeeeeeeeeeeeeeeeeeeee14801561123b57506001600160a01b038581166000908152600a6020526040902060010154600554600160801b9091046001600160681b0316916112399116318661299d565b105b156112ba576005546040516000916001600160a01b03169086908381818185875af1925050503d806000811461128d576040519150601f19603f3d011682016040523d82523d6000602084013e611292565b606091505b50509050806112b457604051639d4a106d60e01b815260040160405180910390fd5b506113d7565b6001600160a01b038581166000818152600a6020526040908190206001015460055491516370a0823160e01b8152919093166004820152600160801b9092046001600160681b0316916113689187916370a082319060240160206040518083038186803b15801561132a57600080fd5b505afa15801561133e573d6000803e3d6000fd5b505050506040513d601f19601f82011682018060405250810190611362919061437e565b9061299d565b101561138f5760055461138a906001600160a01b038781169133911687612d07565b6113d7565b6001600160a01b0385166000908152600a60205260409081902060010154905163b88f2a8560e01b8152600160801b9091046001600160681b03166004820152602401610c7f565b6040518481526001600160a01b0386169033907fe31c7b8d08ee7db0afa68782e1028ef92305caeea8626633ad44d413e30f6b2f906020015b60405180910390a3505050611425600160a955565b5050565b60006114336123b7565b506000546001600160a01b031690565b6010818154811061145357600080fd5b6000918252602090912001546001600160a01b0316905081565b611475612411565b61147d6123b7565b6001600160a01b0381161561149a5761149581612d78565b6114e6565b60105460005b818160ff161015610ce0576114de60108260ff16815481106114c4576114c461473d565b6000918252602090912001546001600160a01b0316612d78565b6001016114a0565b610cec600160a955565b8080611512576040516302ee6a2560e21b815260048101829052602401610c7f565b61151a6123b7565b61152d670de0b6b3a76400006064614682565b82111561154d576040516358d620b360e01b815260040160405180910390fd5b60015460408051918252602082018490527f24867dfb6fcb9970a07be21024956524abe7a1837faa903ff0e99aaa40cf893e910160405180910390a150600155565b6115976123b7565b610ec56000612ec2565b6115a96123b7565b60dd80546001600160a01b038381166001600160a01b0319831681179093556040519116919082907f90cc2f570a6eb594b1580ea3e41247d2d73a55281889e86bd4ec2fc29c7e62d690600090a35050565b6116036123b7565b6001600160a01b0380831660009081526008602052604090205483911661164857604051630188053b60e41b81526001600160a01b0382166004820152602401610c7f565b818061166a576040516302ee6a2560e21b815260048101829052602401610c7f565b61167383612f14565b6001600160a01b0384166000818152600a602090815260409182902060018101548351600160801b9091046001600160681b0316815291820187905292917f113914a326da83d9b14b874c5cc74c6602b1ef1dc38916f0a4b3f618952f77ab910160405180910390a260010180546001600160681b03909416600160801b02600160801b600160e81b031990941693909317909255505050565b6117156123b7565b610ec5612f5e565b6000610d0161172b83612f9b565b61173484612fed565b6001600160a01b0385166000908152600a6020526040902054600160781b90046001600160801b0316611766866127c0565b61306b565b604354610100900460ff161580801561178b5750604354600160ff909116105b806117a55750303b1580156117a5575060435460ff166001145b6118085760405162461bcd60e51b815260206004820152602e60248201527f496e697469616c697a61626c653a20636f6e747261637420697320616c72656160448201526d191e481a5b9a5d1a585b1a5e995960921b6064820152608401610c7f565b6043805460ff19166001179055801561182b576043805461ff0019166101001790555b6118336130ab565b61183b6130da565b60008060008060008060008880602001905181019061185a91906140ab565b600580546001600160a01b038089166001600160a01b0319928316179092556007805483891690831617905560008054838b16908316179055600680548388169216919091179055600480546002805460ff19908116600190811790925593871661010002939093166001600160a81b0319909116179091179055959c50939a5091985096509450925090506118ef826122ed565b6118f8816114f0565b61190187610bdc565b61190a866115a1565b61191387612168565b505050505050508015611425576043805461ff0019169055604051600181527f7f26b83ff96e1f2b6a682f133852f6798a09c465da95921460cefb38474024989060200160405180910390a15050565b6001600160a01b0380821660009081526008602052604081205490918391166119aa57604051630188053b60e41b81526001600160a01b0382166004820152602401610c7f565b50506001600160a01b03166000908152600a6020526040902054600160781b90046001600160801b031690565b6119df612411565b6001600160a01b03808316600090815260086020526040902054839116611a2457604051630188053b60e41b81526001600160a01b0382166004820152602401610c7f565b8180611a46576040516302ee6a2560e21b815260048101829052602401610c7f565b6001600160a01b038416600090815260096020526040902054849060ff1615611a8d57604051631398937760e11b81526001600160a01b0382166004820152602401610c7f565b611a9561246b565b611a9e84612f14565b611ab085611aab86613109565b613176565b6001600160a01b0385166000818152600a602090815260409182902054825188815261ffff9091169181019190915233917f8dda9b4ee6f22899748425b372667196fbbe2eb03059e0ff8643fcb7765549ef9101611410565b6001600160a01b03808316600090815260086020526040812054909182918291869116611b5457604051630188053b60e41b81526001600160a01b0382166004820152602401610c7f565b846001600160a01b038116611b8757604051633202e20d60e21b81526001600160a01b0382166004820152602401610c7f565b6001600160a01b038681166000908152600e60209081526040808320938b168352928152908290208251608081018452815461ffff81168083526201000082046001600160681b0390811695840195909552600160781b9091046001600160801b031694820194909452600191820154909216606083015290911015611c2057611c1188886121de565b60008095509550955050611c85565b6001600160a01b0388166000908152600a60205260408120548251611c619161ffff1690611c4f908c90612860565b611c588c6127c0565b859291906128ca565b9050611c6d89896121de565b81611c7c836113628d8d6121de565b96509650965050505b50509250925092565b611c96612411565b6001600160a01b03808316600090815260086020526040902054839116611cdb57604051630188053b60e41b81526001600160a01b0382166004820152602401610c7f565b8180611cfd576040516302ee6a2560e21b815260048101829052602401610c7f565b6001600160a01b038416600090815260096020526040902054849060ff1615611d4457604051631398937760e11b81526001600160a01b0382166004820152602401610c7f565b611d4c61246b565b611d5685856132fa565b6040518481526001600160a01b0386169033907f0d9825b9d0727eac03dd1f1d6f3f63f66f3f7fc2f580ddbfdc1f735b37ed20df90602001611410565b611d9b6123b7565b816001600160a01b038116611dce57604051633202e20d60e21b81526001600160a01b0382166004820152602401610c7f565b6001600160a01b038316600081815260096020908152604091829020805460ff191686151590811790915591519182527f633e1d52330dad07f84c6baea85e346c63aef6d6f8c8fac74eb2933474070913910160405180910390a2505050565b611e366123b7565b6001600160a01b03811615611eeb576040516301ffc9a760e01b815263736bd41d60e11b60048201526001600160a01b038216906301ffc9a79060240160206040518083038186803b158015611e8b57600080fd5b505afa158015611e9f573d6000803e3d6000fd5b505050506040513d601f19601f82011682018060405250810190611ec3919061424c565b611eeb576040516358b7533f60e11b81526001600160a01b0382166004820152602401610c7f565b60db80546001600160a01b0319166001600160a01b0383169081179091556040519081527f1151116914515bc0891ff9047a6cb32cf902546f83066499bcf8ba33d2353fa29060200160405180910390a150565b81336001600160a01b03821614611f7a5760405163c55ddc9760e01b81523360048201526001600160a01b0382166024820152604401610c7f565b611f82612411565b846001600160a01b038116611fb557604051633202e20d60e21b81526001600160a01b0382166004820152602401610c7f565b846001600160a01b038116611fe857604051633202e20d60e21b81526001600160a01b0382166004820152602401610c7f565b6001600160a01b03871673eeeeeeeeeeeeeeeeeeeeeeeeeeeeeeeeeeeeeeee1415612087576000866001600160a01b03168560405160006040518083038185875af1925050503d806000811461205a576040519150601f19603f3d011682016040523d82523d6000602084013e61205f565b606091505b505090508061208157604051639d4a106d60e01b815260040160405180910390fd5b5061209b565b61209b6001600160a01b038816878661352e565b866001600160a01b0316866001600160a01b03167fbf6f25202b58108bd03c94f2f54b0367607a091cf7f728d71268f61542534a8e866040516120e091815260200190565b60405180910390a350506120f4600160a955565b5050505050565b6000610cfe838360015461278a565b6121126123b7565b806001600160a01b03811661214557604051633202e20d60e21b81526001600160a01b0382166004820152602401610c7f565b50600080546001600160a01b0319166001600160a01b0392909216919091179055565b6121706123b7565b6001600160a01b0381166121d55760405162461bcd60e51b815260206004820152602660248201527f4f776e61626c653a206e6577206f776e657220697320746865207a65726f206160448201526564647265737360d01b6064820152608401610c7f565b610cec81612ec2565b6001600160a01b03808316600090815260086020526040812054909184911661222557604051630188053b60e41b81526001600160a01b0382166004820152602401610c7f565b826001600160a01b03811661225857604051633202e20d60e21b81526001600160a01b0382166004820152602401610c7f565b6001600160a01b03858116600090815260086020526040908190205490516370a0823160e01b815286831660048201529116906370a082319060240160206040518083038186803b1580156122ac57600080fd5b505afa1580156122c0573d6000803e3d6000fd5b505050506040513d601f19601f820116820180604052508101906122e4919061437e565b95945050505050565b6122f56123b7565b8080612317576040516302ee6a2560e21b815260048101829052602401610c7f565b61232a670de0b6b3a76400006064614682565b82111561234a576040516358d620b360e01b815260040160405180910390fd5b60006123716802d3a0a42d42fd900061236b85670de0b6b3a7640000613563565b9061356f565b60035460408051918252602082018690529192507f4e874b007ab14f7e263baefd44951834c8266f4f224d1092e49e9c254354cc54910160405180910390a16003555050565b6076546001600160a01b03163314610ec55760405162461bcd60e51b815260206004820181905260248201527f4f776e61626c653a2063616c6c6572206973206e6f7420746865206f776e65726044820152606401610c7f565b600260a95414156124645760405162461bcd60e51b815260206004820152601f60248201527f5265656e7472616e637947756172643a207265656e7472616e742063616c6c006044820152606401610c7f565b600260a955565b60a85460ff1615610ec55760405162461bcd60e51b815260206004820152601060248201526f14185d5cd8589b194e881c185d5cd95960821b6044820152606401610c7f565b336000908152600d602090815260408083206001600160a01b03851684528252808320600a90925282208154919290916001600160801b03620100008204169161ffff90911690612501866127c0565b6001600160a01b0387166000908152600a602052604090205490915061ffff168361253f5760405163fd9149a960e01b815260040160405180910390fd5b8061ffff168361ffff16141561257657604051632963a7c560e11b815261ffff808516600483015282166024820152604401610c7f565b855462010000600160901b0319168655600185015461259e906001600160801b03168561357b565b6001860180546001600160801b0319166001600160801b03929092169190911790556001600160a01b0387166000908152600f6020908152604080832061ffff871684529091528120546125f49086908561293b565b336000908152600e602090815260408083206001600160a01b038d168452909152902090915061262382612f14565b60018101546001600160681b031682111561264f576001810180546001600160681b031916905561268b565b60018101546126689083906001600160681b03166146a1565b6001820180546001600160681b0319166001600160681b03929092169190911790555b6001600160a01b0389166000908152600b60205260409020546126ae908361357b565b6001600160a01b038a81166000908152600b602090815260408083209490945560089052829020549151632770a7eb60e21b815233600482015260248101899052911690639dc29fac90604401600060405180830381600087803b15801561271557600080fd5b505af1158015612729573d6000803e3d6000fd5b50505050612738893384613587565b6040518281526001600160a01b038a169033907f5a8ef618c615c5121afbe93f4653c3515e11603aa4f15240e5aaa013f107851c9060200160405180910390a3505050505050505050565b600160a955565b60006127b861279a846064614682565b61236b670de0b6b3a764000081886127b2888a613563565b90613563565b949350505050565b60006001600160a01b03821673eeeeeeeeeeeeeeeeeeeeeeeeeeeeeeeeeeeeeeee14156127ef57506012919050565b816001600160a01b031663313ce5676040518163ffffffff1660e01b815260040160206040518083038186803b15801561282857600080fd5b505afa15801561283c573d6000803e3d6000fd5b505050506040513d601f19601f82011682018060405250810190610d01919061437e565b6001600160a01b0382166000908152600f6020908152604080832061ffff8516845290915281205461289b5750670de0b6b3a7640000610d01565b506001600160a01b0382166000908152600f6020908152604080832061ffff8516845290915290205492915050565b835160009061ffff16158015906128e55750845161ffff1684115b1561292757600061290486602001516001600160681b031685856136c4565b604087015190915061291f906001600160801b03168261299d565b9150506127b8565b50505050604001516001600160801b031690565b6000600183116129855760405162461bcd60e51b8152602060048201526015602482015274496e76616c6964206173736574506572536861726560581b6044820152606401610c7f565b6127b861299383600a6145da565b61236b8686613563565b6000610cfe828461455d565b6129b1613727565b60a8805460ff191690557f5db9ee0a495bf2e6ff9c91a7834c1ba4fdd244a5e8aa4e537bd38aeae4b073aa335b6040516001600160a01b03909116815260200160405180910390a1565b6000808260601b9050604051733d602d80600a3d3981f3363d3d373d3d3d363d7360601b81528160148201526e5af43d82803e903d91602b57fd5bf360881b60288201526037816000f0949350505050565b6001600160a01b0382166000908152600a602052604081208054909161ffff90911690612a79856127c0565b336000908152600e602090815260408083206001600160a01b038a168085529083528184208251608081018452815461ffff80821683526201000082046001600160681b0390811684890152600160781b9092046001600160801b031683870152600190930154166060820152918552600f84528285208251821686529093529083205493945092612b1191849190871690866128ca565b8251909150869061ffff86811691161415612b45576020830151600090612b41906001600160681b03168961299d565b9150505b6060830151600090612b60906001600160681b03168961299d565b905060405180608001604052808761ffff168152602001836001600160681b03168152602001846001600160801b03168152602001826001600160681b0316815250600e6000336001600160a01b03166001600160a01b0316815260200190815260200160002060008b6001600160a01b03166001600160a01b0316815260200190815260200160002060008201518160000160006101000a81548161ffff021916908361ffff16021790555060208201518160000160026101000a8154816001600160681b0302191690836001600160681b03160217905550604082015181600001600f6101000a8154816001600160801b0302191690836001600160801b0316021790555060608201518160010160006101000a8154816001600160681b0302191690836001600160681b031602179055509050506000612ccc8989600001600f9054906101000a90046001600160801b03166001600160801b031661299d90919063ffffffff16565b9050612cd781613770565b87546001600160801b03909116600160781b02600160781b600160f81b0319909116179096555050505050505050565b6040516001600160a01b0380851660248301528316604482015260648101829052612d729085906323b872dd60e01b906084015b60408051601f198184030181529190526020810180516001600160e01b03166001600160e01b0319909316929092179091526137ba565b50505050565b6001600160a01b03808216600090815260086020526040902054829116612dbd57604051630188053b60e41b81526001600160a01b0382166004820152602401610c7f565b6001600160a01b0382166000908152600c6020908152604080832054600b9092528220546001600160801b0390911691908190612dfc9086908561388c565b6001600160a01b0387166000908152600b60209081526040808320849055600a909152812060018101549395509193509091612e41906001600160801b03168661299d565b9050612e4c81613770565b6001820180546001600160801b0383166001600160801b0319918216179091556001600160a01b0388166000908152600c6020526040902080549091169055612e9484612f14565b5080546001600160681b03909316620100000262010000600160781b03199093169290921790915550505050565b607680546001600160a01b038381166001600160a01b0319831681179093556040519116919082907f8be0079c531659141344cd1fd0a4f28419497f9722a3daafe3b4186f6b6457e090600090a35050565b6001600160681b03811115610cec5760405162461bcd60e51b815260206004820152601060248201526f13dd995c999b1bddc81d5a5b9d0c4c0d60821b6044820152606401610c7f565b612f6661246b565b60a8805460ff191660011790557f62e78cea01bee320cd4e420270b5ea74000d11b0c9f74754ebdbfc544b05a2586129de3390565b6001600160a01b0380821660009081526008602090815260408083205481516318160ddd60e01b81529151939416926318160ddd92600480840193919291829003018186803b15801561282857600080fd5b60006001600160a01b03821673eeeeeeeeeeeeeeeeeeeeeeeeeeeeeeeeeeeeeeee14156130265750506005546001600160a01b03163190565b6005546040516370a0823160e01b81526001600160a01b039182166004820152908316906370a082319060240160206040518083038186803b15801561282857600080fd5b60008061307983600a6145da565b90506000861161308957806130a1565b6130a18661236b61309a888861357b565b8490613563565b9695505050505050565b604354610100900460ff166130d25760405162461bcd60e51b8152600401610c7f906144ec565b610ec5613aa9565b604354610100900460ff166131015760405162461bcd60e51b8152600401610c7f906144ec565b610ec5613ad9565b60006001600160681b038211156131725760405162461bcd60e51b815260206004820152602760248201527f53616665436173743a2076616c756520646f65736e27742066697420696e20316044820152663034206269747360c81b6064820152608401610c7f565b5090565b336000908152600e602090815260408083206001600160a01b03861684528252808320600a9092529091208054825461ffff91821691168082146131db57604051632963a7c560e11b815261ffff808316600483015283166024820152604401610c7f565b83546001600160681b03620100009091048116908616811015613223576040516319b9b33960e31b8152600481018290526001600160681b0387166024820152604401610c7f565b613235866001600160681b0316612f14565b613248816001600160681b03881661357b565b855462010000600160781b031916620100006001600160681b0392831602178655600186015461327a918891166146a1565b6001860180546001600160681b0319166001600160681b0392831617905584546132b791600160781b9091046001600160801b031690881661357b565b84546001600160801b0391909116600160781b02600160781b600160f81b03199091161784556132f187336001600160681b038916613587565b50505050505050565b6001600160a01b0382166000818152600a6020908152604080832054338452600e835281842085855283528184208251608081018452815461ffff80821683526201000082046001600160681b0390811684890152600160781b9092046001600160801b031683870152600190930154166060820152958552600f845282852086518216865290935290832054911692919061339b908490611c58886127c0565b9050808411156133c85760405163306f6e1960e11b81526004810182905260248101859052604401610c7f565b600082602001516001600160681b031611806133f15750600082604001516001600160801b0316115b15613403576134038583868487613b00565b336000908152600d602090815260408083206001600160a01b038916845290915281208054909161ffff86811690831614916201000090046001600160801b031690821561345c57613455828961299d565b9050613490565b811561347e5760405163af12574160e01b815260048101839052602401610c7f565b50825461ffff191661ffff8716178355865b61349981613770565b83546001600160801b03808316620100000262010000600160901b03199092169190911785556001600160a01b038a166000908152600c60205260409020546134ec916134e791168a61299d565b613bba565b6001600160a01b03999099166000908152600c6020526040902080546001600160801b0319166001600160801b03909a16999099179098555050505050505050565b6040516001600160a01b03831660248201526044810182905261355e90849063a9059cbb60e01b90606401612d3b565b505050565b6000610cfe8284614682565b6000610cfe8284614575565b6000610cfe82846146e4565b6006546040516001600160a01b038086166024830152808516604483015290911660648201526084810182905260009060a40160408051601f198184030181529181526020820180516001600160e01b031663e3c6a66560e01b17905260055460048054925163468721a760e01b81529394506001600160a01b039182169363468721a793613626936101009091041691600091879160019101614401565b602060405180830381600087803b15801561364057600080fd5b505af1158015613654573d6000803e3d6000fd5b505050506040513d601f19601f82011682018060405250810190613678919061424c565b612d725760405162461bcd60e51b815260206004820152601860248201527f6661696c656420746f207472616e736665722066756e647300000000000000006044820152606401610c7f565b60006001831161370e5760405162461bcd60e51b8152602060048201526015602482015274496e76616c6964206173736574506572536861726560581b6044820152606401610c7f565b6127b88361236b61372085600a6145da565b8790613563565b60a85460ff16610ec55760405162461bcd60e51b815260206004820152601460248201527314185d5cd8589b194e881b9bdd081c185d5cd95960621b6044820152606401610c7f565b6001600160801b03811115610cec5760405162461bcd60e51b815260206004820152601060248201526f09eeccae4ccd8deee40ead2dce86264760831b6044820152606401610c7f565b600061380f826040518060400160405280602081526020017f5361666545524332303a206c6f772d6c6576656c2063616c6c206661696c6564815250856001600160a01b0316613c239092919063ffffffff16565b80519091501561355e578080602001905181019061382d919061424c565b61355e5760405162461bcd60e51b815260206004820152602a60248201527f5361666545524332303a204552433230206f7065726174696f6e20646964206e6044820152691bdd081cdd58d8d9595960b21b6064820152608401610c7f565b6001600160a01b0383166000908152600a6020526040808220815160a0810190925282918291829182906138f6908a90806138c6836127c0565b81526020016138d48d612fed565b81526020016138e28d612f9b565b81526020018b81526020018a815250613c32565b86546001600160a01b038f166000908152600f6020908152604080832061ffff9094168084529390915290208490558754600160781b600160f81b0319168855949a509298509650909450915061394e816001614537565b835461ffff191661ffff9190911690811784556001600160a01b038b81166000818152600f602090815260408083209583529481528482206001905591815260089091528290205491516340c10f1960e01b8152306004820152602481018890529116906340c10f1990604401600060405180830381600087803b1580156139d557600080fd5b505af11580156139e9573d6000803e3d6000fd5b505050506000841115613a5257600054613a0e908b906001600160a01b031686613587565b896001600160a01b03167f2057011bdf5b1ba089ee23fec4fc3df7cb7f231730f4452940200510e1734f2d85604051613a4991815260200190565b60405180910390a25b604080518381526020810189905261ffff8316916001600160a01b038d16917fc8d6fd2b6502d24b631c5d0bb16ece6e2864469d00c75491e60fc0aba60ca65c910160405180910390a35050505050935093915050565b604354610100900460ff16613ad05760405162461bcd60e51b8152600401610c7f906144ec565b610ec533612ec2565b604354610100900460ff166127835760405162461bcd60e51b8152600401610c7f906144ec565b835161ffff80831691161015613b4457336000908152600e602090815260408083206001600160a01b03891684529091529020805462010000600160781b03191690555b613b4d83613770565b613b57828461357b565b336000818152600e602090815260408083206001600160a01b038b8116855290835281842080546001600160801b0397909716600160781b02600160781b600160f81b03199097169690961790955560089091529020546120f49216908561352e565b60006001600160801b038211156131725760405162461bcd60e51b815260206004820152602760248201527f53616665436173743a2076616c756520646f65736e27742066697420696e20316044820152663238206269747360c81b6064820152608401610c7f565b60606127b88484600085613d6d565b6001600160a01b0382166000908152600a60209081526040808320815160a081018352815461ffff811682526001600160681b0362010000820481168387018190526001600160801b03600160781b90930483169584018690526001909401549182166060808501829052600160801b909304909116608084015294870151908701518695869586958695949391929091613cdb908d90613cd490879061357b565b8585613e48565b9550613ce7848761357b565b9350613d1c613d03828d6040015161357b90919063ffffffff16565b60608d0151613d1390879061357b565b8d51869061306b565b9750613d3f613d348c608001518a8e6000015161293b565b60608d01519061299d565b9850613d5083898d600001516136c4565b9650613d5c848a61357b565b995050505050509295509295909350565b606082471015613dce5760405162461bcd60e51b815260206004820152602660248201527f416464726573733a20696e73756666696369656e742062616c616e636520666f6044820152651c8818d85b1b60d21b6064820152608401610c7f565b600080866001600160a01b03168587604051613dea91906143e5565b60006040518083038185875af1925050503d8060008114613e27576040519150601f19603f3d011682016040523d82523d6000602084013e613e2c565b606091505b5091509150613e3d87838387613efa565b979650505050505050565b600080838511613e59576000613e63565b613e63858561357b565b90506000806000613e73896127c0565b613e7e90600a6145da565b905085841115613ee35760025460ff1615613eba57600060015411613ea4576000613eb7565b613eb7613eb1858861357b565b826120fb565b92505b60045460ff1615613ee357600060035411613ed6576000613ee0565b613ee08482610cef565b91505b613eed838361299d565b9998505050505050505050565b60608315613f66578251613f5f576001600160a01b0385163b613f5f5760405162461bcd60e51b815260206004820152601d60248201527f416464726573733a2063616c6c20746f206e6f6e2d636f6e74726163740000006044820152606401610c7f565b50816127b8565b6127b88383815115613f7b5781518083602001fd5b8060405162461bcd60e51b8152600401610c7f9190614457565b828054828255906000526020600020908101928215613fd55760005260206000209182015b82811115613fd5578254825591600101919060010190613fba565b506131729291505b808211156131725760008155600101613fdd565b600067ffffffffffffffff8084111561400c5761400c614753565b604051601f8501601f19908116603f0116810190828211818310171561403457614034614753565b8160405280935085815286868601111561404d57600080fd5b858560208301376000602087830101525050509392505050565b600082601f83011261407857600080fd5b610cfe83833560208501613ff1565b60006020828403121561409957600080fd5b81356140a481614769565b9392505050565b600080600080600080600060e0888a0312156140c657600080fd5b87516140d181614769565b60208901519097506140e281614769565b60408901519096506140f381614769565b606089015190955061410481614769565b608089015190945061411581614769565b8093505060a0880151915060c0880151905092959891949750929550565b6000806040838503121561414657600080fd5b823561415181614769565b9150602083013561416181614769565b809150509250929050565b6000806000806080858703121561418257600080fd5b843561418d81614769565b9350602085013561419d81614769565b925060408501356141ad81614769565b9396929550929360600135925050565b600080604083850312156141d057600080fd5b82356141db81614769565b915060208301356141618161477e565b600080604083850312156141fe57600080fd5b823561420981614769565b9150602083013561ffff8116811461416157600080fd5b6000806040838503121561423357600080fd5b823561423e81614769565b946020939093013593505050565b60006020828403121561425e57600080fd5b81516140a48161477e565b6000806040838503121561427c57600080fd5b82356141db8161477e565b60006020828403121561429957600080fd5b813567ffffffffffffffff8111156142b057600080fd5b8201601f810184136142c157600080fd5b6127b884823560208401613ff1565b600080600080608085870312156142e657600080fd5b843567ffffffffffffffff808211156142fe57600080fd5b61430a88838901614067565b9550602087013591508082111561432057600080fd5b5061432d87828801614067565b935050604085013561433e81614769565b915060608501356001600160681b038116811461435a57600080fd5b939692955090935050565b60006020828403121561437757600080fd5b5035919050565b60006020828403121561439057600080fd5b5051919050565b600080604083850312156143aa57600080fd5b50508035926020909101359150565b600081518084526143d18160208601602086016146fb565b601f01601f19169290920160200192915050565b600082516143f78184602087016146fb565b9190910192915050565b60018060a01b038516815283602082015260806040820152600061442860808301856143b9565b90506002831061444857634e487b7160e01b600052602160045260246000fd5b82606083015295945050505050565b602081526000610cfe60208301846143b9565b60608152600061447d60608301866143b9565b828103602084015261448f81866143b9565b91505060ff83166040830152949350505050565b6080815260006144b660808301876143b9565b82810360208401526144c881876143b9565b91505060ff841660408301526001600160681b038316606083015295945050505050565b6020808252602b908201527f496e697469616c697a61626c653a20636f6e7472616374206973206e6f74206960408201526a6e697469616c697a696e6760a81b606082015260800190565b600061ffff80831681851680830382111561455457614554614727565b01949350505050565b6000821982111561457057614570614727565b500190565b60008261459257634e487b7160e01b600052601260045260246000fd5b500490565b600181815b808511156145d25781600019048211156145b8576145b8614727565b808516156145c557918102915b93841c939080029061459c565b509250929050565b6000610cfe83836000826145f057506001610d01565b816145fd57506000610d01565b8160018114614613576002811461461d57614639565b6001915050610d01565b60ff84111561462e5761462e614727565b50506001821b610d01565b5060208310610133831016604e8410600b841016171561465c575081810a610d01565b6146668383614597565b806000190482111561467a5761467a614727565b029392505050565b600081600019048311821515161561469c5761469c614727565b500290565b60006001600160681b03838116908316818110156146c1576146c1614727565b039392505050565b600061ffff838116908316818110156146c1576146c1614727565b6000828210156146f6576146f6614727565b500390565b60005b838110156147165781810151838201526020016146fe565b83811115612d725750506000910152565b634e487b7160e01b600052601160045260246000fd5b634e487b7160e01b600052603260045260246000fd5b634e487b7160e01b600052604160045260246000fd5b6001600160a01b0381168114610cec57600080fd5b8015158114610cec57600080fdfea2646970667358221220bc1d2681e4a47d7cad0714e2dab067c1ddeeee4a0ee98cb7caf4260389cc0dcb64736f6c63430008060033",
  "devdoc": {
    "kind": "dev",
    "methods": {
      "changeAssetStatus(address,bool)": {
        "params": {
          "status": "enable/disable status of asset",
          "token": "asset address"
        }
      },
      "createToken(string,string,address,uint104)": {
        "params": {
          "name": "name of crtoken  .",
          "symbol": "symbol of crtoken ."
        }
      },
      "deposit(address,uint256)": {
        "params": {
          "amount": "is the amount of `asset` to deposit.",
          "token": "depositing token address."
        }
      },
      "initiateWithdrawal(address,uint256)": {
        "params": {
          "numShares": "is the number of shares to withdraw",
          "token": "withdrawal `asset` address."
        }
      },
      "instantWithdrawal(address,uint256)": {
        "params": {
          "amount": "is the amount to withdraw.",
          "token": "withdrawal `asset` address."
        }
      },
      "owner()": {
        "details": "Returns the address of the current owner."
      },
      "pause()": {
        "details": "Triggers stopped state. Requirements: - The contract must not be paused."
      },
      "paused()": {
        "details": "Returns true if the contract is paused, and false otherwise."
      },
      "renounceOwnership()": {
        "details": "Leaves the contract without owner. It will not be possible to call `onlyOwner` functions anymore. Can only be called by the current owner. NOTE: Renouncing ownership will leave the contract without an owner, thereby removing any functionality that is only available to the owner."
      },
      "setAvatar(address)": {
        "details": "Sets the avatar to a new avatar (`newAvatar`)."
      },
      "setCap(address,uint256)": {
        "params": {
          "newCap": "is the new cap for deposits.",
          "token": "is the address for which we have to set new cap."
        }
      },
      "setFeeRecipient(address)": {
        "params": {
          "newFeeRecipient": "is the address of the new feeRecipient_."
        }
      },
      "setFeeStatus(bool,bool)": {
        "params": {
          "_managementFee": "is the management fee status",
          "_performanceFee": "is the performance fee status"
        }
      },
      "setGuard(address)": {
        "details": "Set a guard that checks transactions before execution.",
        "params": {
          "_guard": "The address of the guard to be used or the 0 address to disable the guard."
        }
      },
      "setManagementFee(uint256)": {
        "params": {
          "newManagementFee": "is the management fee (18 decimals). ex: 2 * 10 ** 18 = 2%"
        }
      },
      "setPerformanceFee(uint256)": {
        "params": {
          "newPerformanceFee": "is the performance fee (18 decimals). ex: 20 * 10 ** 18 = 20%"
        }
      },
      "setTarget(address)": {
        "details": "Sets the target to a new target (`newTarget`)."
      },
      "setUp(bytes)": {
        "details": "Initialize function, will be triggered when a new Cruize contract deployed.",
        "params": {
          "initializeParams": "Parameters of initialization encoded."
        }
      },
      "shareBalances(address,address)": {
        "params": {
          "account": "is the account to lookup share balance for.",
          "token": "is the `asset` address for which shares are calculating."
        },
        "returns": {
          "heldByAccount": "is the shares held by account.",
          "heldByVault": "is the shares held on the vault (unredeemedShares)."
        }
      },
      "standardWithdrawal(address)": {
        "params": {
          "token": "depositing token address."
        }
      },
      "transferFromSafe(address,address,address,uint256)": {
        "params": {
          "_amount": "the transfer amount",
          "_paymentToken": "withdrawal token address.",
          "_receiver": "is the receiving address."
        }
      },
      "transferOwnership(address)": {
        "details": "Transfers ownership of the contract to a new account (`newOwner`). Can only be called by the current owner."
      },
      "unpause()": {
        "details": "Returns to normal state. Requirements: - The contract must be paused."
      }
    },
    "version": 1
  },
  "userdoc": {
    "errors": {
      "NotIERC165Compliant(address)": [
        {
          "notice": "`guard_` does not implement IERC165."
        }
      ]
    },
    "kind": "user",
    "methods": {
      "ETH()": {
        "notice": "ETH 0xEeeeeEeeeEeEeeEeEeEeeEEEeeeeEeeeeeeeEEeE"
      },
      "balanceOf(address,address)": {
        "notice": "Returns the cr`token` balance."
      },
      "changeAssetStatus(address,bool)": {
        "notice": "Enable or Disable the asset status, so cruize can stop/resume token operations"
      },
      "crContract()": {
        "notice": "crContract address that will be used to create new crcontract clone"
      },
      "createToken(string,string,address,uint104)": {
        "notice": "createToken will Clone CRTokenUpgradeable (ERC20 token)."
      },
      "cruizeProxy()": {
        "notice": "gnosis safe address where all the fund will be locked"
      },
      "cruizeTokens(address)": {
        "notice": "crtokens mint for user's share's"
      },
      "currentQueuedWithdrawalShares(address)": {
        "notice": "Queued withdraw shares for the current round"
      },
      "deposit(address,uint256)": {
        "notice": "Deposits the `asset` from msg.sender"
      },
      "depositReceipts(address,address)": {
        "notice": "Stores the user's pending deposit for the round"
      },
      "feeRecipient()": {
        "notice": "Fee recipient for the management fees"
      },
      "getFeeRecipient()": {
        "notice": "Returns the vault feeRecipient."
      },
      "getManagementFee(uint256,uint256)": {
        "notice": "Returns the vault managementFee."
      },
      "getPerformanceFee(uint256,uint256)": {
        "notice": "Returns the vault performanceFee."
      },
      "gnosisSafe()": {
        "notice": "gnosis safe address where all the fund will be locked"
      },
      "initiateWithdrawal(address,uint256)": {
        "notice": "Initiates a withdrawal that can be processed once the round completes"
      },
      "instantWithdrawal(address,uint256)": {
        "notice": "Withdraws the assets on the vault using the outstanding `DepositReceipt.amount`"
      },
      "isDisable(address)": {
        "notice": "Enable/Disable tokens"
      },
      "lastQueuedWithdrawAmounts(address)": {
        "notice": "Queued withdrawal amount in the last round"
      },
      "managementFee()": {
        "notice": "Management fee charged on entire AUM in rollToNextOption. Only charged when there is no loss."
      },
      "module()": {
        "notice": "role in charge of weekly vault operations such as transfer fund and burn tokens"
      },
      "performanceFee()": {
        "notice": "Performance fee charged on premiums earned in rollToNextOption. Only charged when there is no loss."
      },
      "roundPricePerShare(address,uint16)": {
        "notice": "On every round's close, the pricePerShare value of an crToken token is stored This is used to determine the number of shares to be returned to a user with their DepositReceipt.depositAmount"
      },
      "setAvatar(address)": {
        "notice": "Can only be called by the current owner."
      },
      "setCap(address,uint256)": {
        "notice": "Sets a new cap for deposits."
      },
      "setFeeRecipient(address)": {
        "notice": "Sets the new newFeeRecipient_."
      },
      "setFeeStatus(bool,bool)": {
        "notice": "Sets the management/performance fee status enable/disable."
      },
      "setManagementFee(uint256)": {
        "notice": "Sets the management fee for the rounds."
      },
      "setPerformanceFee(uint256)": {
        "notice": "Sets the performance fee for the vault"
      },
      "setTarget(address)": {
        "notice": "Can only be called by the current owner."
      },
      "setUp(bytes)": {
        "notice": "Initializes the gnosis Module contract with storage variables."
      },
      "shareBalances(address,address)": {
        "notice": "Getter for returning the account's share balance split between account and vault holdings"
      },
      "standardWithdrawal(address)": {
        "notice": "Completes a scheduled withdrawal from a past round. Uses finalized pps for the round"
      },
      "totalTokenPending(address)": {
        "notice": "Returns the vault total pending."
      },
      "transferFromSafe(address,address,address,uint256)": {
        "notice": "Main function to make delegatecall on Gnosis Safe to transfer either an ETH transfer or ERC20 transfer."
      },
      "vaults(address)": {
        "notice": "Stores vaults state for every round"
      },
      "withdrawals(address,address)": {
        "notice": "Stores pending user withdrawals"
      }
    },
    "version": 1
  },
  "storageLayout": {
    "storage": [
      {
        "astId": 10743,
        "contract": "contracts/Cruize.sol:Cruize",
        "label": "feeRecipient",
        "offset": 0,
        "slot": "0",
        "type": "t_address"
      },
      {
        "astId": 10746,
        "contract": "contracts/Cruize.sol:Cruize",
        "label": "performanceFee",
        "offset": 0,
        "slot": "1",
        "type": "t_uint256"
      },
      {
        "astId": 10748,
        "contract": "contracts/Cruize.sol:Cruize",
        "label": "isPerformanceFeeEnabled",
        "offset": 0,
        "slot": "2",
        "type": "t_bool"
      },
      {
        "astId": 10751,
        "contract": "contracts/Cruize.sol:Cruize",
        "label": "managementFee",
        "offset": 0,
        "slot": "3",
        "type": "t_uint256"
      },
      {
        "astId": 10753,
        "contract": "contracts/Cruize.sol:Cruize",
        "label": "isManagementFeeEnable",
        "offset": 0,
        "slot": "4",
        "type": "t_bool"
      },
      {
        "astId": 10756,
        "contract": "contracts/Cruize.sol:Cruize",
        "label": "module",
        "offset": 1,
        "slot": "4",
        "type": "t_address"
      },
      {
        "astId": 10759,
        "contract": "contracts/Cruize.sol:Cruize",
        "label": "gnosisSafe",
        "offset": 0,
        "slot": "5",
        "type": "t_address"
      },
      {
        "astId": 10762,
        "contract": "contracts/Cruize.sol:Cruize",
        "label": "cruizeProxy",
        "offset": 0,
        "slot": "6",
        "type": "t_address"
      },
      {
        "astId": 10765,
        "contract": "contracts/Cruize.sol:Cruize",
        "label": "crContract",
        "offset": 0,
        "slot": "7",
        "type": "t_address"
      },
      {
        "astId": 10782,
        "contract": "contracts/Cruize.sol:Cruize",
        "label": "cruizeTokens",
        "offset": 0,
        "slot": "8",
        "type": "t_mapping(t_address,t_address)"
      },
      {
        "astId": 10787,
        "contract": "contracts/Cruize.sol:Cruize",
        "label": "isDisable",
        "offset": 0,
        "slot": "9",
        "type": "t_mapping(t_address,t_bool)"
      },
      {
        "astId": 10793,
        "contract": "contracts/Cruize.sol:Cruize",
        "label": "vaults",
        "offset": 0,
        "slot": "10",
        "type": "t_mapping(t_address,t_struct(VaultState)8469_storage)"
      },
      {
        "astId": 10798,
        "contract": "contracts/Cruize.sol:Cruize",
        "label": "lastQueuedWithdrawAmounts",
        "offset": 0,
        "slot": "11",
        "type": "t_mapping(t_address,t_uint256)"
      },
      {
        "astId": 10803,
        "contract": "contracts/Cruize.sol:Cruize",
        "label": "currentQueuedWithdrawalShares",
        "offset": 0,
        "slot": "12",
        "type": "t_mapping(t_address,t_uint128)"
      },
      {
        "astId": 10811,
        "contract": "contracts/Cruize.sol:Cruize",
        "label": "withdrawals",
        "offset": 0,
        "slot": "13",
        "type": "t_mapping(t_address,t_mapping(t_address,t_struct(Withdrawal)8483_storage))"
      },
      {
        "astId": 10819,
        "contract": "contracts/Cruize.sol:Cruize",
        "label": "depositReceipts",
        "offset": 0,
        "slot": "14",
        "type": "t_mapping(t_address,t_mapping(t_address,t_struct(DepositReceipt)8478_storage))"
      },
      {
        "astId": 10826,
        "contract": "contracts/Cruize.sol:Cruize",
        "label": "roundPricePerShare",
        "offset": 0,
        "slot": "15",
        "type": "t_mapping(t_address,t_mapping(t_uint16,t_uint256))"
      },
      {
        "astId": 10829,
        "contract": "contracts/Cruize.sol:Cruize",
        "label": "tokens",
        "offset": 0,
        "slot": "16",
        "type": "t_array(t_address)dyn_storage"
      },
      {
        "astId": 10834,
        "contract": "contracts/Cruize.sol:Cruize",
        "label": "__cruize_gap",
        "offset": 0,
        "slot": "17",
        "type": "t_array(t_uint256)50_storage"
      },
      {
        "astId": 8723,
        "contract": "contracts/Cruize.sol:Cruize",
        "label": "_initialized",
        "offset": 0,
        "slot": "67",
        "type": "t_uint8"
      },
      {
        "astId": 8726,
        "contract": "contracts/Cruize.sol:Cruize",
        "label": "_initializing",
        "offset": 1,
        "slot": "67",
        "type": "t_bool"
      },
      {
        "astId": 9210,
        "contract": "contracts/Cruize.sol:Cruize",
        "label": "__context_gap",
        "offset": 0,
        "slot": "68",
        "type": "t_array(t_uint256)50_storage"
      },
      {
        "astId": 8595,
        "contract": "contracts/Cruize.sol:Cruize",
        "label": "_owner",
        "offset": 0,
        "slot": "118",
        "type": "t_address"
      },
      {
        "astId": 8715,
        "contract": "contracts/Cruize.sol:Cruize",
        "label": "__ownable_gap",
        "offset": 0,
        "slot": "119",
        "type": "t_array(t_uint256)49_storage"
      },
      {
        "astId": 9229,
        "contract": "contracts/Cruize.sol:Cruize",
        "label": "_paused",
        "offset": 0,
        "slot": "168",
        "type": "t_bool"
      },
      {
        "astId": 9344,
        "contract": "contracts/Cruize.sol:Cruize",
        "label": "_status",
        "offset": 0,
        "slot": "169",
        "type": "t_uint256"
      },
      {
        "astId": 9402,
        "contract": "contracts/Cruize.sol:Cruize",
        "label": "__reentrancy_gap",
        "offset": 0,
        "slot": "170",
        "type": "t_array(t_uint256)49_storage"
      },
      {
        "astId": 10050,
        "contract": "contracts/Cruize.sol:Cruize",
        "label": "guard",
        "offset": 0,
        "slot": "219",
        "type": "t_address"
      },
      {
        "astId": 9728,
        "contract": "contracts/Cruize.sol:Cruize",
        "label": "avatar",
        "offset": 0,
        "slot": "220",
        "type": "t_address"
      },
      {
        "astId": 9731,
        "contract": "contracts/Cruize.sol:Cruize",
        "label": "target",
        "offset": 0,
        "slot": "221",
        "type": "t_address"
      }
    ],
    "types": {
      "t_address": {
        "encoding": "inplace",
        "label": "address",
        "numberOfBytes": "20"
      },
      "t_array(t_address)dyn_storage": {
        "base": "t_address",
        "encoding": "dynamic_array",
        "label": "address[]",
        "numberOfBytes": "32"
      },
      "t_array(t_uint256)49_storage": {
        "base": "t_uint256",
        "encoding": "inplace",
        "label": "uint256[49]",
        "numberOfBytes": "1568"
      },
      "t_array(t_uint256)50_storage": {
        "base": "t_uint256",
        "encoding": "inplace",
        "label": "uint256[50]",
        "numberOfBytes": "1600"
      },
      "t_bool": {
        "encoding": "inplace",
        "label": "bool",
        "numberOfBytes": "1"
      },
      "t_mapping(t_address,t_address)": {
        "encoding": "mapping",
        "key": "t_address",
        "label": "mapping(address => address)",
        "numberOfBytes": "32",
        "value": "t_address"
      },
      "t_mapping(t_address,t_bool)": {
        "encoding": "mapping",
        "key": "t_address",
        "label": "mapping(address => bool)",
        "numberOfBytes": "32",
        "value": "t_bool"
      },
      "t_mapping(t_address,t_mapping(t_address,t_struct(DepositReceipt)8478_storage))": {
        "encoding": "mapping",
        "key": "t_address",
        "label": "mapping(address => mapping(address => struct Types.DepositReceipt))",
        "numberOfBytes": "32",
        "value": "t_mapping(t_address,t_struct(DepositReceipt)8478_storage)"
      },
      "t_mapping(t_address,t_mapping(t_address,t_struct(Withdrawal)8483_storage))": {
        "encoding": "mapping",
        "key": "t_address",
        "label": "mapping(address => mapping(address => struct Types.Withdrawal))",
        "numberOfBytes": "32",
        "value": "t_mapping(t_address,t_struct(Withdrawal)8483_storage)"
      },
      "t_mapping(t_address,t_mapping(t_uint16,t_uint256))": {
        "encoding": "mapping",
        "key": "t_address",
        "label": "mapping(address => mapping(uint16 => uint256))",
        "numberOfBytes": "32",
        "value": "t_mapping(t_uint16,t_uint256)"
      },
      "t_mapping(t_address,t_struct(DepositReceipt)8478_storage)": {
        "encoding": "mapping",
        "key": "t_address",
        "label": "mapping(address => struct Types.DepositReceipt)",
        "numberOfBytes": "32",
        "value": "t_struct(DepositReceipt)8478_storage"
      },
      "t_mapping(t_address,t_struct(VaultState)8469_storage)": {
        "encoding": "mapping",
        "key": "t_address",
        "label": "mapping(address => struct Types.VaultState)",
        "numberOfBytes": "32",
        "value": "t_struct(VaultState)8469_storage"
      },
      "t_mapping(t_address,t_struct(Withdrawal)8483_storage)": {
        "encoding": "mapping",
        "key": "t_address",
        "label": "mapping(address => struct Types.Withdrawal)",
        "numberOfBytes": "32",
        "value": "t_struct(Withdrawal)8483_storage"
      },
      "t_mapping(t_address,t_uint128)": {
        "encoding": "mapping",
        "key": "t_address",
        "label": "mapping(address => uint128)",
        "numberOfBytes": "32",
        "value": "t_uint128"
      },
      "t_mapping(t_address,t_uint256)": {
        "encoding": "mapping",
        "key": "t_address",
        "label": "mapping(address => uint256)",
        "numberOfBytes": "32",
        "value": "t_uint256"
      },
      "t_mapping(t_uint16,t_uint256)": {
        "encoding": "mapping",
        "key": "t_uint16",
        "label": "mapping(uint16 => uint256)",
        "numberOfBytes": "32",
        "value": "t_uint256"
      },
      "t_struct(DepositReceipt)8478_storage": {
        "encoding": "inplace",
        "label": "struct Types.DepositReceipt",
        "members": [
          {
            "astId": 8471,
            "contract": "contracts/Cruize.sol:Cruize",
            "label": "round",
            "offset": 0,
            "slot": "0",
            "type": "t_uint16"
          },
          {
            "astId": 8473,
            "contract": "contracts/Cruize.sol:Cruize",
            "label": "amount",
            "offset": 2,
            "slot": "0",
            "type": "t_uint104"
          },
          {
            "astId": 8475,
            "contract": "contracts/Cruize.sol:Cruize",
            "label": "unredeemedShares",
            "offset": 15,
            "slot": "0",
            "type": "t_uint128"
          },
          {
            "astId": 8477,
            "contract": "contracts/Cruize.sol:Cruize",
            "label": "totalDeposit",
            "offset": 0,
            "slot": "1",
            "type": "t_uint104"
          }
        ],
        "numberOfBytes": "64"
      },
      "t_struct(VaultState)8469_storage": {
        "encoding": "inplace",
        "label": "struct Types.VaultState",
        "members": [
          {
            "astId": 8460,
            "contract": "contracts/Cruize.sol:Cruize",
            "label": "round",
            "offset": 0,
            "slot": "0",
            "type": "t_uint16"
          },
          {
            "astId": 8462,
            "contract": "contracts/Cruize.sol:Cruize",
            "label": "lockedAmount",
            "offset": 2,
            "slot": "0",
            "type": "t_uint104"
          },
          {
            "astId": 8464,
            "contract": "contracts/Cruize.sol:Cruize",
            "label": "totalPending",
            "offset": 15,
            "slot": "0",
            "type": "t_uint128"
          },
          {
            "astId": 8466,
            "contract": "contracts/Cruize.sol:Cruize",
            "label": "queuedWithdrawShares",
            "offset": 0,
            "slot": "1",
            "type": "t_uint128"
          },
          {
            "astId": 8468,
            "contract": "contracts/Cruize.sol:Cruize",
            "label": "cap",
            "offset": 16,
            "slot": "1",
            "type": "t_uint104"
          }
        ],
        "numberOfBytes": "64"
      },
      "t_struct(Withdrawal)8483_storage": {
        "encoding": "inplace",
        "label": "struct Types.Withdrawal",
        "members": [
          {
            "astId": 8480,
            "contract": "contracts/Cruize.sol:Cruize",
            "label": "round",
            "offset": 0,
            "slot": "0",
            "type": "t_uint16"
          },
          {
            "astId": 8482,
            "contract": "contracts/Cruize.sol:Cruize",
            "label": "shares",
            "offset": 2,
            "slot": "0",
            "type": "t_uint128"
          }
        ],
        "numberOfBytes": "32"
      },
      "t_uint104": {
        "encoding": "inplace",
        "label": "uint104",
        "numberOfBytes": "13"
      },
      "t_uint128": {
        "encoding": "inplace",
        "label": "uint128",
        "numberOfBytes": "16"
      },
      "t_uint16": {
        "encoding": "inplace",
        "label": "uint16",
        "numberOfBytes": "2"
      },
      "t_uint256": {
        "encoding": "inplace",
        "label": "uint256",
        "numberOfBytes": "32"
      },
      "t_uint8": {
        "encoding": "inplace",
        "label": "uint8",
        "numberOfBytes": "1"
      }
    }
  }
}