{
  "address": "0x5eBE6fAF2d1c8fc6226babD515E84b6FEF70F966",
  "abi": [
    {
      "inputs": [
        {
          "internalType": "address",
          "name": "_logic",
          "type": "address"
        },
        {
          "internalType": "address",
          "name": "admin",
          "type": "address"
        },
        {
          "internalType": "bytes",
          "name": "_data",
          "type": "bytes"
        }
      ],
      "stateMutability": "nonpayable",
      "type": "constructor"
    },
    {
      "anonymous": false,
      "inputs": [
        {
          "indexed": false,
          "internalType": "address",
          "name": "previousAdmin",
          "type": "address"
        },
        {
          "indexed": false,
          "internalType": "address",
          "name": "newAdmin",
          "type": "address"
        }
      ],
      "name": "AdminChanged",
      "type": "event"
    },
    {
      "anonymous": false,
      "inputs": [
        {
          "indexed": true,
          "internalType": "address",
          "name": "beacon",
          "type": "address"
        }
      ],
      "name": "BeaconUpgraded",
      "type": "event"
    },
    {
      "anonymous": false,
      "inputs": [
        {
          "indexed": true,
          "internalType": "address",
          "name": "implementation",
          "type": "address"
        }
      ],
      "name": "Upgraded",
      "type": "event"
    },
    {
      "stateMutability": "payable",
      "type": "fallback"
    },
    {
      "inputs": [],
      "name": "ETH",
      "outputs": [
        {
          "internalType": "address",
          "name": "",
          "type": "address"
        }
      ],
      "stateMutability": "view",
      "type": "function"
    },
    {
      "inputs": [],
      "name": "admin",
      "outputs": [
        {
          "internalType": "address",
          "name": "admin_",
          "type": "address"
        }
      ],
      "stateMutability": "nonpayable",
      "type": "function"
    },
    {
      "inputs": [
        {
          "internalType": "address",
          "name": "newAdmin",
          "type": "address"
        }
      ],
      "name": "changeAdmin",
      "outputs": [],
      "stateMutability": "nonpayable",
      "type": "function"
    },
    {
      "inputs": [],
      "name": "crContract",
      "outputs": [
        {
          "internalType": "address",
          "name": "",
          "type": "address"
        }
      ],
      "stateMutability": "view",
      "type": "function"
    },
    {
      "inputs": [],
      "name": "cruizeProxy",
      "outputs": [
        {
          "internalType": "address",
          "name": "",
          "type": "address"
        }
      ],
      "stateMutability": "view",
      "type": "function"
    },
    {
      "inputs": [
        {
          "internalType": "address",
          "name": "",
          "type": "address"
        }
      ],
      "name": "cruizeTokens",
      "outputs": [
        {
          "internalType": "address",
          "name": "",
          "type": "address"
        }
      ],
      "stateMutability": "view",
      "type": "function"
    },
    {
      "inputs": [
        {
          "internalType": "address",
          "name": "",
          "type": "address"
        }
      ],
      "name": "currentQueuedWithdrawalShares",
      "outputs": [
        {
          "internalType": "uint128",
          "name": "",
          "type": "uint128"
        }
      ],
      "stateMutability": "view",
      "type": "function"
    },
    {
      "inputs": [
        {
          "internalType": "address",
          "name": "",
          "type": "address"
        },
        {
          "internalType": "address",
          "name": "",
          "type": "address"
        }
      ],
      "name": "depositReceipts",
      "outputs": [
        {
          "internalType": "uint16",
          "name": "round",
          "type": "uint16"
        },
        {
          "internalType": "uint104",
          "name": "amount",
          "type": "uint104"
        },
        {
          "internalType": "uint128",
          "name": "unredeemedShares",
          "type": "uint128"
        },
        {
          "internalType": "uint104",
          "name": "totalDeposit",
          "type": "uint104"
        }
      ],
      "stateMutability": "view",
      "type": "function"
    },
    {
      "inputs": [],
      "name": "feeRecipient",
      "outputs": [
        {
          "internalType": "address",
          "name": "",
          "type": "address"
        }
      ],
      "stateMutability": "view",
      "type": "function"
    },
    {
      "inputs": [],
      "name": "gnosisSafe",
      "outputs": [
        {
          "internalType": "address",
          "name": "",
          "type": "address"
        }
      ],
      "stateMutability": "view",
      "type": "function"
    },
    {
      "inputs": [],
      "name": "implementation",
      "outputs": [
        {
          "internalType": "address",
          "name": "implementation_",
          "type": "address"
        }
      ],
      "stateMutability": "nonpayable",
      "type": "function"
    },
    {
      "inputs": [
        {
          "internalType": "address",
          "name": "",
          "type": "address"
        }
      ],
      "name": "isDisable",
      "outputs": [
        {
          "internalType": "bool",
          "name": "",
          "type": "bool"
        }
      ],
      "stateMutability": "view",
      "type": "function"
    },
    {
      "inputs": [],
      "name": "isManagementFeeEnable",
      "outputs": [
        {
          "internalType": "bool",
          "name": "",
          "type": "bool"
        }
      ],
      "stateMutability": "view",
      "type": "function"
    },
    {
      "inputs": [],
      "name": "isPerformanceFeeEnabled",
      "outputs": [
        {
          "internalType": "bool",
          "name": "",
          "type": "bool"
        }
      ],
      "stateMutability": "view",
      "type": "function"
    },
    {
      "inputs": [
        {
          "internalType": "address",
          "name": "",
          "type": "address"
        }
      ],
      "name": "lastQueuedWithdrawAmounts",
      "outputs": [
        {
          "internalType": "uint256",
          "name": "",
          "type": "uint256"
        }
      ],
      "stateMutability": "view",
      "type": "function"
    },
    {
      "inputs": [],
      "name": "managementFee",
      "outputs": [
        {
          "internalType": "uint256",
          "name": "",
          "type": "uint256"
        }
      ],
      "stateMutability": "view",
      "type": "function"
    },
    {
      "inputs": [],
      "name": "module",
      "outputs": [
        {
          "internalType": "address",
          "name": "",
          "type": "address"
        }
      ],
      "stateMutability": "view",
      "type": "function"
    },
    {
      "inputs": [],
      "name": "performanceFee",
      "outputs": [
        {
          "internalType": "uint256",
          "name": "",
          "type": "uint256"
        }
      ],
      "stateMutability": "view",
      "type": "function"
    },
    {
      "inputs": [
        {
          "internalType": "address",
          "name": "",
          "type": "address"
        },
        {
          "internalType": "uint16",
          "name": "",
          "type": "uint16"
        }
      ],
      "name": "roundPricePerShare",
      "outputs": [
        {
          "internalType": "uint256",
          "name": "",
          "type": "uint256"
        }
      ],
      "stateMutability": "view",
      "type": "function"
    },
    {
      "inputs": [
        {
          "internalType": "uint256",
          "name": "",
          "type": "uint256"
        }
      ],
      "name": "tokens",
      "outputs": [
        {
          "internalType": "address",
          "name": "",
          "type": "address"
        }
      ],
      "stateMutability": "view",
      "type": "function"
    },
    {
      "inputs": [
        {
          "internalType": "address",
          "name": "newImplementation",
          "type": "address"
        }
      ],
      "name": "upgradeTo",
      "outputs": [],
      "stateMutability": "nonpayable",
      "type": "function"
    },
    {
      "inputs": [
        {
          "internalType": "address",
          "name": "newImplementation",
          "type": "address"
        },
        {
          "internalType": "bytes",
          "name": "data",
          "type": "bytes"
        }
      ],
      "name": "upgradeToAndCall",
      "outputs": [],
      "stateMutability": "payable",
      "type": "function"
    },
    {
      "inputs": [
        {
          "internalType": "address",
          "name": "",
          "type": "address"
        }
      ],
      "name": "vaults",
      "outputs": [
        {
          "internalType": "uint16",
          "name": "round",
          "type": "uint16"
        },
        {
          "internalType": "uint104",
          "name": "lockedAmount",
          "type": "uint104"
        },
        {
          "internalType": "uint128",
          "name": "totalPending",
          "type": "uint128"
        },
        {
          "internalType": "uint128",
          "name": "queuedWithdrawShares",
          "type": "uint128"
        },
        {
          "internalType": "uint104",
          "name": "cap",
          "type": "uint104"
        }
      ],
      "stateMutability": "view",
      "type": "function"
    },
    {
      "inputs": [
        {
          "internalType": "address",
          "name": "",
          "type": "address"
        },
        {
          "internalType": "address",
          "name": "",
          "type": "address"
        }
      ],
      "name": "withdrawals",
      "outputs": [
        {
          "internalType": "uint16",
          "name": "round",
          "type": "uint16"
        },
        {
          "internalType": "uint128",
          "name": "shares",
          "type": "uint128"
        }
      ],
      "stateMutability": "view",
      "type": "function"
    },
    {
      "stateMutability": "payable",
      "type": "receive"
    }
  ],
  "transactionHash": "0xeb77fa9edf623a536bed9641a56b9da83f7ec086c6c1f81ddaac392bf1e7add8",
  "args": [
    "0x47524b15946af7aE5F005f93dF619741ac454F28",
    "0x96d331Ca0D9c9D1b53A46CD050A698ae4c4c246F",
    "0x"
  ],
  "numDeployments": 1,
  "solcInputHash": "be2053777f39d1742dda508d0adbeed5",
  "bytecode": "0x60806040523480156200001157600080fd5b50604051620014a5380380620014a583398101604081905262000034916200046c565b8282828281620000478282600062000061565b50620000559050826200009e565b505050505050620005e4565b6200006c83620000f9565b6000825111806200007a5750805b1562000099576200009783836200013b60201b620007cf1760201c565b505b505050565b7f7e644d79422f17c01e4894b5f4f588d331ebfa28653d42ae832dc59e38c9798f620000c96200016a565b604080516001600160a01b03928316815291841660208301520160405180910390a1620000f681620001a3565b50565b620001048162000258565b6040516001600160a01b038216907fbc7cd75a20ee27fd9adebab32041f755214dbc6bffa90cc0225b39da2e5c2d3b90600090a250565b60606200016383836040518060600160405280602781526020016200147e602791396200030c565b9392505050565b6000620001946000805160206200145e83398151915260001b6200038b60201b620007771760201c565b546001600160a01b0316919050565b6001600160a01b0381166200020e5760405162461bcd60e51b815260206004820152602660248201527f455243313936373a206e65772061646d696e20697320746865207a65726f206160448201526564647265737360d01b60648201526084015b60405180910390fd5b80620002376000805160206200145e83398151915260001b6200038b60201b620007771760201c565b80546001600160a01b0319166001600160a01b039290921691909117905550565b6200026e816200038e60201b620007fb1760201c565b620002d25760405162461bcd60e51b815260206004820152602d60248201527f455243313936373a206e657720696d706c656d656e746174696f6e206973206e60448201526c1bdd08184818dbdb9d1c9858dd609a1b606482015260840162000205565b80620002377f360894a13ba1a3210667c828492db98dca3e2076cc3735a920a3ca505d382bbc60001b6200038b60201b620007771760201c565b6060600080856001600160a01b0316856040516200032b91906200054c565b600060405180830381855af49150503d806000811462000368576040519150601f19603f3d011682016040523d82523d6000602084013e6200036d565b606091505b50909250905062000381868383876200039d565b9695505050505050565b90565b6001600160a01b03163b151590565b606083156200040e57825162000406576001600160a01b0385163b620004065760405162461bcd60e51b815260206004820152601d60248201527f416464726573733a2063616c6c20746f206e6f6e2d636f6e7472616374000000604482015260640162000205565b50816200041a565b6200041a838362000422565b949350505050565b815115620004335781518083602001fd5b8060405162461bcd60e51b81526004016200020591906200056a565b80516001600160a01b03811681146200046757600080fd5b919050565b6000806000606084860312156200048257600080fd5b6200048d846200044f565b92506200049d602085016200044f565b60408501519092506001600160401b0380821115620004bb57600080fd5b818601915086601f830112620004d057600080fd5b815181811115620004e557620004e5620005ce565b604051601f8201601f19908116603f01168101908382118183101715620005105762000510620005ce565b816040528281528960208487010111156200052a57600080fd5b6200053d8360208301602088016200059f565b80955050505050509250925092565b60008251620005608184602087016200059f565b9190910192915050565b60208152600082518060208401526200058b8160408501602087016200059f565b601f01601f19169190910160400192915050565b60005b83811015620005bc578181015183820152602001620005a2565b83811115620000975750506000910152565b634e487b7160e01b600052604160045260246000fd5b610e6a80620005f46000396000f3fe60806040526004361061014f5760003560e01c806387788782116100b6578063a84173ae1161006f578063a84173ae146104fc578063b86d52981461051c578063c54c8ddc14610541578063cd47bde114610571578063e7de1670146105e0578063f851a4401461062e5761015e565b806387788782146103465780638f2839701461035c5780639367a8e51461037c57806397b7ea7d14610422578063a622ee7c1461043c578063a6f7f5d6146104e65761015e565b80635c60da1b116101085780635c60da1b1461025c578063619954aa14610271578063717edf281461029b5780637f288b26146102bb5780638322fff2146102f157806386fcf7f6146103195761015e565b8063108efa931461016657806324116b99146101a35780633659cfe6146101e957806346904840146102095780634f1ef286146102295780634f64b2be1461023c5761015e565b3661015e5761015c610643565b005b61015c610643565b34801561017257600080fd5b50600654610186906001600160a01b031681565b6040516001600160a01b0390911681526020015b60405180910390f35b3480156101af57600080fd5b506101db6101be366004610d3b565b600f60209081526000928352604080842090915290825290205481565b60405190815260200161019a565b3480156101f557600080fd5b5061015c610204366004610c6a565b61065d565b34801561021557600080fd5b50600054610186906001600160a01b031681565b61015c610237366004610cb8565b6106a4565b34801561024857600080fd5b50610186610257366004610d79565b610715565b34801561026857600080fd5b5061018661073f565b34801561027d57600080fd5b5060025461028b9060ff1681565b604051901515815260200161019a565b3480156102a757600080fd5b50600754610186906001600160a01b031681565b3480156102c757600080fd5b506101866102d6366004610c6a565b6008602052600090815260409020546001600160a01b031681565b3480156102fd57600080fd5b5061018673eeeeeeeeeeeeeeeeeeeeeeeeeeeeeeeeeeeeeeee81565b34801561032557600080fd5b506101db610334366004610c6a565b600b6020526000908152604090205481565b34801561035257600080fd5b506101db60015481565b34801561036857600080fd5b5061015c610377366004610c6a565b61077a565b34801561038857600080fd5b506103e6610397366004610c85565b600e6020908152600092835260408084209091529082529020805460019091015461ffff8216916201000081046001600160681b0390811692600160781b9092046001600160801b0316911684565b6040805161ffff90951685526001600160681b0393841660208601526001600160801b039092169184019190915216606082015260800161019a565b34801561042e57600080fd5b5060045461028b9060ff1681565b34801561044857600080fd5b506104a6610457366004610c6a565b600a602052600090815260409020805460019091015461ffff8216916001600160681b036201000082048116926001600160801b03600160781b909304831692811691600160801b9091041685565b6040805161ffff90961686526001600160681b0394851660208701526001600160801b03938416908601529116606084015216608082015260a00161019a565b3480156104f257600080fd5b506101db60035481565b34801561050857600080fd5b50600554610186906001600160a01b031681565b34801561052857600080fd5b506004546101869061010090046001600160a01b031681565b34801561054d57600080fd5b5061028b61055c366004610c6a565b60096020526000908152604090205460ff1681565b34801561057d57600080fd5b506105be61058c366004610c85565b600d60209081526000928352604080842090915290825290205461ffff8116906201000090046001600160801b031682565b6040805161ffff90931683526001600160801b0390911660208301520161019a565b3480156105ec57600080fd5b506106166105fb366004610c6a565b600c602052600090815260409020546001600160801b031681565b6040516001600160801b03909116815260200161019a565b34801561063a57600080fd5b506101866107a4565b61064b61080a565b61065b6106566108a9565b6108b3565b565b6106656108d7565b6001600160a01b0316336001600160a01b0316141561069c576106998160405180602001604052806000815250600061090a565b50565b610699610643565b6106ac6108d7565b6001600160a01b0316336001600160a01b0316141561070d576107088383838080601f0160208091040260200160405190810160405280939291908181526020018383808284376000920191909152506001925061090a915050565b505050565b610708610643565b6010818154811061072557600080fd5b6000918252602090912001546001600160a01b0316905081565b60006107496108d7565b6001600160a01b0316336001600160a01b0316141561076f5761076a6108a9565b905090565b610777610643565b90565b6107826108d7565b6001600160a01b0316336001600160a01b0316141561069c5761069981610935565b60006107ae6108d7565b6001600160a01b0316336001600160a01b0316141561076f5761076a6108d7565b60606107f48383604051806060016040528060278152602001610e0e60279139610989565b9392505050565b6001600160a01b03163b151590565b6108126108d7565b6001600160a01b0316336001600160a01b0316141561065b5760405162461bcd60e51b815260206004820152604260248201527f5472616e73706172656e745570677261646561626c6550726f78793a2061646d60448201527f696e2063616e6e6f742066616c6c6261636b20746f2070726f78792074617267606482015261195d60f21b608482015260a4015b60405180910390fd5b600061076a610a01565b3660008037600080366000845af43d6000803e8080156108d2573d6000f35b3d6000fd5b60007fb53127684a568b3173ae13b9f8a6016e243e63b6e8ee1178d6a717850b5d61035b546001600160a01b0316919050565b61091383610a29565b6000825111806109205750805b156107085761092f83836107cf565b50505050565b7f7e644d79422f17c01e4894b5f4f588d331ebfa28653d42ae832dc59e38c9798f61095e6108d7565b604080516001600160a01b03928316815291841660208301520160405180910390a161069981610a69565b6060600080856001600160a01b0316856040516109a69190610d92565b600060405180830381855af49150503d80600081146109e1576040519150601f19603f3d011682016040523d82523d6000602084013e6109e6565b606091505b50915091506109f786838387610b12565b9695505050505050565b60007f360894a13ba1a3210667c828492db98dca3e2076cc3735a920a3ca505d382bbc6108fb565b610a3281610b90565b6040516001600160a01b038216907fbc7cd75a20ee27fd9adebab32041f755214dbc6bffa90cc0225b39da2e5c2d3b90600090a250565b6001600160a01b038116610ace5760405162461bcd60e51b815260206004820152602660248201527f455243313936373a206e65772061646d696e20697320746865207a65726f206160448201526564647265737360d01b60648201526084016108a0565b807fb53127684a568b3173ae13b9f8a6016e243e63b6e8ee1178d6a717850b5d61035b80546001600160a01b0319166001600160a01b039290921691909117905550565b60608315610b7e578251610b77576001600160a01b0385163b610b775760405162461bcd60e51b815260206004820152601d60248201527f416464726573733a2063616c6c20746f206e6f6e2d636f6e747261637400000060448201526064016108a0565b5081610b88565b610b888383610c24565b949350505050565b6001600160a01b0381163b610bfd5760405162461bcd60e51b815260206004820152602d60248201527f455243313936373a206e657720696d706c656d656e746174696f6e206973206e60448201526c1bdd08184818dbdb9d1c9858dd609a1b60648201526084016108a0565b807f360894a13ba1a3210667c828492db98dca3e2076cc3735a920a3ca505d382bbc610af1565b815115610c345781518083602001fd5b8060405162461bcd60e51b81526004016108a09190610dae565b80356001600160a01b0381168114610c6557600080fd5b919050565b600060208284031215610c7c57600080fd5b6107f482610c4e565b60008060408385031215610c9857600080fd5b610ca183610c4e565b9150610caf60208401610c4e565b90509250929050565b600080600060408486031215610ccd57600080fd5b610cd684610c4e565b9250602084013567ffffffffffffffff80821115610cf357600080fd5b818601915086601f830112610d0757600080fd5b813581811115610d1657600080fd5b876020828501011115610d2857600080fd5b6020830194508093505050509250925092565b60008060408385031215610d4e57600080fd5b610d5783610c4e565b9150602083013561ffff81168114610d6e57600080fd5b809150509250929050565b600060208284031215610d8b57600080fd5b5035919050565b60008251610da4818460208701610de1565b9190910192915050565b6020815260008251806020840152610dcd816040850160208701610de1565b601f01601f19169190910160400192915050565b60005b83811015610dfc578181015183820152602001610de4565b8381111561092f575050600091015256fe416464726573733a206c6f772d6c6576656c2064656c65676174652063616c6c206661696c6564a264697066735822122036f809c4e904b02e83039b44d692edff671b576c18d4d8095c601174249a077a64736f6c63430008060033b53127684a568b3173ae13b9f8a6016e243e63b6e8ee1178d6a717850b5d6103416464726573733a206c6f772d6c6576656c2064656c65676174652063616c6c206661696c6564",
  "devdoc": {
    "kind": "dev",
    "methods": {
      "admin()": {
        "details": "Returns the current admin. NOTE: Only the admin can call this function. See {ProxyAdmin-getProxyAdmin}. TIP: To get this value clients can read directly from the storage slot shown below (specified by EIP1967) using the https://eth.wiki/json-rpc/API#eth_getstorageat[`eth_getStorageAt`] RPC call. `0xb53127684a568b3173ae13b9f8a6016e243e63b6e8ee1178d6a717850b5d6103`"
      },
      "changeAdmin(address)": {
        "details": "Changes the admin of the proxy. Emits an {AdminChanged} event. NOTE: Only the admin can call this function. See {ProxyAdmin-changeProxyAdmin}."
      },
      "implementation()": {
        "details": "Returns the current implementation. NOTE: Only the admin can call this function. See {ProxyAdmin-getProxyImplementation}. TIP: To get this value clients can read directly from the storage slot shown below (specified by EIP1967) using the https://eth.wiki/json-rpc/API#eth_getstorageat[`eth_getStorageAt`] RPC call. `0x360894a13ba1a3210667c828492db98dca3e2076cc3735a920a3ca505d382bbc`"
      },
      "upgradeTo(address)": {
        "details": "Upgrade the implementation of the proxy. NOTE: Only the admin can call this function. See {ProxyAdmin-upgrade}."
      },
      "upgradeToAndCall(address,bytes)": {
        "details": "Upgrade the implementation of the proxy, and then call a function from the new implementation as specified by `data`, which should be an encoded function call. This is useful to initialize new storage variables in the proxied contract. NOTE: Only the admin can call this function. See {ProxyAdmin-upgradeAndCall}."
      }
    },
    "version": 1
  },
  "userdoc": {
    "kind": "user",
    "methods": {
      "ETH()": {
        "notice": "ETH 0xEeeeeEeeeEeEeeEeEeEeeEEEeeeeEeeeeeeeEEeE"
      },
      "crContract()": {
        "notice": "crContract address that will be used to create new crcontract clone"
      },
      "cruizeProxy()": {
        "notice": "gnosis safe address where all the fund will be locked"
      },
      "cruizeTokens(address)": {
        "notice": "crtokens mint for user's share's"
      },
      "currentQueuedWithdrawalShares(address)": {
        "notice": "Queued withdraw shares for the current round"
      },
      "depositReceipts(address,address)": {
        "notice": "Stores the user's pending deposit for the round"
      },
      "feeRecipient()": {
        "notice": "Fee recipient for the management fees"
      },
      "gnosisSafe()": {
        "notice": "gnosis safe address where all the fund will be locked"
      },
      "isDisable(address)": {
        "notice": "Enable/Disable tokens"
      },
      "lastQueuedWithdrawAmounts(address)": {
        "notice": "Queued withdrawal amount in the last round"
      },
      "managementFee()": {
        "notice": "Management fee charged on entire AUM in rollToNextOption. Only charged when there is no loss."
      },
      "module()": {
        "notice": "role in charge of weekly vault operations such as transfer fund and burn tokens"
      },
      "performanceFee()": {
        "notice": "Performance fee charged on premiums earned in rollToNextOption. Only charged when there is no loss."
      },
      "roundPricePerShare(address,uint16)": {
        "notice": "On every round's close, the pricePerShare value of an crToken token is stored This is used to determine the number of shares to be returned to a user with their DepositReceipt.depositAmount"
      },
      "vaults(address)": {
        "notice": "Stores vaults state for every round"
      },
      "withdrawals(address,address)": {
        "notice": "Stores pending user withdrawals"
      }
    },
    "version": 1
  },
  "storageLayout": {
    "storage": [
      {
        "astId": 9194,
        "contract": "contracts/proxies/CruizeProxy.sol:CruizeProxy",
        "label": "feeRecipient",
        "offset": 0,
        "slot": "0",
        "type": "t_address"
      },
      {
        "astId": 9197,
        "contract": "contracts/proxies/CruizeProxy.sol:CruizeProxy",
        "label": "performanceFee",
        "offset": 0,
        "slot": "1",
        "type": "t_uint256"
      },
      {
        "astId": 9199,
        "contract": "contracts/proxies/CruizeProxy.sol:CruizeProxy",
        "label": "isPerformanceFeeEnabled",
        "offset": 0,
        "slot": "2",
        "type": "t_bool"
      },
      {
        "astId": 9202,
        "contract": "contracts/proxies/CruizeProxy.sol:CruizeProxy",
        "label": "managementFee",
        "offset": 0,
        "slot": "3",
        "type": "t_uint256"
      },
      {
        "astId": 9204,
        "contract": "contracts/proxies/CruizeProxy.sol:CruizeProxy",
        "label": "isManagementFeeEnable",
        "offset": 0,
        "slot": "4",
        "type": "t_bool"
      },
      {
        "astId": 9207,
        "contract": "contracts/proxies/CruizeProxy.sol:CruizeProxy",
        "label": "module",
        "offset": 1,
        "slot": "4",
        "type": "t_address"
      },
      {
        "astId": 9210,
        "contract": "contracts/proxies/CruizeProxy.sol:CruizeProxy",
        "label": "gnosisSafe",
        "offset": 0,
        "slot": "5",
        "type": "t_address"
      },
      {
        "astId": 9213,
        "contract": "contracts/proxies/CruizeProxy.sol:CruizeProxy",
        "label": "cruizeProxy",
        "offset": 0,
        "slot": "6",
        "type": "t_address"
      },
      {
        "astId": 9216,
        "contract": "contracts/proxies/CruizeProxy.sol:CruizeProxy",
        "label": "crContract",
        "offset": 0,
        "slot": "7",
        "type": "t_address"
      },
      {
        "astId": 9233,
        "contract": "contracts/proxies/CruizeProxy.sol:CruizeProxy",
        "label": "cruizeTokens",
        "offset": 0,
        "slot": "8",
        "type": "t_mapping(t_address,t_address)"
      },
      {
        "astId": 9238,
        "contract": "contracts/proxies/CruizeProxy.sol:CruizeProxy",
        "label": "isDisable",
        "offset": 0,
        "slot": "9",
        "type": "t_mapping(t_address,t_bool)"
      },
      {
        "astId": 9244,
        "contract": "contracts/proxies/CruizeProxy.sol:CruizeProxy",
        "label": "vaults",
        "offset": 0,
        "slot": "10",
        "type": "t_mapping(t_address,t_struct(VaultState)9101_storage)"
      },
      {
        "astId": 9249,
        "contract": "contracts/proxies/CruizeProxy.sol:CruizeProxy",
        "label": "lastQueuedWithdrawAmounts",
        "offset": 0,
        "slot": "11",
        "type": "t_mapping(t_address,t_uint256)"
      },
      {
        "astId": 9254,
        "contract": "contracts/proxies/CruizeProxy.sol:CruizeProxy",
        "label": "currentQueuedWithdrawalShares",
        "offset": 0,
        "slot": "12",
        "type": "t_mapping(t_address,t_uint128)"
      },
      {
        "astId": 9262,
        "contract": "contracts/proxies/CruizeProxy.sol:CruizeProxy",
        "label": "withdrawals",
        "offset": 0,
        "slot": "13",
        "type": "t_mapping(t_address,t_mapping(t_address,t_struct(Withdrawal)9115_storage))"
      },
      {
        "astId": 9270,
        "contract": "contracts/proxies/CruizeProxy.sol:CruizeProxy",
        "label": "depositReceipts",
        "offset": 0,
        "slot": "14",
        "type": "t_mapping(t_address,t_mapping(t_address,t_struct(DepositReceipt)9110_storage))"
      },
      {
        "astId": 9277,
        "contract": "contracts/proxies/CruizeProxy.sol:CruizeProxy",
        "label": "roundPricePerShare",
        "offset": 0,
        "slot": "15",
        "type": "t_mapping(t_address,t_mapping(t_uint16,t_uint256))"
      },
      {
        "astId": 9281,
        "contract": "contracts/proxies/CruizeProxy.sol:CruizeProxy",
        "label": "tokens",
        "offset": 0,
        "slot": "16",
        "type": "t_array(t_address)dyn_storage"
      },
      {
        "astId": 9285,
        "contract": "contracts/proxies/CruizeProxy.sol:CruizeProxy",
        "label": "__cruize_gap",
        "offset": 0,
        "slot": "17",
        "type": "t_array(t_uint256)49_storage"
      }
    ],
    "types": {
      "t_address": {
        "encoding": "inplace",
        "label": "address",
        "numberOfBytes": "20"
      },
      "t_array(t_address)dyn_storage": {
        "base": "t_address",
        "encoding": "dynamic_array",
        "label": "address[]",
        "numberOfBytes": "32"
      },
      "t_array(t_uint256)49_storage": {
        "base": "t_uint256",
        "encoding": "inplace",
        "label": "uint256[49]",
        "numberOfBytes": "1568"
      },
      "t_bool": {
        "encoding": "inplace",
        "label": "bool",
        "numberOfBytes": "1"
      },
      "t_mapping(t_address,t_address)": {
        "encoding": "mapping",
        "key": "t_address",
        "label": "mapping(address => address)",
        "numberOfBytes": "32",
        "value": "t_address"
      },
      "t_mapping(t_address,t_bool)": {
        "encoding": "mapping",
        "key": "t_address",
        "label": "mapping(address => bool)",
        "numberOfBytes": "32",
        "value": "t_bool"
      },
      "t_mapping(t_address,t_mapping(t_address,t_struct(DepositReceipt)9110_storage))": {
        "encoding": "mapping",
        "key": "t_address",
        "label": "mapping(address => mapping(address => struct Types.DepositReceipt))",
        "numberOfBytes": "32",
        "value": "t_mapping(t_address,t_struct(DepositReceipt)9110_storage)"
      },
      "t_mapping(t_address,t_mapping(t_address,t_struct(Withdrawal)9115_storage))": {
        "encoding": "mapping",
        "key": "t_address",
        "label": "mapping(address => mapping(address => struct Types.Withdrawal))",
        "numberOfBytes": "32",
        "value": "t_mapping(t_address,t_struct(Withdrawal)9115_storage)"
      },
      "t_mapping(t_address,t_mapping(t_uint16,t_uint256))": {
        "encoding": "mapping",
        "key": "t_address",
        "label": "mapping(address => mapping(uint16 => uint256))",
        "numberOfBytes": "32",
        "value": "t_mapping(t_uint16,t_uint256)"
      },
      "t_mapping(t_address,t_struct(DepositReceipt)9110_storage)": {
        "encoding": "mapping",
        "key": "t_address",
        "label": "mapping(address => struct Types.DepositReceipt)",
        "numberOfBytes": "32",
        "value": "t_struct(DepositReceipt)9110_storage"
      },
      "t_mapping(t_address,t_struct(VaultState)9101_storage)": {
        "encoding": "mapping",
        "key": "t_address",
        "label": "mapping(address => struct Types.VaultState)",
        "numberOfBytes": "32",
        "value": "t_struct(VaultState)9101_storage"
      },
      "t_mapping(t_address,t_struct(Withdrawal)9115_storage)": {
        "encoding": "mapping",
        "key": "t_address",
        "label": "mapping(address => struct Types.Withdrawal)",
        "numberOfBytes": "32",
        "value": "t_struct(Withdrawal)9115_storage"
      },
      "t_mapping(t_address,t_uint128)": {
        "encoding": "mapping",
        "key": "t_address",
        "label": "mapping(address => uint128)",
        "numberOfBytes": "32",
        "value": "t_uint128"
      },
      "t_mapping(t_address,t_uint256)": {
        "encoding": "mapping",
        "key": "t_address",
        "label": "mapping(address => uint256)",
        "numberOfBytes": "32",
        "value": "t_uint256"
      },
      "t_mapping(t_uint16,t_uint256)": {
        "encoding": "mapping",
        "key": "t_uint16",
        "label": "mapping(uint16 => uint256)",
        "numberOfBytes": "32",
        "value": "t_uint256"
      },
      "t_struct(DepositReceipt)9110_storage": {
        "encoding": "inplace",
        "label": "struct Types.DepositReceipt",
        "members": [
          {
            "astId": 9103,
            "contract": "contracts/proxies/CruizeProxy.sol:CruizeProxy",
            "label": "round",
            "offset": 0,
            "slot": "0",
            "type": "t_uint16"
          },
          {
            "astId": 9105,
            "contract": "contracts/proxies/CruizeProxy.sol:CruizeProxy",
            "label": "amount",
            "offset": 2,
            "slot": "0",
            "type": "t_uint104"
          },
          {
            "astId": 9107,
            "contract": "contracts/proxies/CruizeProxy.sol:CruizeProxy",
            "label": "unredeemedShares",
            "offset": 15,
            "slot": "0",
            "type": "t_uint128"
          },
          {
            "astId": 9109,
            "contract": "contracts/proxies/CruizeProxy.sol:CruizeProxy",
            "label": "totalDeposit",
            "offset": 0,
            "slot": "1",
            "type": "t_uint104"
          }
        ],
        "numberOfBytes": "64"
      },
      "t_struct(VaultState)9101_storage": {
        "encoding": "inplace",
        "label": "struct Types.VaultState",
        "members": [
          {
            "astId": 9092,
            "contract": "contracts/proxies/CruizeProxy.sol:CruizeProxy",
            "label": "round",
            "offset": 0,
            "slot": "0",
            "type": "t_uint16"
          },
          {
            "astId": 9094,
            "contract": "contracts/proxies/CruizeProxy.sol:CruizeProxy",
            "label": "lockedAmount",
            "offset": 2,
            "slot": "0",
            "type": "t_uint104"
          },
          {
            "astId": 9096,
            "contract": "contracts/proxies/CruizeProxy.sol:CruizeProxy",
            "label": "totalPending",
            "offset": 15,
            "slot": "0",
            "type": "t_uint128"
          },
          {
            "astId": 9098,
            "contract": "contracts/proxies/CruizeProxy.sol:CruizeProxy",
            "label": "queuedWithdrawShares",
            "offset": 0,
            "slot": "1",
            "type": "t_uint128"
          },
          {
            "astId": 9100,
            "contract": "contracts/proxies/CruizeProxy.sol:CruizeProxy",
            "label": "cap",
            "offset": 16,
            "slot": "1",
            "type": "t_uint104"
          }
        ],
        "numberOfBytes": "64"
      },
      "t_struct(Withdrawal)9115_storage": {
        "encoding": "inplace",
        "label": "struct Types.Withdrawal",
        "members": [
          {
            "astId": 9112,
            "contract": "contracts/proxies/CruizeProxy.sol:CruizeProxy",
            "label": "round",
            "offset": 0,
            "slot": "0",
            "type": "t_uint16"
          },
          {
            "astId": 9114,
            "contract": "contracts/proxies/CruizeProxy.sol:CruizeProxy",
            "label": "shares",
            "offset": 2,
            "slot": "0",
            "type": "t_uint128"
          }
        ],
        "numberOfBytes": "32"
      },
      "t_uint104": {
        "encoding": "inplace",
        "label": "uint104",
        "numberOfBytes": "13"
      },
      "t_uint128": {
        "encoding": "inplace",
        "label": "uint128",
        "numberOfBytes": "16"
      },
      "t_uint16": {
        "encoding": "inplace",
        "label": "uint16",
        "numberOfBytes": "2"
      },
      "t_uint256": {
        "encoding": "inplace",
        "label": "uint256",
        "numberOfBytes": "32"
      }
    }
  }
}