{
  "address": "0x47524b15946af7aE5F005f93dF619741ac454F28",
  "abi": [
    {
      "inputs": [
        {
          "internalType": "address",
          "name": "AssetAlreadyExists",
          "type": "address"
        }
      ],
      "name": "AssetAlreadyExists",
      "type": "error"
    },
    {
      "inputs": [
        {
          "internalType": "address",
          "name": "AssetNotAllowed",
          "type": "address"
        }
      ],
      "name": "AssetNotAllowed",
      "type": "error"
    },
    {
      "inputs": [
        {
          "internalType": "address",
          "name": "AssetDisabled",
          "type": "address"
        }
      ],
      "name": "DisabledAsset",
      "type": "error"
    },
    {
      "inputs": [],
      "name": "FailedToTransferETH",
      "type": "error"
    },
    {
      "inputs": [],
      "name": "InvalidFee",
      "type": "error"
    },
    {
      "inputs": [
        {
          "internalType": "uint256",
          "name": "WithdrawalRequestRound",
          "type": "uint256"
        },
        {
          "internalType": "uint256",
          "name": "currentRound",
          "type": "uint256"
        }
      ],
      "name": "InvalidWithdrawalRound",
      "type": "error"
    },
    {
      "inputs": [
        {
          "internalType": "address",
          "name": "actualAddr",
          "type": "address"
        },
        {
          "internalType": "address",
          "name": "ownerAddr",
          "type": "address"
        }
      ],
      "name": "NotAuthorized",
      "type": "error"
    },
    {
      "inputs": [
        {
          "internalType": "uint256",
          "name": "withdrawalBalance",
          "type": "uint256"
        },
        {
          "internalType": "uint256",
          "name": "withdrawalRequestBalance",
          "type": "uint256"
        }
      ],
      "name": "NotEnoughWithdrawalBalance",
      "type": "error"
    },
    {
      "inputs": [
        {
          "internalType": "uint256",
          "name": "withdrawalshare",
          "type": "uint256"
        },
        {
          "internalType": "uint256",
          "name": "withdrawalRequestshare",
          "type": "uint256"
        }
      ],
      "name": "NotEnoughWithdrawalShare",
      "type": "error"
    },
    {
      "inputs": [
        {
          "internalType": "address",
          "name": "guard_",
          "type": "address"
        }
      ],
      "name": "NotIERC165Compliant",
      "type": "error"
    },
    {
      "inputs": [
        {
          "internalType": "uint256",
          "name": "limit",
          "type": "uint256"
        }
      ],
      "name": "VaultReachedDepositLimit",
      "type": "error"
    },
    {
      "inputs": [
        {
          "internalType": "uint256",
          "name": "WithdrawalAlreadyExists",
          "type": "uint256"
        }
      ],
      "name": "WithdrawalAlreadyExists",
      "type": "error"
    },
    {
      "inputs": [
        {
          "internalType": "address",
          "name": "ZeroAddress",
          "type": "address"
        }
      ],
      "name": "ZeroAddress",
      "type": "error"
    },
    {
      "inputs": [
        {
          "internalType": "uint256",
          "name": "ZeroValue",
          "type": "uint256"
        }
      ],
      "name": "ZeroValue",
      "type": "error"
    },
    {
      "inputs": [],
      "name": "ZeroWithdrawalShare",
      "type": "error"
    },
    {
      "anonymous": false,
      "inputs": [
        {
          "indexed": true,
          "internalType": "address",
          "name": "previousAvatar",
          "type": "address"
        },
        {
          "indexed": true,
          "internalType": "address",
          "name": "newAvatar",
          "type": "address"
        }
      ],
      "name": "AvatarSet",
      "type": "event"
    },
    {
      "anonymous": false,
      "inputs": [
        {
          "indexed": true,
          "internalType": "address",
          "name": "token",
          "type": "address"
        },
        {
          "indexed": false,
          "internalType": "uint256",
          "name": "oldCap",
          "type": "uint256"
        },
        {
          "indexed": false,
          "internalType": "uint256",
          "name": "newCap",
          "type": "uint256"
        }
      ],
      "name": "CapSet",
      "type": "event"
    },
    {
      "anonymous": false,
      "inputs": [
        {
          "indexed": true,
          "internalType": "address",
          "name": "token",
          "type": "address"
        },
        {
          "indexed": false,
          "internalType": "bool",
          "name": "status",
          "type": "bool"
        }
      ],
      "name": "ChangeAssetStatus",
      "type": "event"
    },
    {
      "anonymous": false,
      "inputs": [
        {
          "indexed": false,
          "internalType": "address",
          "name": "guard",
          "type": "address"
        }
      ],
      "name": "ChangedGuard",
      "type": "event"
    },
    {
      "anonymous": false,
      "inputs": [
        {
          "indexed": true,
          "internalType": "address",
          "name": "token",
          "type": "address"
        },
        {
          "indexed": true,
          "internalType": "uint16",
          "name": "round",
          "type": "uint16"
        },
        {
          "indexed": false,
          "internalType": "uint256",
          "name": "SharePerUnit",
          "type": "uint256"
        },
        {
          "indexed": false,
          "internalType": "uint256",
          "name": "lockedAmount",
          "type": "uint256"
        }
      ],
      "name": "CloseRound",
      "type": "event"
    },
    {
      "anonymous": false,
      "inputs": [
        {
          "indexed": true,
          "internalType": "address",
          "name": "token",
          "type": "address"
        },
        {
          "indexed": false,
          "internalType": "uint256",
          "name": "round",
          "type": "uint256"
        }
      ],
      "name": "CollectVaultFee",
      "type": "event"
    },
    {
      "anonymous": false,
      "inputs": [
        {
          "indexed": true,
          "internalType": "address",
          "name": "token",
          "type": "address"
        },
        {
          "indexed": true,
          "internalType": "address",
          "name": "crToken",
          "type": "address"
        },
        {
          "indexed": false,
          "internalType": "string",
          "name": "tokenName",
          "type": "string"
        },
        {
          "indexed": false,
          "internalType": "string",
          "name": "tokenSymbol",
          "type": "string"
        },
        {
          "indexed": false,
          "internalType": "uint8",
          "name": "decimal",
          "type": "uint8"
        },
        {
          "indexed": false,
          "internalType": "uint256",
          "name": "tokenCap",
          "type": "uint256"
        }
      ],
      "name": "CreateToken",
      "type": "event"
    },
    {
      "anonymous": false,
      "inputs": [
        {
          "indexed": true,
          "internalType": "address",
          "name": "account",
          "type": "address"
        },
        {
          "indexed": false,
          "internalType": "uint256",
          "name": "amount",
          "type": "uint256"
        },
        {
          "indexed": true,
          "internalType": "address",
          "name": "token",
          "type": "address"
        }
      ],
      "name": "Deposit",
      "type": "event"
    },
    {
      "anonymous": false,
      "inputs": [
        {
          "indexed": false,
          "internalType": "uint8",
          "name": "version",
          "type": "uint8"
        }
      ],
      "name": "Initialized",
      "type": "event"
    },
    {
      "anonymous": false,
      "inputs": [
        {
          "indexed": true,
          "internalType": "address",
          "name": "account",
          "type": "address"
        },
        {
          "indexed": true,
          "internalType": "address",
          "name": "token",
          "type": "address"
        },
        {
          "indexed": false,
          "internalType": "uint256",
          "name": "amount",
          "type": "uint256"
        }
      ],
      "name": "InitiateStandardWithdrawal",
      "type": "event"
    },
    {
      "anonymous": false,
      "inputs": [
        {
          "indexed": true,
          "internalType": "address",
          "name": "account",
          "type": "address"
        },
        {
          "indexed": false,
          "internalType": "uint256",
          "name": "amount",
          "type": "uint256"
        },
        {
          "indexed": false,
          "internalType": "uint16",
          "name": "currentRound",
          "type": "uint16"
        },
        {
          "indexed": true,
          "internalType": "address",
          "name": "token",
          "type": "address"
        }
      ],
      "name": "InstantWithdrawal",
      "type": "event"
    },
    {
      "anonymous": false,
      "inputs": [
        {
          "indexed": false,
          "internalType": "uint256",
          "name": "managementFee",
          "type": "uint256"
        },
        {
          "indexed": false,
          "internalType": "uint256",
          "name": "newManagementFee",
          "type": "uint256"
        }
      ],
      "name": "ManagementFeeSet",
      "type": "event"
    },
    {
      "anonymous": false,
      "inputs": [
        {
          "indexed": true,
          "internalType": "address",
          "name": "previousOwner",
          "type": "address"
        },
        {
          "indexed": true,
          "internalType": "address",
          "name": "newOwner",
          "type": "address"
        }
      ],
      "name": "OwnershipTransferred",
      "type": "event"
    },
    {
      "anonymous": false,
      "inputs": [
        {
          "indexed": false,
          "internalType": "uint256",
          "name": "performanceFee",
          "type": "uint256"
        },
        {
          "indexed": false,
          "internalType": "uint256",
          "name": "newPerformanceFee",
          "type": "uint256"
        }
      ],
      "name": "PerformanceFeeSet",
      "type": "event"
    },
    {
      "anonymous": false,
      "inputs": [
        {
          "indexed": true,
          "internalType": "address",
          "name": "account",
          "type": "address"
        },
        {
          "indexed": false,
          "internalType": "uint256",
          "name": "amount",
          "type": "uint256"
        },
        {
          "indexed": true,
          "internalType": "address",
          "name": "token",
          "type": "address"
        }
      ],
      "name": "StandardWithdrawal",
      "type": "event"
    },
    {
      "anonymous": false,
      "inputs": [
        {
          "indexed": true,
          "internalType": "address",
          "name": "previousTarget",
          "type": "address"
        },
        {
          "indexed": true,
          "internalType": "address",
          "name": "newTarget",
          "type": "address"
        }
      ],
      "name": "TargetSet",
      "type": "event"
    },
    {
      "inputs": [],
      "name": "ETH",
      "outputs": [
        {
          "internalType": "address",
          "name": "",
          "type": "address"
        }
      ],
      "stateMutability": "view",
      "type": "function"
    },
    {
      "inputs": [],
      "name": "avatar",
      "outputs": [
        {
          "internalType": "address",
          "name": "",
          "type": "address"
        }
      ],
      "stateMutability": "view",
      "type": "function"
    },
    {
      "inputs": [
        {
          "internalType": "address",
          "name": "token",
          "type": "address"
        },
        {
          "internalType": "address",
          "name": "account",
          "type": "address"
        }
      ],
      "name": "balanceOf",
      "outputs": [
        {
          "internalType": "uint256",
          "name": "",
          "type": "uint256"
        }
      ],
      "stateMutability": "view",
      "type": "function"
    },
    {
      "inputs": [
        {
          "internalType": "address",
          "name": "token",
          "type": "address"
        },
        {
          "internalType": "address",
          "name": "account",
          "type": "address"
        }
      ],
      "name": "balanceOfUser",
      "outputs": [
        {
          "internalType": "uint256",
          "name": "balance",
          "type": "uint256"
        }
      ],
      "stateMutability": "view",
      "type": "function"
    },
    {
      "inputs": [
        {
          "internalType": "address",
          "name": "token",
          "type": "address"
        },
        {
          "internalType": "bool",
          "name": "status",
          "type": "bool"
        }
      ],
      "name": "changeAssetStatus",
      "outputs": [],
      "stateMutability": "nonpayable",
      "type": "function"
    },
    {
      "inputs": [
        {
          "internalType": "address",
          "name": "o",
          "type": "address"
        }
      ],
      "name": "changeOwner",
      "outputs": [],
      "stateMutability": "nonpayable",
      "type": "function"
    },
    {
      "inputs": [
        {
          "internalType": "address",
          "name": "token",
          "type": "address"
        }
      ],
      "name": "closeRound",
      "outputs": [],
      "stateMutability": "nonpayable",
      "type": "function"
    },
    {
      "inputs": [],
      "name": "crContract",
      "outputs": [
        {
          "internalType": "address",
          "name": "",
          "type": "address"
        }
      ],
      "stateMutability": "view",
      "type": "function"
    },
    {
      "inputs": [
        {
          "internalType": "string",
          "name": "name",
          "type": "string"
        },
        {
          "internalType": "string",
          "name": "symbol",
          "type": "string"
        },
        {
          "internalType": "address",
          "name": "token",
          "type": "address"
        },
        {
          "internalType": "uint8",
          "name": "decimal",
          "type": "uint8"
        },
        {
          "internalType": "uint104",
          "name": "tokenCap",
          "type": "uint104"
        }
      ],
      "name": "createToken",
      "outputs": [],
      "stateMutability": "nonpayable",
      "type": "function"
    },
    {
      "inputs": [],
      "name": "cruizeProxy",
      "outputs": [
        {
          "internalType": "address",
          "name": "",
          "type": "address"
        }
      ],
      "stateMutability": "view",
      "type": "function"
    },
    {
      "inputs": [
        {
          "internalType": "address",
          "name": "",
          "type": "address"
        }
      ],
      "name": "cruizeTokens",
      "outputs": [
        {
          "internalType": "address",
          "name": "",
          "type": "address"
        }
      ],
      "stateMutability": "view",
      "type": "function"
    },
    {
      "inputs": [
        {
          "internalType": "address",
          "name": "",
          "type": "address"
        }
      ],
      "name": "currentQueuedWithdrawalShares",
      "outputs": [
        {
          "internalType": "uint128",
          "name": "",
          "type": "uint128"
        }
      ],
      "stateMutability": "view",
      "type": "function"
    },
    {
      "inputs": [
        {
          "internalType": "address",
          "name": "token",
          "type": "address"
        },
        {
          "internalType": "uint256",
          "name": "amount",
          "type": "uint256"
        }
      ],
      "name": "deposit",
      "outputs": [],
      "stateMutability": "payable",
      "type": "function"
    },
    {
      "inputs": [
        {
          "internalType": "address",
          "name": "",
          "type": "address"
        },
        {
          "internalType": "address",
          "name": "",
          "type": "address"
        }
      ],
      "name": "depositReceipts",
      "outputs": [
        {
          "internalType": "uint16",
          "name": "round",
          "type": "uint16"
        },
        {
          "internalType": "uint104",
          "name": "amount",
          "type": "uint104"
        },
        {
          "internalType": "uint128",
          "name": "unredeemedShares",
          "type": "uint128"
        },
        {
          "internalType": "uint104",
          "name": "totalDeposit",
          "type": "uint104"
        }
      ],
      "stateMutability": "view",
      "type": "function"
    },
    {
      "inputs": [],
      "name": "feeRecipient",
      "outputs": [
        {
          "internalType": "address",
          "name": "",
          "type": "address"
        }
      ],
      "stateMutability": "view",
      "type": "function"
    },
    {
      "inputs": [],
      "name": "getFeeRecipient",
      "outputs": [
        {
          "internalType": "address",
          "name": "",
          "type": "address"
        }
      ],
      "stateMutability": "view",
      "type": "function"
    },
    {
      "inputs": [],
      "name": "getGuard",
      "outputs": [
        {
          "internalType": "address",
          "name": "_guard",
          "type": "address"
        }
      ],
      "stateMutability": "view",
      "type": "function"
    },
    {
      "inputs": [
        {
          "internalType": "uint256",
          "name": "totalBalanceLocked",
          "type": "uint256"
        },
        {
          "internalType": "uint256",
          "name": "decimal",
          "type": "uint256"
        }
      ],
      "name": "getManagementFee",
      "outputs": [
        {
          "internalType": "uint256",
          "name": "",
          "type": "uint256"
        }
      ],
      "stateMutability": "view",
      "type": "function"
    },
    {
      "inputs": [
        {
          "internalType": "uint256",
          "name": "roundAPY",
          "type": "uint256"
        },
        {
          "internalType": "uint256",
          "name": "decimal",
          "type": "uint256"
        }
      ],
      "name": "getPerformanceFee",
      "outputs": [
        {
          "internalType": "uint256",
          "name": "",
          "type": "uint256"
        }
      ],
      "stateMutability": "view",
      "type": "function"
    },
    {
      "inputs": [],
      "name": "gnosisSafe",
      "outputs": [
        {
          "internalType": "address",
          "name": "",
          "type": "address"
        }
      ],
      "stateMutability": "view",
      "type": "function"
    },
    {
      "inputs": [],
      "name": "guard",
      "outputs": [
        {
          "internalType": "address",
          "name": "",
          "type": "address"
        }
      ],
      "stateMutability": "view",
      "type": "function"
    },
    {
      "inputs": [
        {
          "internalType": "address",
          "name": "token",
          "type": "address"
        },
        {
          "internalType": "uint256",
          "name": "numShares",
          "type": "uint256"
        }
      ],
      "name": "initiateWithdrawal",
      "outputs": [],
      "stateMutability": "nonpayable",
      "type": "function"
    },
    {
      "inputs": [
        {
          "internalType": "address",
          "name": "token",
          "type": "address"
        },
        {
          "internalType": "uint256",
          "name": "amount",
          "type": "uint256"
        }
      ],
      "name": "instantWithdrawal",
      "outputs": [],
      "stateMutability": "nonpayable",
      "type": "function"
    },
    {
      "inputs": [
        {
          "internalType": "address",
          "name": "",
          "type": "address"
        }
      ],
      "name": "isDisable",
      "outputs": [
        {
          "internalType": "bool",
          "name": "",
          "type": "bool"
        }
      ],
      "stateMutability": "view",
      "type": "function"
    },
    {
      "inputs": [],
      "name": "isManagementFeeEnable",
      "outputs": [
        {
          "internalType": "bool",
          "name": "",
          "type": "bool"
        }
      ],
      "stateMutability": "view",
      "type": "function"
    },
    {
      "inputs": [],
      "name": "isPerformanceFeeEnabled",
      "outputs": [
        {
          "internalType": "bool",
          "name": "",
          "type": "bool"
        }
      ],
      "stateMutability": "view",
      "type": "function"
    },
    {
      "inputs": [
        {
          "internalType": "address",
          "name": "",
          "type": "address"
        }
      ],
      "name": "lastQueuedWithdrawAmounts",
      "outputs": [
        {
          "internalType": "uint256",
          "name": "",
          "type": "uint256"
        }
      ],
      "stateMutability": "view",
      "type": "function"
    },
    {
      "inputs": [],
      "name": "managementFee",
      "outputs": [
        {
          "internalType": "uint256",
          "name": "",
          "type": "uint256"
        }
      ],
      "stateMutability": "view",
      "type": "function"
    },
    {
      "inputs": [],
      "name": "module",
      "outputs": [
        {
          "internalType": "address",
          "name": "",
          "type": "address"
        }
      ],
      "stateMutability": "view",
      "type": "function"
    },
    {
      "inputs": [],
      "name": "owner",
      "outputs": [
        {
          "internalType": "address",
          "name": "",
          "type": "address"
        }
      ],
      "stateMutability": "view",
      "type": "function"
    },
    {
      "inputs": [],
      "name": "performanceFee",
      "outputs": [
        {
          "internalType": "uint256",
          "name": "",
          "type": "uint256"
        }
      ],
      "stateMutability": "view",
      "type": "function"
    },
    {
      "inputs": [
        {
          "internalType": "address",
          "name": "token",
          "type": "address"
        }
      ],
      "name": "pricePerShare",
      "outputs": [
        {
          "internalType": "uint256",
          "name": "",
          "type": "uint256"
        }
      ],
      "stateMutability": "view",
      "type": "function"
    },
    {
      "inputs": [],
      "name": "renounceOwnership",
      "outputs": [],
      "stateMutability": "nonpayable",
      "type": "function"
    },
    {
      "inputs": [
        {
          "internalType": "address",
          "name": "",
          "type": "address"
        },
        {
          "internalType": "uint16",
          "name": "",
          "type": "uint16"
        }
      ],
      "name": "roundPricePerShare",
      "outputs": [
        {
          "internalType": "uint256",
          "name": "",
          "type": "uint256"
        }
      ],
      "stateMutability": "view",
      "type": "function"
    },
    {
      "inputs": [
        {
          "internalType": "address",
          "name": "_avatar",
          "type": "address"
        }
      ],
      "name": "setAvatar",
      "outputs": [],
      "stateMutability": "nonpayable",
      "type": "function"
    },
    {
      "inputs": [
        {
          "internalType": "address",
          "name": "token",
          "type": "address"
        },
        {
          "internalType": "uint256",
          "name": "newCap",
          "type": "uint256"
        }
      ],
      "name": "setCap",
      "outputs": [],
      "stateMutability": "nonpayable",
      "type": "function"
    },
    {
      "inputs": [
        {
          "internalType": "address",
          "name": "newFeeRecipient",
          "type": "address"
        }
      ],
      "name": "setFeeRecipient",
      "outputs": [],
      "stateMutability": "nonpayable",
      "type": "function"
    },
    {
      "inputs": [
        {
          "internalType": "bool",
          "name": "_performanceFee",
          "type": "bool"
        },
        {
          "internalType": "bool",
          "name": "_managementFee",
          "type": "bool"
        }
      ],
      "name": "setFeeStatus",
      "outputs": [],
      "stateMutability": "nonpayable",
      "type": "function"
    },
    {
      "inputs": [
        {
          "internalType": "address",
          "name": "_guard",
          "type": "address"
        }
      ],
      "name": "setGuard",
      "outputs": [],
      "stateMutability": "nonpayable",
      "type": "function"
    },
    {
      "inputs": [
        {
          "internalType": "uint256",
          "name": "newManagementFee",
          "type": "uint256"
        }
      ],
      "name": "setManagementFee",
      "outputs": [],
      "stateMutability": "nonpayable",
      "type": "function"
    },
    {
      "inputs": [
        {
          "internalType": "uint256",
          "name": "newPerformanceFee",
          "type": "uint256"
        }
      ],
      "name": "setPerformanceFee",
      "outputs": [],
      "stateMutability": "nonpayable",
      "type": "function"
    },
    {
      "inputs": [
        {
          "internalType": "address",
          "name": "_target",
          "type": "address"
        }
      ],
      "name": "setTarget",
      "outputs": [],
      "stateMutability": "nonpayable",
      "type": "function"
    },
    {
      "inputs": [
        {
          "internalType": "bytes",
          "name": "initializeParams",
          "type": "bytes"
        }
      ],
      "name": "setUp",
      "outputs": [],
      "stateMutability": "nonpayable",
      "type": "function"
    },
    {
      "inputs": [
        {
          "internalType": "address",
          "name": "token",
          "type": "address"
        },
        {
          "internalType": "address",
          "name": "account",
          "type": "address"
        }
      ],
      "name": "shareBalances",
      "outputs": [
        {
          "internalType": "uint256",
          "name": "heldByAccount",
          "type": "uint256"
        },
        {
          "internalType": "uint256",
          "name": "heldByVault",
          "type": "uint256"
        },
        {
          "internalType": "uint256",
          "name": "totalShares",
          "type": "uint256"
        }
      ],
      "stateMutability": "view",
      "type": "function"
    },
    {
      "inputs": [
        {
          "internalType": "address",
          "name": "token",
          "type": "address"
        }
      ],
      "name": "standardWithdrawal",
      "outputs": [],
      "stateMutability": "nonpayable",
      "type": "function"
    },
    {
      "inputs": [],
      "name": "target",
      "outputs": [
        {
          "internalType": "address",
          "name": "",
          "type": "address"
        }
      ],
      "stateMutability": "view",
      "type": "function"
    },
    {
      "inputs": [
        {
          "internalType": "uint256",
          "name": "",
          "type": "uint256"
        }
      ],
      "name": "tokens",
      "outputs": [
        {
          "internalType": "address",
          "name": "",
          "type": "address"
        }
      ],
      "stateMutability": "view",
      "type": "function"
    },
    {
      "inputs": [
        {
          "internalType": "address",
          "name": "token",
          "type": "address"
        }
      ],
      "name": "totalTokenPending",
      "outputs": [
        {
          "internalType": "uint256",
          "name": "",
          "type": "uint256"
        }
      ],
      "stateMutability": "view",
      "type": "function"
    },
    {
      "inputs": [
        {
          "internalType": "address",
          "name": "_paymentToken",
          "type": "address"
        },
        {
          "internalType": "address",
          "name": "_receiver",
          "type": "address"
        },
        {
          "internalType": "address",
          "name": "_cruizeProxy",
          "type": "address"
        },
        {
          "internalType": "uint256",
          "name": "_amount",
          "type": "uint256"
        }
      ],
      "name": "transferFromSafe",
      "outputs": [],
      "stateMutability": "nonpayable",
      "type": "function"
    },
    {
      "inputs": [
        {
          "internalType": "address",
          "name": "newOwner",
          "type": "address"
        }
      ],
      "name": "transferOwnership",
      "outputs": [],
      "stateMutability": "nonpayable",
      "type": "function"
    },
    {
      "inputs": [
        {
          "internalType": "address",
          "name": "",
          "type": "address"
        }
      ],
      "name": "vaults",
      "outputs": [
        {
          "internalType": "uint16",
          "name": "round",
          "type": "uint16"
        },
        {
          "internalType": "uint104",
          "name": "lockedAmount",
          "type": "uint104"
        },
        {
          "internalType": "uint128",
          "name": "totalPending",
          "type": "uint128"
        },
        {
          "internalType": "uint128",
          "name": "queuedWithdrawShares",
          "type": "uint128"
        },
        {
          "internalType": "uint104",
          "name": "cap",
          "type": "uint104"
        }
      ],
      "stateMutability": "view",
      "type": "function"
    },
    {
      "inputs": [
        {
          "internalType": "address",
          "name": "",
          "type": "address"
        },
        {
          "internalType": "address",
          "name": "",
          "type": "address"
        }
      ],
      "name": "withdrawals",
      "outputs": [
        {
          "internalType": "uint16",
          "name": "round",
          "type": "uint16"
        },
        {
          "internalType": "uint128",
          "name": "shares",
          "type": "uint128"
        }
      ],
      "stateMutability": "view",
      "type": "function"
    },
    {
      "stateMutability": "payable",
      "type": "receive"
    }
  ],
  "transactionHash": "0x904dce6ace426a7674a1f0482f9241b2b7ae11ca7d34dcd7e68cc9ac2e4e30d2",
  "args": [],
  "numDeployments": 1,
  "solcInputHash": "be2053777f39d1742dda508d0adbeed5",
  "bytecode": "0x608060405234801561001057600080fd5b506146b8806100206000396000f3fe6080604052600436106103035760003560e01c80638da5cb5b11610190578063c8393ba9116100dc578063e3c6a66511610095578063e7de16701161006f578063e7de167014610ad8578063f2fde38b14610b26578063f7888aec14610b46578063fe56e23214610b6657600080fd5b8063e3c6a66514610a78578063e409e1f814610a98578063e74b981b14610ab857600080fd5b8063c8393ba91461096b578063c91063891461098b578063cad59d16146109a9578063cd47bde1146109c9578063d4b8399214610a38578063e19a9dd914610a5857600080fd5b8063a6f9dae111610149578063b38aaeaa11610123578063b38aaeaa146108bb578063b86d5298146108db578063be4d58c014610900578063c54c8ddc1461093b57600080fd5b8063a6f9dae11461085d578063a84173ae1461087b578063ac8469581461089b57600080fd5b80638da5cb5b1461069f5780639367a8e5146106bd57806397b7ea7d14610763578063a4f9edbf1461077d578063a622ee7c1461079d578063a6f7f5d61461084757600080fd5b8063619954aa1161024f5780637ceab3b1116102085780638322fff2116101e25780638322fff21461061457806386fcf7f61461063c57806387788782146106695780638b46ae5e1461067f57600080fd5b80637ceab3b11461059e5780637f288b26146105be57806380ad2cf3146105f457600080fd5b8063619954aa146104df57806368258f491461050957806370897b2314610529578063715018a614610549578063717edf281461055e578063776d1a011461057e57600080fd5b806324116b99116102bc57806347e7ef241161029657806347e7ef24146104775780634ccb20c01461048a5780634f64b2be1461049f5780635aef7de6146104bf57600080fd5b806324116b99146103ff5780634292a23f14610437578063469048401461045757600080fd5b8063086cfca814610312578063108efa9314610334578063146ad3e814610371578063194ecddb146103915780631c2106a6146103b157806320ae9c5d146103df57600080fd5b3661030d57600080fd5b600080fd5b34801561031e57600080fd5b5061033261032d366004613f62565b610b86565b005b34801561034057600080fd5b50600654610354906001600160a01b031681565b6040516001600160a01b0390911681526020015b60405180910390f35b34801561037d57600080fd5b5061033261038c3660046141ab565b610be0565b34801561039d57600080fd5b506103326103ac366004613f62565b610df4565b3480156103bd57600080fd5b506103d16103cc36600461428d565b610e57565b604051908152602001610368565b3480156103eb57600080fd5b506103d16103fa36600461400e565b610e6f565b34801561040b57600080fd5b506103d161041a3660046140c6565b600f60209081526000928352604080842090915290825290205481565b34801561044357600080fd5b50610332610452366004614144565b61101d565b34801561046357600080fd5b50600054610354906001600160a01b031681565b6103326104853660046140fb565b611045565b34801561049657600080fd5b506103546110e0565b3480156104ab57600080fd5b506103546104ba36600461425b565b6110fa565b3480156104cb57600080fd5b5060a854610354906001600160a01b031681565b3480156104eb57600080fd5b506002546104f99060ff1681565b6040519015158152602001610368565b34801561051557600080fd5b50610332610524366004613f62565b611124565b34801561053557600080fd5b5061033261054436600461425b565b6111aa565b34801561055557600080fd5b50610332611249565b34801561056a57600080fd5b50600754610354906001600160a01b031681565b34801561058a57600080fd5b50610332610599366004613f62565b61125d565b3480156105aa57600080fd5b5060a754610354906001600160a01b031681565b3480156105ca57600080fd5b506103546105d9366004613f62565b6008602052600090815260409020546001600160a01b031681565b34801561060057600080fd5b5061033261060f3660046140fb565b6112b7565b34801561062057600080fd5b5061035473eeeeeeeeeeeeeeeeeeeeeeeeeeeeeeeeeeeeeeee81565b34801561064857600080fd5b506103d1610657366004613f62565b600b6020526000908152604090205481565b34801561067557600080fd5b506103d160015481565b34801561068b57600080fd5b506103d161069a366004613f62565b6113c9565b3480156106ab57600080fd5b506075546001600160a01b0316610354565b3480156106c957600080fd5b506107276106d836600461400e565b600e6020908152600092835260408084209091529082529020805460019091015461ffff8216916201000081046001600160681b0390811692600160781b9092046001600160801b0316911684565b6040805161ffff90951685526001600160681b0393841660208601526001600160801b0390921691840191909152166060820152608001610368565b34801561076f57600080fd5b506004546104f99060ff1681565b34801561078957600080fd5b50610332610798366004614162565b611417565b3480156107a957600080fd5b506108076107b8366004613f62565b600a602052600090815260409020805460019091015461ffff8216916001600160681b036201000082048116926001600160801b03600160781b909304831692811691600160801b9091041685565b6040805161ffff90961686526001600160681b0394851660208701526001600160801b03938416908601529116606084015216608082015260a001610368565b34801561085357600080fd5b506103d160035481565b34801561086957600080fd5b50610332610878366004613f62565b50565b34801561088757600080fd5b50600554610354906001600160a01b031681565b3480156108a757600080fd5b506103d16108b6366004613f62565b61160f565b3480156108c757600080fd5b506103326108d63660046140fb565b611683565b3480156108e757600080fd5b506004546103549061010090046001600160a01b031681565b34801561090c57600080fd5b5061092061091b36600461400e565b6116ed565b60408051938452602084019290925290820152606001610368565b34801561094757600080fd5b506104f9610956366004613f62565b60096020526000908152604090205460ff1681565b34801561097757600080fd5b506103326109863660046140fb565b611878565b34801561099757600080fd5b5060a7546001600160a01b0316610354565b3480156109b557600080fd5b506103326109c4366004614098565b6118d1565b3480156109d557600080fd5b50610a166109e436600461400e565b600d60209081526000928352604080842090915290825290205461ffff8116906201000090046001600160801b031682565b6040805161ffff90931683526001600160801b03909116602083015201610368565b348015610a4457600080fd5b5060a954610354906001600160a01b031681565b348015610a6457600080fd5b50610332610a73366004613f62565b61196c565b348015610a8457600080fd5b50610332610a93366004614047565b611a7d565b348015610aa457600080fd5b506103d1610ab336600461428d565b611b84565b348015610ac457600080fd5b50610332610ad3366004613f62565b611b93565b348015610ae457600080fd5b50610b0e610af3366004613f62565b600c602052600090815260409020546001600160801b031681565b6040516001600160801b039091168152602001610368565b348015610b3257600080fd5b50610332610b41366004613f62565b611bf1565b348015610b5257600080fd5b506103d1610b6136600461400e565b611c67565b348015610b7257600080fd5b50610332610b8136600461425b565b611d76565b610b8e611e40565b60a880546001600160a01b038381166001600160a01b0319831681179093556040519116919082907f52ae88b092de36f87fb43fe794eb1381023b9c1bce563a871154022c63dce34290600090a35050565b6001600160681b03811680610c10576040516302ee6a2560e21b8152600481018290526024015b60405180910390fd5b610c18611e40565b6001600160a01b038481166000908152600860205260409020541615610c5c57604051634af8dd4d60e11b81526001600160a01b0385166004820152602401610c07565b600754600090610c74906001600160a01b0316611e9a565b6001600160a01b038681166000908152600860205260409081902080546001600160a01b031916928416928317905551630b127b6360e11b815291925090631624f6c690610cca908a908a908990600401614360565b600060405180830381600087803b158015610ce457600080fd5b505af1158015610cf8573d6000803e3d6000fd5b505050506001600160a01b0385166000818152600a602052604081208054600161ffff19909116811782559081018054600160801b600160e81b031916600160801b6001600160681b03891602179055601080549182018155918290527f1b6847dc741a1b0cd08d278845f9d819d87b734759afb55fe2de5cb82a9ae6720180546001600160a01b0319169092179091558054610d989082908190613e70565b50816001600160a01b0316866001600160a01b03167f2bb8c305337fc72d58a951859397f8a5a04a46d9cfcb5b57b28b185fb73bcb3e8a8a8989604051610de29493929190614399565b60405180910390a35050505050505050565b610dfc611eec565b6001600160a01b038116600090815260096020526040902054819060ff1615610e4357604051631398937760e11b81526001600160a01b0382166004820152602401610c07565b610e4c82611f46565b50610878600160aa55565b6000610e668383600354612266565b90505b92915050565b6001600160a01b038083166000908152600860205260408120549091849116610eb657604051630188053b60e41b81526001600160a01b0382166004820152602401610c07565b826001600160a01b038116610ee957604051633202e20d60e21b81526001600160a01b0382166004820152602401610c07565b6001600160a01b038085166000908152600e60209081526040808320938916808452938252808320815160808082018452825461ffff80821684526001600160681b03620100008084048216868a01526001600160801b03600160781b948590048116878a015260019788015483166060808901919091529b8b52600a8a52888b20895160a081018b52815495861680825293860485169b81019b909b5294909304831697890197909752919094015493841697860197909752600160801b909204909516908301529091610fbd8961229c565b90506000610fe08361ffff16610fd78c8860000151612354565b879190856123be565b9050600061100282610ffc8d610ff76001896145bf565b612354565b8561242f565b905061100e8982612491565b9b9a5050505050505050505050565b611025611e40565b6002805492151560ff199384161790556004805491151591909216179055565b61104d611eec565b6001600160a01b038216600090815260096020526040902054829060ff161561109457604051631398937760e11b81526001600160a01b0382166004820152602401610c07565b6001600160a01b03831673eeeeeeeeeeeeeeeeeeeeeeeeeeeeeeeeeeeeeeee14156110c7576110c23461249d565b6110d1565b6110d1838361262e565b506110dc600160aa55565b5050565b60006110ea611e40565b506000546001600160a01b031690565b6010818154811061110a57600080fd5b6000918252602090912001546001600160a01b0316905081565b61112c611eec565b611134611e40565b6001600160a01b038116156111515761114c816127b7565b6111a0565b60105460005b818160ff16101561119d5761119560108260ff168154811061117b5761117b614633565b6000918252602090912001546001600160a01b03166127b7565b600101611157565b50505b610878600160aa55565b80806111cc576040516302ee6a2560e21b815260048101829052602401610c07565b6111d4611e40565b6111e7670de0b6b3a76400006064614578565b821115611207576040516358d620b360e01b815260040160405180910390fd5b60015460408051918252602082018490527f24867dfb6fcb9970a07be21024956524abe7a1837faa903ff0e99aaa40cf893e910160405180910390a150600155565b611251611e40565b61125b60006128bb565b565b611265611e40565b60a980546001600160a01b038381166001600160a01b0319831681179093556040519116919082907f90cc2f570a6eb594b1580ea3e41247d2d73a55281889e86bd4ec2fc29c7e62d690600090a35050565b6112bf611e40565b6001600160a01b0380831660009081526008602052604090205483911661130457604051630188053b60e41b81526001600160a01b0382166004820152602401610c07565b8180611326576040516302ee6a2560e21b815260048101829052602401610c07565b61132f8361290d565b6001600160a01b0384166000818152600a602090815260409182902060018101548351600160801b9091046001600160681b0316815291820187905292917f113914a326da83d9b14b874c5cc74c6602b1ef1dc38916f0a4b3f618952f77ab910160405180910390a260010180546001600160681b03909416600160801b02600160801b600160e81b031990941693909317909255505050565b6000610e696113d783612957565b6113e0846129a9565b6001600160a01b0385166000908152600a6020526040902054600160781b90046001600160801b03166114128661229c565b612a27565b604254610100900460ff16158080156114375750604254600160ff909116105b806114515750303b158015611451575060425460ff166001145b6114b45760405162461bcd60e51b815260206004820152602e60248201527f496e697469616c697a61626c653a20636f6e747261637420697320616c72656160448201526d191e481a5b9a5d1a585b1a5e995960921b6064820152608401610c07565b6042805460ff1916600117905580156114d7576042805461ff0019166101001790555b6114df612a67565b6114e7612a96565b6000806000806000806000888060200190518101906115069190613f86565b600580546001600160a01b038089166001600160a01b0319928316179092556007805483891690831617905560008054838b16908316179055600680548388169216919091179055600480546002805460ff19908116600190811790925593871661010002939093166001600160a81b0319909116179091179055959c50939a50919850965094509250905061159b82611d76565b6115a4816111aa565b6115ad87610b86565b6115b68661125d565b6115bf87611bf1565b5050505050505080156110dc576042805461ff0019169055604051600181527f7f26b83ff96e1f2b6a682f133852f6798a09c465da95921460cefb38474024989060200160405180910390a15050565b6001600160a01b03808216600090815260086020526040812054909183911661165657604051630188053b60e41b81526001600160a01b0382166004820152602401610c07565b50506001600160a01b03166000908152600a6020526040902054600160781b90046001600160801b031690565b61168b611eec565b6001600160a01b038216600090815260096020526040902054829060ff16156116d257604051631398937760e11b81526001600160a01b0382166004820152602401610c07565b6116db8261290d565b6110d1836116e884612ac5565b612b32565b6001600160a01b0380831660009081526008602052604081205490918291829186911661173857604051630188053b60e41b81526001600160a01b0382166004820152602401610c07565b846001600160a01b03811661176b57604051633202e20d60e21b81526001600160a01b0382166004820152602401610c07565b6001600160a01b038681166000908152600e60209081526040808320938b168352928152908290208251608081018452815461ffff81168083526201000082046001600160681b0390811695840195909552600160781b9091046001600160801b031694820194909452600191820154909216606083015290911015611804576117f58888611c67565b6000809550955095505061186f565b6001600160a01b0388166000908152600a602052604081205482516118459161ffff1690611833908c90612354565b61183c8c61229c565b859291906123be565b90506118518989611c67565b81611866836118608d8d611c67565b90612491565b96509650965050505b50509250925092565b611880611eec565b6001600160a01b038216600090815260096020526040902054829060ff16156118c757604051631398937760e11b81526001600160a01b0382166004820152602401610c07565b6110d18383612d7a565b6118d9611e40565b816001600160a01b03811661190c57604051633202e20d60e21b81526001600160a01b0382166004820152602401610c07565b6001600160a01b038316600081815260096020908152604091829020805460ff191686151590811790915591519182527f633e1d52330dad07f84c6baea85e346c63aef6d6f8c8fac74eb2933474070913910160405180910390a2505050565b611974611e40565b6001600160a01b03811615611a29576040516301ffc9a760e01b815263736bd41d60e11b60048201526001600160a01b038216906301ffc9a79060240160206040518083038186803b1580156119c957600080fd5b505afa1580156119dd573d6000803e3d6000fd5b505050506040513d601f19601f82011682018060405250810190611a019190614127565b611a29576040516358b7533f60e11b81526001600160a01b0382166004820152602401610c07565b60a780546001600160a01b0319166001600160a01b0383169081179091556040519081527f1151116914515bc0891ff9047a6cb32cf902546f83066499bcf8ba33d2353fa29060200160405180910390a150565b81336001600160a01b03821614611ab85760405163c55ddc9760e01b81523360048201526001600160a01b0382166024820152604401610c07565b611ac0611eec565b6001600160a01b03851673eeeeeeeeeeeeeeeeeeeeeeeeeeeeeeeeeeeeeeee1415611b5f576000846001600160a01b03168360405160006040518083038185875af1925050503d8060008114611b32576040519150601f19603f3d011682016040523d82523d6000602084013e611b37565b606091505b5050905080611b5957604051639d4a106d60e01b815260040160405180910390fd5b50611b73565b611b736001600160a01b038616858461304e565b611b7d600160aa55565b5050505050565b6000610e668383600154612266565b611b9b611e40565b806001600160a01b038116611bce57604051633202e20d60e21b81526001600160a01b0382166004820152602401610c07565b50600080546001600160a01b0319166001600160a01b0392909216919091179055565b611bf9611e40565b6001600160a01b038116611c5e5760405162461bcd60e51b815260206004820152602660248201527f4f776e61626c653a206e6577206f776e657220697320746865207a65726f206160448201526564647265737360d01b6064820152608401610c07565b610878816128bb565b6001600160a01b038083166000908152600860205260408120549091849116611cae57604051630188053b60e41b81526001600160a01b0382166004820152602401610c07565b826001600160a01b038116611ce157604051633202e20d60e21b81526001600160a01b0382166004820152602401610c07565b6001600160a01b03858116600090815260086020526040908190205490516370a0823160e01b815286831660048201529116906370a082319060240160206040518083038186803b158015611d3557600080fd5b505afa158015611d49573d6000803e3d6000fd5b505050506040513d601f19601f82011682018060405250810190611d6d9190614274565b95945050505050565b611d7e611e40565b8080611da0576040516302ee6a2560e21b815260048101829052602401610c07565b611db3670de0b6b3a76400006064614578565b821115611dd3576040516358d620b360e01b815260040160405180910390fd5b6000611dfa6802d3a0a42d42fd9000611df485670de0b6b3a76400006130b1565b906130bd565b60035460408051918252602082018690529192507f4e874b007ab14f7e263baefd44951834c8266f4f224d1092e49e9c254354cc54910160405180910390a16003555050565b6075546001600160a01b0316331461125b5760405162461bcd60e51b815260206004820181905260248201527f4f776e61626c653a2063616c6c6572206973206e6f7420746865206f776e65726044820152606401610c07565b6000808260601b9050604051733d602d80600a3d3981f3363d3d373d3d3d363d7360601b81528160148201526e5af43d82803e903d91602b57fd5bf360881b60288201526037816000f0949350505050565b600260aa541415611f3f5760405162461bcd60e51b815260206004820152601f60248201527f5265656e7472616e637947756172643a207265656e7472616e742063616c6c006044820152606401610c07565b600260aa55565b6001600160a01b03808216600090815260086020526040902054829116611f8b57604051630188053b60e41b81526001600160a01b0382166004820152602401610c07565b336000908152600d602090815260408083206001600160a01b03861684528252808320600a90925282208154919290916001600160801b03620100008204169161ffff90911690611fdb8761229c565b6001600160a01b0388166000908152600a602052604090205490915061ffff16836120195760405163fd9149a960e01b815260040160405180910390fd5b8061ffff168361ffff16141561205057604051632963a7c560e11b815261ffff808516600483015282166024820152604401610c07565b855462010000600160901b03191686556001850154612078906001600160801b0316856130c9565b6001860180546001600160801b0319166001600160801b03929092169190911790556001600160a01b0388166000908152600f6020908152604080832061ffff871684529091528120546120ce9086908561242f565b336000908152600e602090815260408083206001600160a01b038e16845290915290209091506120fd8261290d565b60018101546001600160681b0316821115612129576001810180546001600160681b0319169055612165565b60018101546121429083906001600160681b0316614597565b6001820180546001600160681b0319166001600160681b03929092169190911790555b6001600160a01b038a166000908152600b602052604090205461218890836130c9565b6001600160a01b038b81166000908152600b602090815260408083209490945560089052829020549151632770a7eb60e21b815233600482015260248101899052911690639dc29fac90604401600060405180830381600087803b1580156121ef57600080fd5b505af1158015612203573d6000803e3d6000fd5b505050506122128a33846130d5565b6040518281526001600160a01b038b169033907f5a8ef618c615c5121afbe93f4653c3515e11603aa4f15240e5aaa013f107851c906020015b60405180910390a350505050505050505050565b600160aa55565b6000612294612276846064614578565b611df4670de0b6b3a7640000818861228e888a6130b1565b906130b1565b949350505050565b60006001600160a01b03821673eeeeeeeeeeeeeeeeeeeeeeeeeeeeeeeeeeeeeeee14156122cb57506012919050565b6001600160a01b0380831660009081526008602090815260409182902054825163313ce56760e01b8152925193169263313ce567926004808201939291829003018186803b15801561231c57600080fd5b505afa158015612330573d6000803e3d6000fd5b505050506040513d601f19601f82011682018060405250810190610e699190614274565b6001600160a01b0382166000908152600f6020908152604080832061ffff8516845290915281205461238f5750670de0b6b3a7640000610e69565b506001600160a01b0382166000908152600f6020908152604080832061ffff8516845290915290205492915050565b835160009061ffff16158015906123d95750845161ffff1684115b1561241b5760006123f886602001516001600160681b03168585613212565b6040870151909150612413906001600160801b031682612491565b915050612294565b50505050604001516001600160801b031690565b6000600183116124795760405162461bcd60e51b8152602060048201526015602482015274496e76616c6964206173736574506572536861726560581b6044820152606401610c07565b61229461248783600a6144d0565b611df486866130b1565b6000610e668284614453565b80806124bf576040516302ee6a2560e21b815260048101829052602401610c07565b6124dd73eeeeeeeeeeeeeeeeeeeeeeeeeeeeeeeeeeeeeeee83613275565b73eeeeeeeeeeeeeeeeeeeeeeeeeeeeeeeeeeeeeeee600052600a6020527f3e65e660a0d3d61f62bb0309259c5a3ded6558e90d0e8aff997e553e7b030a7654600554600160801b9091046001600160681b031690612545906001600160a01b03163184612491565b11156125b55773eeeeeeeeeeeeeeeeeeeeeeeeeeeeeeeeeeeeeeee600052600a6020527f3e65e660a0d3d61f62bb0309259c5a3ded6558e90d0e8aff997e553e7b030a765460405163b88f2a8560e01b8152600160801b9091046001600160681b03166004820152602401610c07565b6005546040516000916001600160a01b03169084908381818185875af1925050503d8060008114612602576040519150601f19603f3d011682016040523d82523d6000602084013e612607565b606091505b505090508061262957604051639d4a106d60e01b815260040160405180910390fd5b505050565b6001600160a01b0380831660009081526008602052604090205483911661267357604051630188053b60e41b81526001600160a01b0382166004820152602401610c07565b8180612695576040516302ee6a2560e21b815260048101829052602401610c07565b6001600160a01b038481166000818152600a6020526040908190206001015460055491516370a0823160e01b8152919093166004820152600160801b9092046001600160681b03169161273d9186916370a082319060240160206040518083038186803b15801561270557600080fd5b505afa158015612719573d6000803e3d6000fd5b505050506040513d601f19601f820116820180604052508101906118609190614274565b111561278b576001600160a01b0384166000908152600a60205260409081902060010154905163b88f2a8560e01b8152600160801b9091046001600160681b03166004820152602401610c07565b6127958484613275565b6005546127b1906001600160a01b03868116913391168661355e565b50505050565b6001600160a01b0381166000908152600c6020908152604080832054600b9092528220546001600160801b03909116919081906127f690859085613596565b6001600160a01b0386166000908152600b60209081526040808320849055600a90915281206001810154939550919350909161283b906001600160801b031686612491565b905061284681613868565b6001820180546001600160801b0383166001600160801b0319918216179091556001600160a01b0387166000908152600c602052604090208054909116905561288e8461290d565b5080546001600160681b03909316620100000262010000600160781b031990931692909217909155505050565b607580546001600160a01b038381166001600160a01b0319831681179093556040519116919082907f8be0079c531659141344cd1fd0a4f28419497f9722a3daafe3b4186f6b6457e090600090a35050565b6001600160681b038111156108785760405162461bcd60e51b815260206004820152601060248201526f13dd995c999b1bddc81d5a5b9d0c4c0d60821b6044820152606401610c07565b6001600160a01b0380821660009081526008602090815260408083205481516318160ddd60e01b81529151939416926318160ddd92600480840193919291829003018186803b15801561231c57600080fd5b60006001600160a01b03821673eeeeeeeeeeeeeeeeeeeeeeeeeeeeeeeeeeeeeeee14156129e25750506005546001600160a01b03163190565b6005546040516370a0823160e01b81526001600160a01b039182166004820152908316906370a082319060240160206040518083038186803b15801561231c57600080fd5b600080612a3583600a6144d0565b905060008611612a455780612a5d565b612a5d86611df4612a5688886130c9565b84906130b1565b9695505050505050565b604254610100900460ff16612a8e5760405162461bcd60e51b8152600401610c07906143e2565b61125b6138b2565b604254610100900460ff16612abd5760405162461bcd60e51b8152600401610c07906143e2565b61125b6138e2565b60006001600160681b03821115612b2e5760405162461bcd60e51b815260206004820152602760248201527f53616665436173743a2076616c756520646f65736e27742066697420696e20316044820152663034206269747360c81b6064820152608401610c07565b5090565b6001600160a01b03808316600090815260086020526040902054839116612b7757604051630188053b60e41b81526001600160a01b0382166004820152602401610c07565b6001600160681b03821680612ba2576040516302ee6a2560e21b815260048101829052602401610c07565b336000908152600e602090815260408083206001600160a01b03881684528252808320600a9092529091208054825461ffff9182169116808214612c0757604051632963a7c560e11b815261ffff808316600483015283166024820152604401610c07565b83546001600160681b03620100009091048116908816811015612c4f576040516319b9b33960e31b8152600481018290526001600160681b0389166024820152604401610c07565b612c61886001600160681b031661290d565b612c74816001600160681b038a166130c9565b855462010000600160781b031916620100006001600160681b03928316021786556001860154612ca6918a9116614597565b6001860180546001600160681b0319166001600160681b039283161790558454612ce391600160781b9091046001600160801b0316908a166130c9565b84546001600160801b0391909116600160781b02600160781b600160f81b0319909116178455612d1d89336001600160681b038b166130d5565b604080516001600160681b038a16815261ffff851660208201526001600160a01b038b169133917f8dda9b4ee6f22899748425b372667196fbbe2eb03059e0ff8643fcb7765549ef910160405180910390a3505050505050505050565b6001600160a01b03808316600090815260086020526040902054839116612dbf57604051630188053b60e41b81526001600160a01b0382166004820152602401610c07565b8180612de1576040516302ee6a2560e21b815260048101829052602401610c07565b6001600160a01b0384166000818152600a6020908152604080832054338452600e835281842085855283528184208251608081018452815461ffff80821683526201000082046001600160681b0390811684890152600160781b9092046001600160801b031683870152600190930154166060820152958552600f8452828520865182168652909352908320549116929190612e8290849061183c8a61229c565b905080861115612eaf5760405163306f6e1960e11b81526004810182905260248101879052604401610c07565b600082602001516001600160681b03161180612ed85750600082604001516001600160801b0316115b15612eea57612eea8783888487613909565b336000908152600d602090815260408083206001600160a01b038b16845290915281208054909161ffff86811690831614916201000090046001600160801b0316908215612f4357612f3c828b612491565b9050612f77565b8115612f655760405163af12574160e01b815260048101839052602401610c07565b50825461ffff191661ffff8716178355885b612f8081613868565b83546001600160801b03808316620100000262010000600160901b03199092169190911785556001600160a01b038c166000908152600c6020526040902054612fd391612fce91168c612491565b6139c3565b6001600160a01b038c166000818152600c602090815260409182902080546001600160801b0319166001600160801b039590951694909417909355518c8152909133917f0d9825b9d0727eac03dd1f1d6f3f63f66f3f7fc2f580ddbfdc1f735b37ed20df910160405180910390a35050505050505050505050565b6040516001600160a01b03831660248201526044810182905261262990849063a9059cbb60e01b906064015b60408051601f198184030181529190526020810180516001600160e01b03166001600160e01b031990931692909217909152613a2c565b6000610e668284614578565b6000610e66828461446b565b6000610e6682846145da565b6006546040516001600160a01b038086166024830152808516604483015290911660648201526084810182905260009060a40160408051601f198184030181529181526020820180516001600160e01b031663e3c6a66560e01b17905260055460048054925163468721a760e01b81529394506001600160a01b039182169363468721a7936131749361010090910416916000918791600191016142f7565b602060405180830381600087803b15801561318e57600080fd5b505af11580156131a2573d6000803e3d6000fd5b505050506040513d601f19601f820116820180604052508101906131c69190614127565b6127b15760405162461bcd60e51b815260206004820152601860248201527f6661696c656420746f207472616e736665722066756e647300000000000000006044820152606401610c07565b60006001831161325c5760405162461bcd60e51b8152602060048201526015602482015274496e76616c6964206173736574506572536861726560581b6044820152606401610c07565b61229483611df461326e85600a6144d0565b87906130b1565b6001600160a01b0382166000908152600a602052604081208054909161ffff909116906132a18561229c565b336000908152600e602090815260408083206001600160a01b038a168085529083528184208251608081018452815461ffff80821683526201000082046001600160681b0390811684890152600160781b9092046001600160801b031683870152600190930154166060820152918552600f8452828520825182168652909352908320549394509261333991849190871690866123be565b8251909150869061ffff8681169116141561336d576020830151600090613369906001600160681b031689612491565b9150505b6060830151600090613388906001600160681b031689612491565b905060405180608001604052808761ffff168152602001836001600160681b03168152602001846001600160801b03168152602001826001600160681b0316815250600e6000336001600160a01b03166001600160a01b0316815260200190815260200160002060008b6001600160a01b03166001600160a01b0316815260200190815260200160002060008201518160000160006101000a81548161ffff021916908361ffff16021790555060208201518160000160026101000a8154816001600160681b0302191690836001600160681b03160217905550604082015181600001600f6101000a8154816001600160801b0302191690836001600160801b0316021790555060608201518160010160006101000a8154816001600160681b0302191690836001600160681b0316021790555090505060006134f48989600001600f9054906101000a90046001600160801b03166001600160801b031661249190919063ffffffff16565b90506134ff81613868565b8754600160781b600160f81b031916600160781b6001600160801b038316021788556040518981526001600160a01b038b169033907fe31c7b8d08ee7db0afa68782e1028ef92305caeea8626633ad44d413e30f6b2f9060200161224b565b6040516001600160a01b03808516602483015283166044820152606481018290526127b19085906323b872dd60e01b9060840161307a565b6001600160a01b03808416600090815260086020526040812054909182918691166135df57604051630188053b60e41b81526001600160a01b0382166004820152602401610c07565b6001600160a01b0386166000908152600a6020526040808220815160a0810190925282918290613645908b90806136158361229c565b81526020016136238e6129a9565b81526020016136318e612957565b81526020018c81526020018b815250613afe565b809750819850829550839a50849b50505050505060008260000160009054906101000a900461ffff16905081600f60008d6001600160a01b03166001600160a01b0316815260200190815260200160002060008361ffff1661ffff16815260200190815260200160002081905550600083600001600f6101000a8154816001600160801b0302191690836001600160801b031602179055508060016136ea919061442d565b835461ffff191661ffff919091161783556001600160a01b038b166000908152600f60205260408120600191613720848461442d565b61ffff16815260208082019290925260409081016000908120939093556001600160a01b038e811684526008909252918290205491516340c10f1960e01b8152306004820152602481018890529116906340c10f1990604401600060405180830381600087803b15801561379357600080fd5b505af11580156137a7573d6000803e3d6000fd5b505050506000841115613810576000546137cc908c906001600160a01b0316866130d5565b8a6001600160a01b03167f2057011bdf5b1ba089ee23fec4fc3df7cb7f231730f4452940200510e1734f2d8560405161380791815260200190565b60405180910390a25b60408051838152602081018a905261ffff8316916001600160a01b038e16917fc8d6fd2b6502d24b631c5d0bb16ece6e2864469d00c75491e60fc0aba60ca65c910160405180910390a3505050505050935093915050565b6001600160801b038111156108785760405162461bcd60e51b815260206004820152601060248201526f09eeccae4ccd8deee40ead2dce86264760831b6044820152606401610c07565b604254610100900460ff166138d95760405162461bcd60e51b8152600401610c07906143e2565b61125b336128bb565b604254610100900460ff1661225f5760405162461bcd60e51b8152600401610c07906143e2565b835161ffff8083169116101561394d57336000908152600e602090815260408083206001600160a01b03891684529091529020805462010000600160781b03191690555b61395683613868565b61396082846130c9565b336000818152600e602090815260408083206001600160a01b038b8116855290835281842080546001600160801b0397909716600160781b02600160781b600160f81b0319909716969096179095556008909152902054611b7d9216908561304e565b60006001600160801b03821115612b2e5760405162461bcd60e51b815260206004820152602760248201527f53616665436173743a2076616c756520646f65736e27742066697420696e20316044820152663238206269747360c81b6064820152608401610c07565b6000613a81826040518060400160405280602081526020017f5361666545524332303a206c6f772d6c6576656c2063616c6c206661696c6564815250856001600160a01b0316613c399092919063ffffffff16565b8051909150156126295780806020019051810190613a9f9190614127565b6126295760405162461bcd60e51b815260206004820152602a60248201527f5361666545524332303a204552433230206f7065726174696f6e20646964206e6044820152691bdd081cdd58d8d9595960b21b6064820152608401610c07565b6001600160a01b0382166000908152600a60209081526040808320815160a081018352815461ffff811682526001600160681b0362010000820481168387018190526001600160801b03600160781b90930483169584018690526001909401549182166060808501829052600160801b909304909116608084015294870151908701518695869586958695949391929091613ba7908d90613ba09087906130c9565b8585613c48565b9550613bb384876130c9565b9350613be8613bcf828d604001516130c990919063ffffffff16565b60608d0151613bdf9087906130c9565b8d518690612a27565b9750613c0b613c008c608001518a8e6000015161242f565b60608d015190612491565b9850613c1c83898d60000151613212565b9650613c28848a6130c9565b995050505050509295509295909350565b60606122948484600085613cfa565b600080838511613c59576000613c63565b613c6385856130c9565b90506000806000613c738961229c565b613c7e90600a6144d0565b905085841115613ce35760025460ff1615613cba57600060015411613ca4576000613cb7565b613cb7613cb185886130c9565b82611b84565b92505b60045460ff1615613ce357600060035411613cd6576000613ce0565b613ce08482610e57565b91505b613ced8383612491565b9998505050505050505050565b606082471015613d5b5760405162461bcd60e51b815260206004820152602660248201527f416464726573733a20696e73756666696369656e742062616c616e636520666f6044820152651c8818d85b1b60d21b6064820152608401610c07565b600080866001600160a01b03168587604051613d7791906142db565b60006040518083038185875af1925050503d8060008114613db4576040519150601f19603f3d011682016040523d82523d6000602084013e613db9565b606091505b5091509150613dca87838387613dd5565b979650505050505050565b60608315613e41578251613e3a576001600160a01b0385163b613e3a5760405162461bcd60e51b815260206004820152601d60248201527f416464726573733a2063616c6c20746f206e6f6e2d636f6e74726163740000006044820152606401610c07565b5081612294565b6122948383815115613e565781518083602001fd5b8060405162461bcd60e51b8152600401610c07919061434d565b828054828255906000526020600020908101928215613eb05760005260206000209182015b82811115613eb0578254825591600101919060010190613e95565b50612b2e9291505b80821115612b2e5760008155600101613eb8565b600067ffffffffffffffff80841115613ee757613ee7614649565b604051601f8501601f19908116603f01168101908282118183101715613f0f57613f0f614649565b81604052809350858152868686011115613f2857600080fd5b858560208301376000602087830101525050509392505050565b600082601f830112613f5357600080fd5b610e6683833560208501613ecc565b600060208284031215613f7457600080fd5b8135613f7f8161465f565b9392505050565b600080600080600080600060e0888a031215613fa157600080fd5b8751613fac8161465f565b6020890151909750613fbd8161465f565b6040890151909650613fce8161465f565b6060890151909550613fdf8161465f565b6080890151909450613ff08161465f565b8093505060a0880151915060c0880151905092959891949750929550565b6000806040838503121561402157600080fd5b823561402c8161465f565b9150602083013561403c8161465f565b809150509250929050565b6000806000806080858703121561405d57600080fd5b84356140688161465f565b935060208501356140788161465f565b925060408501356140888161465f565b9396929550929360600135925050565b600080604083850312156140ab57600080fd5b82356140b68161465f565b9150602083013561403c81614674565b600080604083850312156140d957600080fd5b82356140e48161465f565b9150602083013561ffff8116811461403c57600080fd5b6000806040838503121561410e57600080fd5b82356141198161465f565b946020939093013593505050565b60006020828403121561413957600080fd5b8151613f7f81614674565b6000806040838503121561415757600080fd5b82356140b681614674565b60006020828403121561417457600080fd5b813567ffffffffffffffff81111561418b57600080fd5b8201601f8101841361419c57600080fd5b61229484823560208401613ecc565b600080600080600060a086880312156141c357600080fd5b853567ffffffffffffffff808211156141db57600080fd5b6141e789838a01613f42565b965060208801359150808211156141fd57600080fd5b5061420a88828901613f42565b945050604086013561421b8161465f565b9250606086013560ff8116811461423157600080fd5b915060808601356001600160681b038116811461424d57600080fd5b809150509295509295909350565b60006020828403121561426d57600080fd5b5035919050565b60006020828403121561428657600080fd5b5051919050565b600080604083850312156142a057600080fd5b50508035926020909101359150565b600081518084526142c78160208601602086016145f1565b601f01601f19169290920160200192915050565b600082516142ed8184602087016145f1565b9190910192915050565b60018060a01b038516815283602082015260806040820152600061431e60808301856142af565b90506002831061433e57634e487b7160e01b600052602160045260246000fd5b82606083015295945050505050565b602081526000610e6660208301846142af565b60608152600061437360608301866142af565b828103602084015261438581866142af565b91505060ff83166040830152949350505050565b6080815260006143ac60808301876142af565b82810360208401526143be81876142af565b91505060ff841660408301526001600160681b038316606083015295945050505050565b6020808252602b908201527f496e697469616c697a61626c653a20636f6e7472616374206973206e6f74206960408201526a6e697469616c697a696e6760a81b606082015260800190565b600061ffff80831681851680830382111561444a5761444a61461d565b01949350505050565b600082198211156144665761446661461d565b500190565b60008261448857634e487b7160e01b600052601260045260246000fd5b500490565b600181815b808511156144c85781600019048211156144ae576144ae61461d565b808516156144bb57918102915b93841c9390800290614492565b509250929050565b6000610e6683836000826144e657506001610e69565b816144f357506000610e69565b816001811461450957600281146145135761452f565b6001915050610e69565b60ff8411156145245761452461461d565b50506001821b610e69565b5060208310610133831016604e8410600b8410161715614552575081810a610e69565b61455c838361448d565b80600019048211156145705761457061461d565b029392505050565b60008160001904831182151516156145925761459261461d565b500290565b60006001600160681b03838116908316818110156145b7576145b761461d565b039392505050565b600061ffff838116908316818110156145b7576145b761461d565b6000828210156145ec576145ec61461d565b500390565b60005b8381101561460c5781810151838201526020016145f4565b838111156127b15750506000910152565b634e487b7160e01b600052601160045260246000fd5b634e487b7160e01b600052603260045260246000fd5b634e487b7160e01b600052604160045260246000fd5b6001600160a01b038116811461087857600080fd5b801515811461087857600080fdfea2646970667358221220a35a4168e0c18d3b2c4ca6b92a9a7f0462bf8fd041c1325ee4a782cd872f72f164736f6c63430008060033",
  "devdoc": {
    "kind": "dev",
    "methods": {
      "changeAssetStatus(address,bool)": {
        "params": {
          "status": "enable/disable status of asset",
          "token": "asset address"
        }
      },
      "createToken(string,string,address,uint8,uint104)": {
        "params": {
          "decimal": "decimal value of crtoken.",
          "name": "name of crtoken  .",
          "symbol": "symbol of crtoken ."
        }
      },
      "deposit(address,uint256)": {
        "params": {
          "amount": "user depositing amount.",
          "token": "depositing token address."
        }
      },
      "initiateWithdrawal(address,uint256)": {
        "params": {
          "numShares": "is the number of shares to withdraw",
          "token": "withdrawal `asset` address."
        }
      },
      "instantWithdrawal(address,uint256)": {
        "params": {
          "amount": "is the amount to withdraw.",
          "token": "withdrawal `asset` address."
        }
      },
      "owner()": {
        "details": "Returns the address of the current owner."
      },
      "renounceOwnership()": {
        "details": "Leaves the contract without owner. It will not be possible to call `onlyOwner` functions anymore. Can only be called by the current owner. NOTE: Renouncing ownership will leave the contract without an owner, thereby removing any functionality that is only available to the owner."
      },
      "setAvatar(address)": {
        "details": "Sets the avatar to a new avatar (`newAvatar`)."
      },
      "setCap(address,uint256)": {
        "params": {
          "newCap": "is the new cap for deposits.",
          "token": "is the address for which we have to set new cap."
        }
      },
      "setFeeRecipient(address)": {
        "params": {
          "newFeeRecipient": "is the address of the new feeRecipient_."
        }
      },
      "setFeeStatus(bool,bool)": {
        "params": {
          "_managementFee": "is the management fee status",
          "_performanceFee": "is the performance fee status"
        }
      },
      "setGuard(address)": {
        "details": "Set a guard that checks transactions before execution.",
        "params": {
          "_guard": "The address of the guard to be used or the 0 address to disable the guard."
        }
      },
      "setManagementFee(uint256)": {
        "params": {
          "newManagementFee": "is the management fee (18 decimals). ex: 2 * 10 ** 18 = 2%"
        }
      },
      "setPerformanceFee(uint256)": {
        "params": {
          "newPerformanceFee": "is the performance fee (18 decimals). ex: 20 * 10 ** 18 = 20%"
        }
      },
      "setTarget(address)": {
        "details": "Sets the target to a new target (`newTarget`)."
      },
      "setUp(bytes)": {
        "details": "Initialize function, will be triggered when a new Cruize contract deployed.",
        "params": {
          "initializeParams": "Parameters of initialization encoded."
        }
      },
      "shareBalances(address,address)": {
        "params": {
          "account": "is the account to lookup share balance for.",
          "token": "is the `asset` address for which shares are calculating."
        },
        "returns": {
          "heldByAccount": "is the shares held by account.",
          "heldByVault": "is the shares held on the vault (unredeemedShares)."
        }
      },
      "standardWithdrawal(address)": {
        "params": {
          "token": "depositing token address."
        }
      },
      "transferFromSafe(address,address,address,uint256)": {
        "params": {
          "_amount": "the transfer amount",
          "_paymentToken": "withdrawal token address.",
          "_receiver": "is the receiving address."
        }
      },
      "transferOwnership(address)": {
        "details": "Transfers ownership of the contract to a new account (`newOwner`). Can only be called by the current owner."
      }
    },
    "version": 1
  },
  "userdoc": {
    "errors": {
      "NotIERC165Compliant(address)": [
        {
          "notice": "`guard_` does not implement IERC165."
        }
      ]
    },
    "kind": "user",
    "methods": {
      "ETH()": {
        "notice": "ETH 0xEeeeeEeeeEeEeeEeEeEeeEEEeeeeEeeeeeeeEEeE"
      },
      "balanceOf(address,address)": {
        "notice": "Returns the `asset` balance."
      },
      "changeAssetStatus(address,bool)": {
        "notice": "Enable or Disable the asset status, so cruize can stop/resume token operations"
      },
      "crContract()": {
        "notice": "crContract address that will be used to create new crcontract clone"
      },
      "createToken(string,string,address,uint8,uint104)": {
        "notice": "createToken will Clone CRTokenUpgradeable (ERC20 token)."
      },
      "cruizeProxy()": {
        "notice": "gnosis safe address where all the fund will be locked"
      },
      "cruizeTokens(address)": {
        "notice": "crtokens mint for user's share's"
      },
      "currentQueuedWithdrawalShares(address)": {
        "notice": "Queued withdraw shares for the current round"
      },
      "deposit(address,uint256)": {
        "notice": "This function will be use for depositing assets."
      },
      "depositReceipts(address,address)": {
        "notice": "Stores the user's pending deposit for the round"
      },
      "feeRecipient()": {
        "notice": "Fee recipient for the management fees"
      },
      "getFeeRecipient()": {
        "notice": "Returns the vault feeRecipient."
      },
      "getManagementFee(uint256,uint256)": {
        "notice": "Returns the vault managementFee."
      },
      "getPerformanceFee(uint256,uint256)": {
        "notice": "Returns the vault performanceFee."
      },
      "gnosisSafe()": {
        "notice": "gnosis safe address where all the fund will be locked"
      },
      "initiateWithdrawal(address,uint256)": {
        "notice": "Initiates a withdrawal that can be processed once the round completes"
      },
      "instantWithdrawal(address,uint256)": {
        "notice": "Withdraws the assets on the vault using the outstanding `DepositReceipt.amount`"
      },
      "isDisable(address)": {
        "notice": "Enable/Disable tokens"
      },
      "lastQueuedWithdrawAmounts(address)": {
        "notice": "Queued withdrawal amount in the last round"
      },
      "managementFee()": {
        "notice": "Management fee charged on entire AUM in rollToNextOption. Only charged when there is no loss."
      },
      "module()": {
        "notice": "role in charge of weekly vault operations such as transfer fund and burn tokens"
      },
      "performanceFee()": {
        "notice": "Performance fee charged on premiums earned in rollToNextOption. Only charged when there is no loss."
      },
      "roundPricePerShare(address,uint16)": {
        "notice": "On every round's close, the pricePerShare value of an crToken token is stored This is used to determine the number of shares to be returned to a user with their DepositReceipt.depositAmount"
      },
      "setAvatar(address)": {
        "notice": "Can only be called by the current owner."
      },
      "setCap(address,uint256)": {
        "notice": "Sets a new cap for deposits."
      },
      "setFeeRecipient(address)": {
        "notice": "Sets the new newFeeRecipient_."
      },
      "setFeeStatus(bool,bool)": {
        "notice": "Sets the management/performance fee status enable/disable."
      },
      "setManagementFee(uint256)": {
        "notice": "Sets the management fee for the rounds."
      },
      "setPerformanceFee(uint256)": {
        "notice": "Sets the performance fee for the vault"
      },
      "setTarget(address)": {
        "notice": "Can only be called by the current owner."
      },
      "setUp(bytes)": {
        "notice": "Initializes the gnosis Module contract with storage variables."
      },
      "shareBalances(address,address)": {
        "notice": "Getter for returning the account's share balance split between account and vault holdings"
      },
      "standardWithdrawal(address)": {
        "notice": "Completes a scheduled withdrawal from a past round. Uses finalized pps for the round"
      },
      "totalTokenPending(address)": {
        "notice": "Returns the vault total pending."
      },
      "transferFromSafe(address,address,address,uint256)": {
        "notice": "Main function to make delegatecall on Gnosis Safe to transfer either an ETH transfer or ERC20 transfer."
      },
      "vaults(address)": {
        "notice": "Stores vaults state for every round"
      },
      "withdrawals(address,address)": {
        "notice": "Stores pending user withdrawals"
      }
    },
    "version": 1
  },
  "storageLayout": {
    "storage": [
      {
        "astId": 9194,
        "contract": "contracts/Cruize.sol:Cruize",
        "label": "feeRecipient",
        "offset": 0,
        "slot": "0",
        "type": "t_address"
      },
      {
        "astId": 9197,
        "contract": "contracts/Cruize.sol:Cruize",
        "label": "performanceFee",
        "offset": 0,
        "slot": "1",
        "type": "t_uint256"
      },
      {
        "astId": 9199,
        "contract": "contracts/Cruize.sol:Cruize",
        "label": "isPerformanceFeeEnabled",
        "offset": 0,
        "slot": "2",
        "type": "t_bool"
      },
      {
        "astId": 9202,
        "contract": "contracts/Cruize.sol:Cruize",
        "label": "managementFee",
        "offset": 0,
        "slot": "3",
        "type": "t_uint256"
      },
      {
        "astId": 9204,
        "contract": "contracts/Cruize.sol:Cruize",
        "label": "isManagementFeeEnable",
        "offset": 0,
        "slot": "4",
        "type": "t_bool"
      },
      {
        "astId": 9207,
        "contract": "contracts/Cruize.sol:Cruize",
        "label": "module",
        "offset": 1,
        "slot": "4",
        "type": "t_address"
      },
      {
        "astId": 9210,
        "contract": "contracts/Cruize.sol:Cruize",
        "label": "gnosisSafe",
        "offset": 0,
        "slot": "5",
        "type": "t_address"
      },
      {
        "astId": 9213,
        "contract": "contracts/Cruize.sol:Cruize",
        "label": "cruizeProxy",
        "offset": 0,
        "slot": "6",
        "type": "t_address"
      },
      {
        "astId": 9216,
        "contract": "contracts/Cruize.sol:Cruize",
        "label": "crContract",
        "offset": 0,
        "slot": "7",
        "type": "t_address"
      },
      {
        "astId": 9233,
        "contract": "contracts/Cruize.sol:Cruize",
        "label": "cruizeTokens",
        "offset": 0,
        "slot": "8",
        "type": "t_mapping(t_address,t_address)"
      },
      {
        "astId": 9238,
        "contract": "contracts/Cruize.sol:Cruize",
        "label": "isDisable",
        "offset": 0,
        "slot": "9",
        "type": "t_mapping(t_address,t_bool)"
      },
      {
        "astId": 9244,
        "contract": "contracts/Cruize.sol:Cruize",
        "label": "vaults",
        "offset": 0,
        "slot": "10",
        "type": "t_mapping(t_address,t_struct(VaultState)9101_storage)"
      },
      {
        "astId": 9249,
        "contract": "contracts/Cruize.sol:Cruize",
        "label": "lastQueuedWithdrawAmounts",
        "offset": 0,
        "slot": "11",
        "type": "t_mapping(t_address,t_uint256)"
      },
      {
        "astId": 9254,
        "contract": "contracts/Cruize.sol:Cruize",
        "label": "currentQueuedWithdrawalShares",
        "offset": 0,
        "slot": "12",
        "type": "t_mapping(t_address,t_uint128)"
      },
      {
        "astId": 9262,
        "contract": "contracts/Cruize.sol:Cruize",
        "label": "withdrawals",
        "offset": 0,
        "slot": "13",
        "type": "t_mapping(t_address,t_mapping(t_address,t_struct(Withdrawal)9115_storage))"
      },
      {
        "astId": 9270,
        "contract": "contracts/Cruize.sol:Cruize",
        "label": "depositReceipts",
        "offset": 0,
        "slot": "14",
        "type": "t_mapping(t_address,t_mapping(t_address,t_struct(DepositReceipt)9110_storage))"
      },
      {
        "astId": 9277,
        "contract": "contracts/Cruize.sol:Cruize",
        "label": "roundPricePerShare",
        "offset": 0,
        "slot": "15",
        "type": "t_mapping(t_address,t_mapping(t_uint16,t_uint256))"
      },
      {
        "astId": 9281,
        "contract": "contracts/Cruize.sol:Cruize",
        "label": "tokens",
        "offset": 0,
        "slot": "16",
        "type": "t_array(t_address)dyn_storage"
      },
      {
        "astId": 9285,
        "contract": "contracts/Cruize.sol:Cruize",
        "label": "__cruize_gap",
        "offset": 0,
        "slot": "17",
        "type": "t_array(t_uint256)49_storage"
      },
      {
        "astId": 661,
        "contract": "contracts/Cruize.sol:Cruize",
        "label": "_initialized",
        "offset": 0,
        "slot": "66",
        "type": "t_uint8"
      },
      {
        "astId": 664,
        "contract": "contracts/Cruize.sol:Cruize",
        "label": "_initializing",
        "offset": 1,
        "slot": "66",
        "type": "t_bool"
      },
      {
        "astId": 1936,
        "contract": "contracts/Cruize.sol:Cruize",
        "label": "__gap",
        "offset": 0,
        "slot": "67",
        "type": "t_array(t_uint256)50_storage"
      },
      {
        "astId": 533,
        "contract": "contracts/Cruize.sol:Cruize",
        "label": "_owner",
        "offset": 0,
        "slot": "117",
        "type": "t_address"
      },
      {
        "astId": 653,
        "contract": "contracts/Cruize.sol:Cruize",
        "label": "__gap",
        "offset": 0,
        "slot": "118",
        "type": "t_array(t_uint256)49_storage"
      },
      {
        "astId": 340,
        "contract": "contracts/Cruize.sol:Cruize",
        "label": "guard",
        "offset": 0,
        "slot": "167",
        "type": "t_address"
      },
      {
        "astId": 18,
        "contract": "contracts/Cruize.sol:Cruize",
        "label": "avatar",
        "offset": 0,
        "slot": "168",
        "type": "t_address"
      },
      {
        "astId": 21,
        "contract": "contracts/Cruize.sol:Cruize",
        "label": "target",
        "offset": 0,
        "slot": "169",
        "type": "t_address"
      },
      {
        "astId": 837,
        "contract": "contracts/Cruize.sol:Cruize",
        "label": "_status",
        "offset": 0,
        "slot": "170",
        "type": "t_uint256"
      },
      {
        "astId": 895,
        "contract": "contracts/Cruize.sol:Cruize",
        "label": "__gap",
        "offset": 0,
        "slot": "171",
        "type": "t_array(t_uint256)49_storage"
      }
    ],
    "types": {
      "t_address": {
        "encoding": "inplace",
        "label": "address",
        "numberOfBytes": "20"
      },
      "t_array(t_address)dyn_storage": {
        "base": "t_address",
        "encoding": "dynamic_array",
        "label": "address[]",
        "numberOfBytes": "32"
      },
      "t_array(t_uint256)49_storage": {
        "base": "t_uint256",
        "encoding": "inplace",
        "label": "uint256[49]",
        "numberOfBytes": "1568"
      },
      "t_array(t_uint256)50_storage": {
        "base": "t_uint256",
        "encoding": "inplace",
        "label": "uint256[50]",
        "numberOfBytes": "1600"
      },
      "t_bool": {
        "encoding": "inplace",
        "label": "bool",
        "numberOfBytes": "1"
      },
      "t_mapping(t_address,t_address)": {
        "encoding": "mapping",
        "key": "t_address",
        "label": "mapping(address => address)",
        "numberOfBytes": "32",
        "value": "t_address"
      },
      "t_mapping(t_address,t_bool)": {
        "encoding": "mapping",
        "key": "t_address",
        "label": "mapping(address => bool)",
        "numberOfBytes": "32",
        "value": "t_bool"
      },
      "t_mapping(t_address,t_mapping(t_address,t_struct(DepositReceipt)9110_storage))": {
        "encoding": "mapping",
        "key": "t_address",
        "label": "mapping(address => mapping(address => struct Types.DepositReceipt))",
        "numberOfBytes": "32",
        "value": "t_mapping(t_address,t_struct(DepositReceipt)9110_storage)"
      },
      "t_mapping(t_address,t_mapping(t_address,t_struct(Withdrawal)9115_storage))": {
        "encoding": "mapping",
        "key": "t_address",
        "label": "mapping(address => mapping(address => struct Types.Withdrawal))",
        "numberOfBytes": "32",
        "value": "t_mapping(t_address,t_struct(Withdrawal)9115_storage)"
      },
      "t_mapping(t_address,t_mapping(t_uint16,t_uint256))": {
        "encoding": "mapping",
        "key": "t_address",
        "label": "mapping(address => mapping(uint16 => uint256))",
        "numberOfBytes": "32",
        "value": "t_mapping(t_uint16,t_uint256)"
      },
      "t_mapping(t_address,t_struct(DepositReceipt)9110_storage)": {
        "encoding": "mapping",
        "key": "t_address",
        "label": "mapping(address => struct Types.DepositReceipt)",
        "numberOfBytes": "32",
        "value": "t_struct(DepositReceipt)9110_storage"
      },
      "t_mapping(t_address,t_struct(VaultState)9101_storage)": {
        "encoding": "mapping",
        "key": "t_address",
        "label": "mapping(address => struct Types.VaultState)",
        "numberOfBytes": "32",
        "value": "t_struct(VaultState)9101_storage"
      },
      "t_mapping(t_address,t_struct(Withdrawal)9115_storage)": {
        "encoding": "mapping",
        "key": "t_address",
        "label": "mapping(address => struct Types.Withdrawal)",
        "numberOfBytes": "32",
        "value": "t_struct(Withdrawal)9115_storage"
      },
      "t_mapping(t_address,t_uint128)": {
        "encoding": "mapping",
        "key": "t_address",
        "label": "mapping(address => uint128)",
        "numberOfBytes": "32",
        "value": "t_uint128"
      },
      "t_mapping(t_address,t_uint256)": {
        "encoding": "mapping",
        "key": "t_address",
        "label": "mapping(address => uint256)",
        "numberOfBytes": "32",
        "value": "t_uint256"
      },
      "t_mapping(t_uint16,t_uint256)": {
        "encoding": "mapping",
        "key": "t_uint16",
        "label": "mapping(uint16 => uint256)",
        "numberOfBytes": "32",
        "value": "t_uint256"
      },
      "t_struct(DepositReceipt)9110_storage": {
        "encoding": "inplace",
        "label": "struct Types.DepositReceipt",
        "members": [
          {
            "astId": 9103,
            "contract": "contracts/Cruize.sol:Cruize",
            "label": "round",
            "offset": 0,
            "slot": "0",
            "type": "t_uint16"
          },
          {
            "astId": 9105,
            "contract": "contracts/Cruize.sol:Cruize",
            "label": "amount",
            "offset": 2,
            "slot": "0",
            "type": "t_uint104"
          },
          {
            "astId": 9107,
            "contract": "contracts/Cruize.sol:Cruize",
            "label": "unredeemedShares",
            "offset": 15,
            "slot": "0",
            "type": "t_uint128"
          },
          {
            "astId": 9109,
            "contract": "contracts/Cruize.sol:Cruize",
            "label": "totalDeposit",
            "offset": 0,
            "slot": "1",
            "type": "t_uint104"
          }
        ],
        "numberOfBytes": "64"
      },
      "t_struct(VaultState)9101_storage": {
        "encoding": "inplace",
        "label": "struct Types.VaultState",
        "members": [
          {
            "astId": 9092,
            "contract": "contracts/Cruize.sol:Cruize",
            "label": "round",
            "offset": 0,
            "slot": "0",
            "type": "t_uint16"
          },
          {
            "astId": 9094,
            "contract": "contracts/Cruize.sol:Cruize",
            "label": "lockedAmount",
            "offset": 2,
            "slot": "0",
            "type": "t_uint104"
          },
          {
            "astId": 9096,
            "contract": "contracts/Cruize.sol:Cruize",
            "label": "totalPending",
            "offset": 15,
            "slot": "0",
            "type": "t_uint128"
          },
          {
            "astId": 9098,
            "contract": "contracts/Cruize.sol:Cruize",
            "label": "queuedWithdrawShares",
            "offset": 0,
            "slot": "1",
            "type": "t_uint128"
          },
          {
            "astId": 9100,
            "contract": "contracts/Cruize.sol:Cruize",
            "label": "cap",
            "offset": 16,
            "slot": "1",
            "type": "t_uint104"
          }
        ],
        "numberOfBytes": "64"
      },
      "t_struct(Withdrawal)9115_storage": {
        "encoding": "inplace",
        "label": "struct Types.Withdrawal",
        "members": [
          {
            "astId": 9112,
            "contract": "contracts/Cruize.sol:Cruize",
            "label": "round",
            "offset": 0,
            "slot": "0",
            "type": "t_uint16"
          },
          {
            "astId": 9114,
            "contract": "contracts/Cruize.sol:Cruize",
            "label": "shares",
            "offset": 2,
            "slot": "0",
            "type": "t_uint128"
          }
        ],
        "numberOfBytes": "32"
      },
      "t_uint104": {
        "encoding": "inplace",
        "label": "uint104",
        "numberOfBytes": "13"
      },
      "t_uint128": {
        "encoding": "inplace",
        "label": "uint128",
        "numberOfBytes": "16"
      },
      "t_uint16": {
        "encoding": "inplace",
        "label": "uint16",
        "numberOfBytes": "2"
      },
      "t_uint256": {
        "encoding": "inplace",
        "label": "uint256",
        "numberOfBytes": "32"
      },
      "t_uint8": {
        "encoding": "inplace",
        "label": "uint8",
        "numberOfBytes": "1"
      }
    }
  }
}