{
  "address": "0xebC8B01D7D8a847A216D50411766Bf5d90588Aaf",
  "abi": [
    {
      "inputs": [
        {
          "internalType": "address",
          "name": "AssetAlreadyExists",
          "type": "address"
        }
      ],
      "name": "AssetAlreadyExists",
      "type": "error"
    },
    {
      "inputs": [
        {
          "internalType": "address",
          "name": "AssetNotAllowed",
          "type": "address"
        }
      ],
      "name": "AssetNotAllowed",
      "type": "error"
    },
    {
      "inputs": [
        {
          "internalType": "address",
          "name": "AssetDisabled",
          "type": "address"
        }
      ],
      "name": "DisabledAsset",
      "type": "error"
    },
    {
      "inputs": [],
      "name": "FailedToTransferETH",
      "type": "error"
    },
    {
      "inputs": [
        {
          "internalType": "uint256",
          "name": "VaultBalance",
          "type": "uint256"
        },
        {
          "internalType": "uint256",
          "name": "newCap",
          "type": "uint256"
        }
      ],
      "name": "InvalidCap",
      "type": "error"
    },
    {
      "inputs": [],
      "name": "InvalidFee",
      "type": "error"
    },
    {
      "inputs": [
        {
          "internalType": "uint256",
          "name": "tokenAddressArray",
          "type": "uint256"
        },
        {
          "internalType": "uint256",
          "name": "tokenBalanceArray",
          "type": "uint256"
        }
      ],
      "name": "InvalidLength",
      "type": "error"
    },
    {
      "inputs": [
        {
          "internalType": "uint256",
          "name": "WithdrawalRequestRound",
          "type": "uint256"
        },
        {
          "internalType": "uint256",
          "name": "currentRound",
          "type": "uint256"
        }
      ],
      "name": "InvalidWithdrawalRound",
      "type": "error"
    },
    {
      "inputs": [
        {
          "internalType": "address",
          "name": "actualAddr",
          "type": "address"
        },
        {
          "internalType": "address",
          "name": "ownerAddr",
          "type": "address"
        }
      ],
      "name": "NotAuthorized",
      "type": "error"
    },
    {
      "inputs": [
        {
          "internalType": "uint256",
          "name": "withdrawalBalance",
          "type": "uint256"
        },
        {
          "internalType": "uint256",
          "name": "withdrawalRequestBalance",
          "type": "uint256"
        }
      ],
      "name": "NotEnoughWithdrawalBalance",
      "type": "error"
    },
    {
      "inputs": [
        {
          "internalType": "uint256",
          "name": "withdrawalshare",
          "type": "uint256"
        },
        {
          "internalType": "uint256",
          "name": "withdrawalRequestshare",
          "type": "uint256"
        }
      ],
      "name": "NotEnoughWithdrawalShare",
      "type": "error"
    },
    {
      "inputs": [
        {
          "internalType": "address",
          "name": "guard_",
          "type": "address"
        }
      ],
      "name": "NotIERC165Compliant",
      "type": "error"
    },
    {
      "inputs": [
        {
          "internalType": "uint256",
          "name": "tokenBalance",
          "type": "uint256"
        }
      ],
      "name": "TokenBalanceShouldBeZero",
      "type": "error"
    },
    {
      "inputs": [
        {
          "internalType": "uint256",
          "name": "TotalDeposit",
          "type": "uint256"
        },
        {
          "internalType": "uint256",
          "name": "vaultTotalBalance",
          "type": "uint256"
        }
      ],
      "name": "VaultBalanceIsLessThenTheTotalDeposit",
      "type": "error"
    },
    {
      "inputs": [
        {
          "internalType": "uint256",
          "name": "limit",
          "type": "uint256"
        }
      ],
      "name": "VaultReachedDepositLimit",
      "type": "error"
    },
    {
      "inputs": [
        {
          "internalType": "uint256",
          "name": "WithdrawalAlreadyExists",
          "type": "uint256"
        }
      ],
      "name": "WithdrawalAlreadyExists",
      "type": "error"
    },
    {
      "inputs": [
        {
          "internalType": "address",
          "name": "ZeroAddress",
          "type": "address"
        }
      ],
      "name": "ZeroAddress",
      "type": "error"
    },
    {
      "inputs": [
        {
          "internalType": "uint256",
          "name": "ZeroValue",
          "type": "uint256"
        }
      ],
      "name": "ZeroValue",
      "type": "error"
    },
    {
      "inputs": [],
      "name": "ZeroWithdrawalShare",
      "type": "error"
    },
    {
      "anonymous": false,
      "inputs": [
        {
          "indexed": true,
          "internalType": "address",
          "name": "previousAvatar",
          "type": "address"
        },
        {
          "indexed": true,
          "internalType": "address",
          "name": "newAvatar",
          "type": "address"
        }
      ],
      "name": "AvatarSet",
      "type": "event"
    },
    {
      "anonymous": false,
      "inputs": [
        {
          "indexed": true,
          "internalType": "address",
          "name": "token",
          "type": "address"
        },
        {
          "indexed": false,
          "internalType": "uint256",
          "name": "oldCap",
          "type": "uint256"
        },
        {
          "indexed": false,
          "internalType": "uint256",
          "name": "newCap",
          "type": "uint256"
        }
      ],
      "name": "CapSet",
      "type": "event"
    },
    {
      "anonymous": false,
      "inputs": [
        {
          "indexed": true,
          "internalType": "address",
          "name": "token",
          "type": "address"
        },
        {
          "indexed": false,
          "internalType": "bool",
          "name": "status",
          "type": "bool"
        }
      ],
      "name": "ChangeAssetStatus",
      "type": "event"
    },
    {
      "anonymous": false,
      "inputs": [
        {
          "indexed": false,
          "internalType": "address",
          "name": "guard",
          "type": "address"
        }
      ],
      "name": "ChangedGuard",
      "type": "event"
    },
    {
      "anonymous": false,
      "inputs": [
        {
          "indexed": true,
          "internalType": "address",
          "name": "token",
          "type": "address"
        },
        {
          "indexed": true,
          "internalType": "uint16",
          "name": "round",
          "type": "uint16"
        },
        {
          "indexed": false,
          "internalType": "uint256",
          "name": "SharePerUnit",
          "type": "uint256"
        },
        {
          "indexed": false,
          "internalType": "uint256",
          "name": "lockedAmount",
          "type": "uint256"
        }
      ],
      "name": "CloseRound",
      "type": "event"
    },
    {
      "anonymous": false,
      "inputs": [
        {
          "indexed": true,
          "internalType": "address",
          "name": "token",
          "type": "address"
        },
        {
          "indexed": false,
          "internalType": "uint256",
          "name": "vaultFee",
          "type": "uint256"
        }
      ],
      "name": "CollectVaultFee",
      "type": "event"
    },
    {
      "anonymous": false,
      "inputs": [
        {
          "indexed": true,
          "internalType": "address",
          "name": "token",
          "type": "address"
        },
        {
          "indexed": true,
          "internalType": "address",
          "name": "crToken",
          "type": "address"
        },
        {
          "indexed": false,
          "internalType": "string",
          "name": "tokenName",
          "type": "string"
        },
        {
          "indexed": false,
          "internalType": "string",
          "name": "tokenSymbol",
          "type": "string"
        },
        {
          "indexed": false,
          "internalType": "uint8",
          "name": "decimal",
          "type": "uint8"
        },
        {
          "indexed": false,
          "internalType": "uint256",
          "name": "tokenCap",
          "type": "uint256"
        }
      ],
      "name": "CreateToken",
      "type": "event"
    },
    {
      "anonymous": false,
      "inputs": [
        {
          "indexed": true,
          "internalType": "address",
          "name": "token",
          "type": "address"
        }
      ],
      "name": "DeListToken",
      "type": "event"
    },
    {
      "anonymous": false,
      "inputs": [
        {
          "indexed": true,
          "internalType": "address",
          "name": "account",
          "type": "address"
        },
        {
          "indexed": false,
          "internalType": "uint256",
          "name": "amount",
          "type": "uint256"
        },
        {
          "indexed": true,
          "internalType": "address",
          "name": "token",
          "type": "address"
        }
      ],
      "name": "Deposit",
      "type": "event"
    },
    {
      "anonymous": false,
      "inputs": [
        {
          "indexed": false,
          "internalType": "uint8",
          "name": "version",
          "type": "uint8"
        }
      ],
      "name": "Initialized",
      "type": "event"
    },
    {
      "anonymous": false,
      "inputs": [
        {
          "indexed": true,
          "internalType": "address",
          "name": "account",
          "type": "address"
        },
        {
          "indexed": true,
          "internalType": "address",
          "name": "token",
          "type": "address"
        },
        {
          "indexed": false,
          "internalType": "uint256",
          "name": "amount",
          "type": "uint256"
        }
      ],
      "name": "InitiateStandardWithdrawal",
      "type": "event"
    },
    {
      "anonymous": false,
      "inputs": [
        {
          "indexed": true,
          "internalType": "address",
          "name": "account",
          "type": "address"
        },
        {
          "indexed": false,
          "internalType": "uint256",
          "name": "amount",
          "type": "uint256"
        },
        {
          "indexed": false,
          "internalType": "uint16",
          "name": "currentRound",
          "type": "uint16"
        },
        {
          "indexed": true,
          "internalType": "address",
          "name": "token",
          "type": "address"
        }
      ],
      "name": "InstantWithdrawal",
      "type": "event"
    },
    {
      "anonymous": false,
      "inputs": [
        {
          "indexed": false,
          "internalType": "uint256",
          "name": "managementFee",
          "type": "uint256"
        },
        {
          "indexed": false,
          "internalType": "uint256",
          "name": "newManagementFee",
          "type": "uint256"
        }
      ],
      "name": "ManagementFeeSet",
      "type": "event"
    },
    {
      "anonymous": false,
      "inputs": [
        {
          "indexed": true,
          "internalType": "address",
          "name": "previousOwner",
          "type": "address"
        },
        {
          "indexed": true,
          "internalType": "address",
          "name": "newOwner",
          "type": "address"
        }
      ],
      "name": "OwnershipTransferred",
      "type": "event"
    },
    {
      "anonymous": false,
      "inputs": [
        {
          "indexed": false,
          "internalType": "address",
          "name": "account",
          "type": "address"
        }
      ],
      "name": "Paused",
      "type": "event"
    },
    {
      "anonymous": false,
      "inputs": [
        {
          "indexed": false,
          "internalType": "uint256",
          "name": "performanceFee",
          "type": "uint256"
        },
        {
          "indexed": false,
          "internalType": "uint256",
          "name": "newPerformanceFee",
          "type": "uint256"
        }
      ],
      "name": "PerformanceFeeSet",
      "type": "event"
    },
    {
      "anonymous": false,
      "inputs": [
        {
          "indexed": false,
          "internalType": "address",
          "name": "oldModule",
          "type": "address"
        },
        {
          "indexed": false,
          "internalType": "address",
          "name": "newModule",
          "type": "address"
        }
      ],
      "name": "SetCruizeModule",
      "type": "event"
    },
    {
      "anonymous": false,
      "inputs": [
        {
          "indexed": false,
          "internalType": "uint256",
          "name": "oldRoundPerYer",
          "type": "uint256"
        },
        {
          "indexed": false,
          "internalType": "uint256",
          "name": "newRoundPerYear",
          "type": "uint256"
        }
      ],
      "name": "SetRoundPerYear",
      "type": "event"
    },
    {
      "anonymous": false,
      "inputs": [
        {
          "indexed": true,
          "internalType": "address",
          "name": "account",
          "type": "address"
        },
        {
          "indexed": false,
          "internalType": "uint256",
          "name": "amount",
          "type": "uint256"
        },
        {
          "indexed": true,
          "internalType": "address",
          "name": "token",
          "type": "address"
        }
      ],
      "name": "StandardWithdrawal",
      "type": "event"
    },
    {
      "anonymous": false,
      "inputs": [
        {
          "indexed": true,
          "internalType": "address",
          "name": "previousTarget",
          "type": "address"
        },
        {
          "indexed": true,
          "internalType": "address",
          "name": "newTarget",
          "type": "address"
        }
      ],
      "name": "TargetSet",
      "type": "event"
    },
    {
      "anonymous": false,
      "inputs": [
        {
          "indexed": true,
          "internalType": "address",
          "name": "account",
          "type": "address"
        },
        {
          "indexed": false,
          "internalType": "uint256",
          "name": "amount",
          "type": "uint256"
        },
        {
          "indexed": true,
          "internalType": "address",
          "name": "token",
          "type": "address"
        }
      ],
      "name": "TransferFromSafe",
      "type": "event"
    },
    {
      "anonymous": false,
      "inputs": [
        {
          "indexed": false,
          "internalType": "address",
          "name": "account",
          "type": "address"
        }
      ],
      "name": "Unpaused",
      "type": "event"
    },
    {
      "inputs": [],
      "name": "ETH",
      "outputs": [
        {
          "internalType": "address",
          "name": "",
          "type": "address"
        }
      ],
      "stateMutability": "view",
      "type": "function"
    },
    {
      "inputs": [],
      "name": "avatar",
      "outputs": [
        {
          "internalType": "address",
          "name": "",
          "type": "address"
        }
      ],
      "stateMutability": "view",
      "type": "function"
    },
    {
      "inputs": [
        {
          "internalType": "address",
          "name": "token",
          "type": "address"
        },
        {
          "internalType": "address",
          "name": "account",
          "type": "address"
        }
      ],
      "name": "balanceOf",
      "outputs": [
        {
          "internalType": "uint256",
          "name": "",
          "type": "uint256"
        }
      ],
      "stateMutability": "view",
      "type": "function"
    },
    {
      "inputs": [
        {
          "internalType": "address",
          "name": "token",
          "type": "address"
        },
        {
          "internalType": "address",
          "name": "account",
          "type": "address"
        }
      ],
      "name": "balanceOfUser",
      "outputs": [
        {
          "internalType": "uint256",
          "name": "balance",
          "type": "uint256"
        }
      ],
      "stateMutability": "view",
      "type": "function"
    },
    {
      "inputs": [
        {
          "internalType": "address",
          "name": "token",
          "type": "address"
        },
        {
          "internalType": "bool",
          "name": "status",
          "type": "bool"
        }
      ],
      "name": "changeAssetStatus",
      "outputs": [],
      "stateMutability": "nonpayable",
      "type": "function"
    },
    {
      "inputs": [
        {
          "internalType": "address[]",
          "name": "tokensList",
          "type": "address[]"
        },
        {
          "internalType": "uint256[]",
          "name": "totalTokensBalance",
          "type": "uint256[]"
        }
      ],
      "name": "closeTokensRound",
      "outputs": [],
      "stateMutability": "nonpayable",
      "type": "function"
    },
    {
      "inputs": [],
      "name": "crContract",
      "outputs": [
        {
          "internalType": "address",
          "name": "",
          "type": "address"
        }
      ],
      "stateMutability": "view",
      "type": "function"
    },
    {
      "inputs": [
        {
          "internalType": "string",
          "name": "name",
          "type": "string"
        },
        {
          "internalType": "string",
          "name": "symbol",
          "type": "string"
        },
        {
          "internalType": "address",
          "name": "token",
          "type": "address"
        },
        {
          "internalType": "uint104",
          "name": "tokenCap",
          "type": "uint104"
        }
      ],
      "name": "createToken",
      "outputs": [],
      "stateMutability": "nonpayable",
      "type": "function"
    },
    {
      "inputs": [],
      "name": "cruizeProxy",
      "outputs": [
        {
          "internalType": "address",
          "name": "",
          "type": "address"
        }
      ],
      "stateMutability": "view",
      "type": "function"
    },
    {
      "inputs": [
        {
          "internalType": "address",
          "name": "",
          "type": "address"
        }
      ],
      "name": "cruizeTokens",
      "outputs": [
        {
          "internalType": "address",
          "name": "",
          "type": "address"
        }
      ],
      "stateMutability": "view",
      "type": "function"
    },
    {
      "inputs": [
        {
          "internalType": "address",
          "name": "",
          "type": "address"
        }
      ],
      "name": "currentQueuedWithdrawalShares",
      "outputs": [
        {
          "internalType": "uint128",
          "name": "",
          "type": "uint128"
        }
      ],
      "stateMutability": "view",
      "type": "function"
    },
    {
      "inputs": [
        {
          "internalType": "address",
          "name": "token",
          "type": "address"
        }
      ],
      "name": "deListTokens",
      "outputs": [],
      "stateMutability": "nonpayable",
      "type": "function"
    },
    {
      "inputs": [
        {
          "internalType": "address",
          "name": "token",
          "type": "address"
        },
        {
          "internalType": "uint256",
          "name": "amount",
          "type": "uint256"
        }
      ],
      "name": "deposit",
      "outputs": [],
      "stateMutability": "payable",
      "type": "function"
    },
    {
      "inputs": [
        {
          "internalType": "address",
          "name": "",
          "type": "address"
        },
        {
          "internalType": "address",
          "name": "",
          "type": "address"
        }
      ],
      "name": "depositReceipts",
      "outputs": [
        {
          "internalType": "uint16",
          "name": "round",
          "type": "uint16"
        },
        {
          "internalType": "uint104",
          "name": "amount",
          "type": "uint104"
        },
        {
          "internalType": "uint128",
          "name": "unredeemedShares",
          "type": "uint128"
        },
        {
          "internalType": "uint104",
          "name": "totalDeposit",
          "type": "uint104"
        }
      ],
      "stateMutability": "view",
      "type": "function"
    },
    {
      "inputs": [],
      "name": "feeRecipient",
      "outputs": [
        {
          "internalType": "address",
          "name": "",
          "type": "address"
        }
      ],
      "stateMutability": "view",
      "type": "function"
    },
    {
      "inputs": [],
      "name": "getGuard",
      "outputs": [
        {
          "internalType": "address",
          "name": "_guard",
          "type": "address"
        }
      ],
      "stateMutability": "view",
      "type": "function"
    },
    {
      "inputs": [
        {
          "internalType": "uint256",
          "name": "totalBalanceLocked",
          "type": "uint256"
        },
        {
          "internalType": "uint256",
          "name": "decimal",
          "type": "uint256"
        }
      ],
      "name": "getManagementFee",
      "outputs": [
        {
          "internalType": "uint256",
          "name": "",
          "type": "uint256"
        }
      ],
      "stateMutability": "view",
      "type": "function"
    },
    {
      "inputs": [
        {
          "internalType": "uint256",
          "name": "roundAPY",
          "type": "uint256"
        },
        {
          "internalType": "uint256",
          "name": "decimal",
          "type": "uint256"
        }
      ],
      "name": "getPerformanceFee",
      "outputs": [
        {
          "internalType": "uint256",
          "name": "",
          "type": "uint256"
        }
      ],
      "stateMutability": "view",
      "type": "function"
    },
    {
      "inputs": [],
      "name": "gnosisSafe",
      "outputs": [
        {
          "internalType": "address",
          "name": "",
          "type": "address"
        }
      ],
      "stateMutability": "view",
      "type": "function"
    },
    {
      "inputs": [],
      "name": "guard",
      "outputs": [
        {
          "internalType": "address",
          "name": "",
          "type": "address"
        }
      ],
      "stateMutability": "view",
      "type": "function"
    },
    {
      "inputs": [
        {
          "internalType": "address",
          "name": "token",
          "type": "address"
        },
        {
          "internalType": "uint256",
          "name": "numShares",
          "type": "uint256"
        }
      ],
      "name": "initiateWithdrawal",
      "outputs": [],
      "stateMutability": "nonpayable",
      "type": "function"
    },
    {
      "inputs": [
        {
          "internalType": "address",
          "name": "token",
          "type": "address"
        },
        {
          "internalType": "uint256",
          "name": "amount",
          "type": "uint256"
        }
      ],
      "name": "instantWithdrawal",
      "outputs": [],
      "stateMutability": "nonpayable",
      "type": "function"
    },
    {
      "inputs": [
        {
          "internalType": "address",
          "name": "",
          "type": "address"
        }
      ],
      "name": "isDisable",
      "outputs": [
        {
          "internalType": "bool",
          "name": "",
          "type": "bool"
        }
      ],
      "stateMutability": "view",
      "type": "function"
    },
    {
      "inputs": [],
      "name": "isManagementFeeEnable",
      "outputs": [
        {
          "internalType": "bool",
          "name": "",
          "type": "bool"
        }
      ],
      "stateMutability": "view",
      "type": "function"
    },
    {
      "inputs": [],
      "name": "isPerformanceFeeEnabled",
      "outputs": [
        {
          "internalType": "bool",
          "name": "",
          "type": "bool"
        }
      ],
      "stateMutability": "view",
      "type": "function"
    },
    {
      "inputs": [
        {
          "internalType": "address",
          "name": "",
          "type": "address"
        }
      ],
      "name": "lastQueuedWithdrawAmounts",
      "outputs": [
        {
          "internalType": "uint256",
          "name": "",
          "type": "uint256"
        }
      ],
      "stateMutability": "view",
      "type": "function"
    },
    {
      "inputs": [],
      "name": "managementFee",
      "outputs": [
        {
          "internalType": "uint256",
          "name": "",
          "type": "uint256"
        }
      ],
      "stateMutability": "view",
      "type": "function"
    },
    {
      "inputs": [],
      "name": "module",
      "outputs": [
        {
          "internalType": "address",
          "name": "",
          "type": "address"
        }
      ],
      "stateMutability": "view",
      "type": "function"
    },
    {
      "inputs": [],
      "name": "owner",
      "outputs": [
        {
          "internalType": "address",
          "name": "",
          "type": "address"
        }
      ],
      "stateMutability": "view",
      "type": "function"
    },
    {
      "inputs": [],
      "name": "pause",
      "outputs": [],
      "stateMutability": "nonpayable",
      "type": "function"
    },
    {
      "inputs": [],
      "name": "paused",
      "outputs": [
        {
          "internalType": "bool",
          "name": "",
          "type": "bool"
        }
      ],
      "stateMutability": "view",
      "type": "function"
    },
    {
      "inputs": [],
      "name": "performanceFee",
      "outputs": [
        {
          "internalType": "uint256",
          "name": "",
          "type": "uint256"
        }
      ],
      "stateMutability": "view",
      "type": "function"
    },
    {
      "inputs": [
        {
          "internalType": "address",
          "name": "token",
          "type": "address"
        }
      ],
      "name": "pricePerShare",
      "outputs": [
        {
          "internalType": "uint256",
          "name": "",
          "type": "uint256"
        }
      ],
      "stateMutability": "view",
      "type": "function"
    },
    {
      "inputs": [],
      "name": "renounceOwnership",
      "outputs": [],
      "stateMutability": "nonpayable",
      "type": "function"
    },
    {
      "inputs": [
        {
          "internalType": "address",
          "name": "",
          "type": "address"
        },
        {
          "internalType": "uint16",
          "name": "",
          "type": "uint16"
        }
      ],
      "name": "roundPricePerShare",
      "outputs": [
        {
          "internalType": "uint256",
          "name": "",
          "type": "uint256"
        }
      ],
      "stateMutability": "view",
      "type": "function"
    },
    {
      "inputs": [
        {
          "internalType": "address",
          "name": "_avatar",
          "type": "address"
        }
      ],
      "name": "setAvatar",
      "outputs": [],
      "stateMutability": "nonpayable",
      "type": "function"
    },
    {
      "inputs": [
        {
          "internalType": "address",
          "name": "token",
          "type": "address"
        },
        {
          "internalType": "uint256",
          "name": "newCap",
          "type": "uint256"
        }
      ],
      "name": "setCap",
      "outputs": [],
      "stateMutability": "nonpayable",
      "type": "function"
    },
    {
      "inputs": [
        {
          "internalType": "address",
          "name": "newCruizeModule",
          "type": "address"
        }
      ],
      "name": "setCruizeModule",
      "outputs": [],
      "stateMutability": "nonpayable",
      "type": "function"
    },
    {
      "inputs": [
        {
          "internalType": "address",
          "name": "newFeeRecipient",
          "type": "address"
        }
      ],
      "name": "setFeeRecipient",
      "outputs": [],
      "stateMutability": "nonpayable",
      "type": "function"
    },
    {
      "inputs": [
        {
          "internalType": "bool",
          "name": "_performanceFee",
          "type": "bool"
        },
        {
          "internalType": "bool",
          "name": "_managementFee",
          "type": "bool"
        }
      ],
      "name": "setFeeStatus",
      "outputs": [],
      "stateMutability": "nonpayable",
      "type": "function"
    },
    {
      "inputs": [
        {
          "internalType": "address",
          "name": "_guard",
          "type": "address"
        }
      ],
      "name": "setGuard",
      "outputs": [],
      "stateMutability": "nonpayable",
      "type": "function"
    },
    {
      "inputs": [
        {
          "internalType": "uint256",
          "name": "newManagementFee",
          "type": "uint256"
        }
      ],
      "name": "setManagementFee",
      "outputs": [],
      "stateMutability": "nonpayable",
      "type": "function"
    },
    {
      "inputs": [
        {
          "internalType": "uint256",
          "name": "newPerformanceFee",
          "type": "uint256"
        }
      ],
      "name": "setPerformanceFee",
      "outputs": [],
      "stateMutability": "nonpayable",
      "type": "function"
    },
    {
      "inputs": [
        {
          "internalType": "uint256",
          "name": "NewRoundPerYear",
          "type": "uint256"
        }
      ],
      "name": "setRoundPerYear",
      "outputs": [],
      "stateMutability": "nonpayable",
      "type": "function"
    },
    {
      "inputs": [
        {
          "internalType": "address",
          "name": "_target",
          "type": "address"
        }
      ],
      "name": "setTarget",
      "outputs": [],
      "stateMutability": "nonpayable",
      "type": "function"
    },
    {
      "inputs": [
        {
          "internalType": "bytes",
          "name": "initializeParams",
          "type": "bytes"
        }
      ],
      "name": "setUp",
      "outputs": [],
      "stateMutability": "nonpayable",
      "type": "function"
    },
    {
      "inputs": [
        {
          "internalType": "address",
          "name": "token",
          "type": "address"
        },
        {
          "internalType": "address",
          "name": "account",
          "type": "address"
        }
      ],
      "name": "shareBalances",
      "outputs": [
        {
          "internalType": "uint256",
          "name": "heldByAccount",
          "type": "uint256"
        },
        {
          "internalType": "uint256",
          "name": "heldByVault",
          "type": "uint256"
        },
        {
          "internalType": "uint256",
          "name": "totalShares",
          "type": "uint256"
        }
      ],
      "stateMutability": "view",
      "type": "function"
    },
    {
      "inputs": [
        {
          "internalType": "address",
          "name": "token",
          "type": "address"
        }
      ],
      "name": "standardWithdrawal",
      "outputs": [],
      "stateMutability": "nonpayable",
      "type": "function"
    },
    {
      "inputs": [],
      "name": "target",
      "outputs": [
        {
          "internalType": "address",
          "name": "",
          "type": "address"
        }
      ],
      "stateMutability": "view",
      "type": "function"
    },
    {
      "inputs": [
        {
          "internalType": "uint256",
          "name": "",
          "type": "uint256"
        }
      ],
      "name": "tokens",
      "outputs": [
        {
          "internalType": "address",
          "name": "",
          "type": "address"
        }
      ],
      "stateMutability": "view",
      "type": "function"
    },
    {
      "inputs": [
        {
          "internalType": "address[]",
          "name": "assets",
          "type": "address[]"
        }
      ],
      "name": "tokensTvl",
      "outputs": [
        {
          "internalType": "uint256[][]",
          "name": "",
          "type": "uint256[][]"
        }
      ],
      "stateMutability": "view",
      "type": "function"
    },
    {
      "inputs": [
        {
          "internalType": "address",
          "name": "token",
          "type": "address"
        }
      ],
      "name": "totalTokenPending",
      "outputs": [
        {
          "internalType": "uint256",
          "name": "",
          "type": "uint256"
        }
      ],
      "stateMutability": "view",
      "type": "function"
    },
    {
      "inputs": [
        {
          "internalType": "address",
          "name": "_paymentToken",
          "type": "address"
        },
        {
          "internalType": "address",
          "name": "_receiver",
          "type": "address"
        },
        {
          "internalType": "address",
          "name": "_cruizeProxy",
          "type": "address"
        },
        {
          "internalType": "uint256",
          "name": "_amount",
          "type": "uint256"
        }
      ],
      "name": "transferFromSafe",
      "outputs": [],
      "stateMutability": "nonpayable",
      "type": "function"
    },
    {
      "inputs": [
        {
          "internalType": "address",
          "name": "newOwner",
          "type": "address"
        }
      ],
      "name": "transferOwnership",
      "outputs": [],
      "stateMutability": "nonpayable",
      "type": "function"
    },
    {
      "inputs": [],
      "name": "unpause",
      "outputs": [],
      "stateMutability": "nonpayable",
      "type": "function"
    },
    {
      "inputs": [
        {
          "internalType": "address",
          "name": "",
          "type": "address"
        }
      ],
      "name": "vaults",
      "outputs": [
        {
          "internalType": "uint16",
          "name": "round",
          "type": "uint16"
        },
        {
          "internalType": "uint104",
          "name": "lockedAmount",
          "type": "uint104"
        },
        {
          "internalType": "uint128",
          "name": "totalPending",
          "type": "uint128"
        },
        {
          "internalType": "uint128",
          "name": "queuedWithdrawShares",
          "type": "uint128"
        },
        {
          "internalType": "uint104",
          "name": "cap",
          "type": "uint104"
        }
      ],
      "stateMutability": "view",
      "type": "function"
    },
    {
      "inputs": [
        {
          "internalType": "address",
          "name": "",
          "type": "address"
        },
        {
          "internalType": "address",
          "name": "",
          "type": "address"
        }
      ],
      "name": "withdrawals",
      "outputs": [
        {
          "internalType": "uint16",
          "name": "round",
          "type": "uint16"
        },
        {
          "internalType": "uint128",
          "name": "shares",
          "type": "uint128"
        }
      ],
      "stateMutability": "view",
      "type": "function"
    },
    {
      "stateMutability": "payable",
      "type": "receive"
    }
  ],
  "transactionHash": "0xb374bbd64ffe588ea03d007bb40eacaf1a65e5fd16c0e49733883a8311a32766",
  "args": [],
  "numDeployments": 1,
  "solcInputHash": "47e566b478682701cf4704424fc24649",
  "bytecode": "0x60806040526802d3a0a42d42fd900060115534801561001d57600080fd5b506152d48061002d6000396000f3fe60806040526004361061037a5760003560e01c806387788782116101d1578063be4d58c011610102578063e19a9dd9116100a0578063e7de16701161006f578063e7de167014610be7578063f2fde38b14610c35578063f7888aec14610c55578063fe56e23214610c7557600080fd5b8063e19a9dd914610b67578063e3c6a66514610b87578063e409e1f814610ba7578063e74b981b14610bc757600080fd5b8063c9106389116100dc578063c910638914610a9a578063cad59d1614610ab8578063cd47bde114610ad8578063d4b8399214610b4757600080fd5b8063be4d58c014610a0f578063c54c8ddc14610a4a578063c8393ba914610a7a57600080fd5b8063a4f9edbf1161016f578063a84173ae11610149578063a84173ae1461098a578063ac846958146109aa578063b38aaeaa146109ca578063b86d5298146109ea57600080fd5b8063a4f9edbf146108aa578063a622ee7c146108ca578063a6f7f5d61461097457600080fd5b80639367a8e5116101ab5780639367a8e5146107aa578063940b7b721461085057806395f4830a1461087057806397b7ea7d1461089057600080fd5b806387788782146107565780638b46ae5e1461076c5780638da5cb5b1461078c57600080fd5b80635c975abb116102ab578063776d1a011161024957806380ad2cf31161022357806380ad2cf3146106cc5780638322fff2146106ec5780638456cb591461071457806386fcf7f61461072957600080fd5b8063776d1a01146106565780637ceab3b1146106765780637f288b261461069657600080fd5b806370897b231161028557806370897b23146105d4578063715018a6146105f4578063717edf2814610609578063726a0df81461062957600080fd5b80635c975abb14610576578063619954aa1461059a5780636c87d66f146105b457600080fd5b80634292a23f1161031857806347e7ef24116102f257806347e7ef24146105035780634f64b2be1461051657806353d8399c146105365780635aef7de61461055657600080fd5b80634292a23f146104a3578063466374c9146104c357806346904840146104e357600080fd5b80631c2106a6116103545780631c2106a61461040857806320ae9c5d1461043657806324116b99146104565780633f4ba83a1461048e57600080fd5b8063086cfca814610389578063108efa93146103ab578063194ecddb146103e857600080fd5b3661038457600080fd5b600080fd5b34801561039557600080fd5b506103a96103a43660046148bb565b610c95565b005b3480156103b757600080fd5b506006546103cb906001600160a01b031681565b6040516001600160a01b0390911681526020015b60405180910390f35b3480156103f457600080fd5b506103a96104033660046148bb565b610cef565b34801561041457600080fd5b506104286104233660046148df565b610da8565b6040519081526020016103df565b34801561044257600080fd5b50610428610451366004614901565b610dc0565b34801561046257600080fd5b5061042861047136600461493a565b600f60209081526000928352604080842090915290825290205481565b34801561049a57600080fd5b506103a9610f6e565b3480156104af57600080fd5b506103a96104be36600461497d565b610f80565b3480156104cf57600080fd5b506103a96104de366004614a6a565b610fa8565b3480156104ef57600080fd5b506000546103cb906001600160a01b031681565b6103a9610511366004614aff565b61120e565b34801561052257600080fd5b506103cb610531366004614b2b565b61151f565b34801561054257600080fd5b506103a96105513660046148bb565b611549565b34801561056257600080fd5b5060dc546103cb906001600160a01b031681565b34801561058257600080fd5b5060a85460ff165b60405190151581526020016103df565b3480156105a657600080fd5b5060025461058a9060ff1681565b3480156105c057600080fd5b506103a96105cf3660046148bb565b6115f9565b3480156105e057600080fd5b506103a96105ef366004614b2b565b611815565b34801561060057600080fd5b506103a96118b7565b34801561061557600080fd5b506007546103cb906001600160a01b031681565b34801561063557600080fd5b50610649610644366004614bdc565b6118c9565b6040516103df9190614c11565b34801561066257600080fd5b506103a96106713660046148bb565b611a9a565b34801561068257600080fd5b5060db546103cb906001600160a01b031681565b3480156106a257600080fd5b506103cb6106b13660046148bb565b6008602052600090815260409020546001600160a01b031681565b3480156106d857600080fd5b506103a96106e7366004614aff565b611af4565b3480156106f857600080fd5b506103cb73eeeeeeeeeeeeeeeeeeeeeeeeeeeeeeeeeeeeeeee81565b34801561072057600080fd5b506103a9611c44565b34801561073557600080fd5b506104286107443660046148bb565b600b6020526000908152604090205481565b34801561076257600080fd5b5061042860015481565b34801561077857600080fd5b506104286107873660046148bb565b611c54565b34801561079857600080fd5b506076546001600160a01b03166103cb565b3480156107b657600080fd5b506108146107c5366004614901565b600e6020908152600092835260408084209091529082529020805460019091015461ffff8216916201000081046001600160681b0390811692600160781b9092046001600160801b0316911684565b6040805161ffff90951685526001600160681b0393841660208601526001600160801b03909216918401919091521660608201526080016103df565b34801561085c57600080fd5b506103a961086b366004614b2b565b611d35565b34801561087c57600080fd5b506103a961088b366004614c9b565b611da4565b34801561089c57600080fd5b5060045461058a9060ff1681565b3480156108b657600080fd5b506103a96108c5366004614d56565b611e96565b3480156108d657600080fd5b506109346108e53660046148bb565b600a602052600090815260409020805460019091015461ffff8216916001600160681b036201000082048116926001600160801b03600160781b909304831692811691600160801b9091041685565b6040805161ffff90961686526001600160681b0394851660208701526001600160801b03938416908601529116606084015216608082015260a0016103df565b34801561098057600080fd5b5061042860035481565b34801561099657600080fd5b506005546103cb906001600160a01b031681565b3480156109b657600080fd5b506104286109c53660046148bb565b61208e565b3480156109d657600080fd5b506103a96109e5366004614aff565b612102565b3480156109f657600080fd5b506004546103cb9061010090046001600160a01b031681565b348015610a1b57600080fd5b50610a2f610a2a366004614901565b612237565b604080519384526020840192909252908201526060016103df565b348015610a5657600080fd5b5061058a610a653660046148bb565b60096020526000908152604090205460ff1681565b348015610a8657600080fd5b506103a9610a95366004614aff565b6123bc565b348015610aa657600080fd5b5060db546001600160a01b03166103cb565b348015610ac457600080fd5b506103a9610ad3366004614d9f565b6124c4565b348015610ae457600080fd5b50610b25610af3366004614901565b600d60209081526000928352604080842090915290825290205461ffff8116906201000090046001600160801b031682565b6040805161ffff90931683526001600160801b039091166020830152016103df565b348015610b5357600080fd5b5060dd546103cb906001600160a01b031681565b348015610b7357600080fd5b506103a9610b823660046148bb565b612571565b348015610b9357600080fd5b506103a9610ba2366004614dbd565b612673565b348015610bb357600080fd5b50610428610bc23660046148df565b61282f565b348015610bd357600080fd5b506103a9610be23660046148bb565b61283e565b348015610bf357600080fd5b50610c1d610c023660046148bb565b600c602052600090815260409020546001600160801b031681565b6040516001600160801b0390911681526020016103df565b348015610c4157600080fd5b506103a9610c503660046148bb565b61289c565b348015610c6157600080fd5b50610428610c70366004614901565b612912565b348015610c8157600080fd5b506103a9610c90366004614b2b565b612a12565b610c9d612ada565b60dc80546001600160a01b038381166001600160a01b0319831681179093556040519116919082907f52ae88b092de36f87fb43fe794eb1381023b9c1bce563a871154022c63dce34290600090a35050565b610cf7612b34565b6001600160a01b03808216600090815260086020526040902054829116610d4157604051630188053b60e41b81526001600160a01b03821660048201526024015b60405180910390fd5b6001600160a01b038216600090815260096020526040902054829060ff1615610d8857604051631398937760e11b81526001600160a01b0382166004820152602401610d38565b610d90612b8d565b610d9983612bd3565b5050610da5600160a955565b50565b6000610db78383600354612eb0565b90505b92915050565b6001600160a01b038083166000908152600860205260408120549091849116610e0757604051630188053b60e41b81526001600160a01b0382166004820152602401610d38565b826001600160a01b038116610e3a57604051633202e20d60e21b81526001600160a01b0382166004820152602401610d38565b6001600160a01b038085166000908152600e60209081526040808320938916808452938252808320815160808082018452825461ffff80821684526001600160681b03620100008084048216868a01526001600160801b03600160781b948590048116878a015260019788015483166060808901919091529b8b52600a8a52888b20895160a081018b52815495861680825293860485169b81019b909b5294909304831697890197909752919094015493841697860197909752600160801b909204909516908301529091610f0e89612ede565b90506000610f318361ffff16610f288c8860000151612f6f565b87919085612fdb565b90506000610f5382610f4d8d610f48600189614e24565b612f6f565b8561304c565b9050610f5f89826130ae565b9b9a5050505050505050505050565b610f76612ada565b610f7e6130ba565b565b610f88612ada565b6002805492151560ff199384161790556004805491151591909216179055565b806001600160681b031680600003610fd6576040516302ee6a2560e21b815260048101829052602401610d38565b826001600160a01b03811661100957604051633202e20d60e21b81526001600160a01b0382166004820152602401610d38565b611011612b34565b611019612ada565b600061102485612ede565b6001600160a01b03868116600090815260086020526040902054919250161561106b57604051634af8dd4d60e11b81526001600160a01b0386166004820152602401610d38565b600754600090611083906001600160a01b031661310c565b6001600160a01b038781166000908152600860205260409081902080546001600160a01b031916928416928317905551630b127b6360e11b815291925090631624f6c6906110d9908b908b908790600401614e96565b600060405180830381600087803b1580156110f357600080fd5b505af1158015611107573d6000803e3d6000fd5b505050506001600160a01b0386166000818152600a602052604081208054600161ffff19909116811782559081018054600160801b600160e81b031916600160801b6001600160681b038b1602179055601080549182018155918290527f1b6847dc741a1b0cd08d278845f9d819d87b734759afb55fe2de5cb82a9ae6720180546001600160a01b03191690921790915580546111a790829081906147f0565b50816001600160a01b0316876001600160a01b03167f2bb8c305337fc72d58a951859397f8a5a04a46d9cfcb5b57b28b185fb73bcb3e8b8b878b6040516111f19493929190614ecf565b60405180910390a3505050611206600160a955565b505050505050565b611216612b34565b6001600160a01b0380831660009081526008602052604090205483911661125b57604051630188053b60e41b81526001600160a01b0382166004820152602401610d38565b8180600003611280576040516302ee6a2560e21b815260048101829052602401610d38565b6001600160a01b038416600090815260096020526040902054849060ff16156112c757604051631398937760e11b81526001600160a01b0382166004820152602401610d38565b6112cf612b8d565b6112d9858561315e565b6001600160a01b03851673eeeeeeeeeeeeeeeeeeeeeeeeeeeeeeeeeeeeeeee14801561134157506001600160a01b038581166000908152600a6020526040902060010154600554600160801b9091046001600160681b03169161133e911631866130ae565b11155b156113c0576005546040516000916001600160a01b03169086908381818185875af1925050503d8060008114611393576040519150601f19603f3d011682016040523d82523d6000602084013e611398565b606091505b50509050806113ba57604051639d4a106d60e01b815260040160405180910390fd5b506114cd565b6001600160a01b038581166000818152600a6020526040908190206001015460055491516370a0823160e01b8152919093166004820152600160801b9092046001600160681b03169161145f9187916370a0823190602401602060405180830381865afa158015611435573d6000803e3d6000fd5b505050506040513d601f19601f820116820180604052508101906114599190614f18565b906130ae565b1161148557600554611480906001600160a01b038781169133911687613418565b6114cd565b6001600160a01b0385166000908152600a60205260409081902060010154905163b88f2a8560e01b8152600160801b9091046001600160681b03166004820152602401610d38565b6040518481526001600160a01b0386169033907fe31c7b8d08ee7db0afa68782e1028ef92305caeea8626633ad44d413e30f6b2f906020015b60405180910390a350505061151b600160a955565b5050565b6010818154811061152f57600080fd5b6000918252602090912001546001600160a01b0316905081565b806001600160a01b03811661157c57604051633202e20d60e21b81526001600160a01b0382166004820152602401610d38565b611584612ada565b600454604080516001600160a01b036101009093048316815291841660208301527fc119fced0a1e25728087ed87e5f1f0e9b4b3588cf90460a7b20de92e1949c369910160405180910390a150600480546001600160a01b0390921661010002610100600160a81b0319909216919091179055565b611601612ada565b6001600160a01b0380821660009081526008602052604090205482911661164657604051630188053b60e41b81526001600160a01b0382166004820152602401610d38565b6000611653836000613489565b111561168057611664826000613489565b60405163065e12d560e21b8152600401610d3891815260200190565b60105460008167ffffffffffffffff81111561169e5761169e6149ab565b6040519080825280602002602001820160405280156116c7578160200160208202803683370190505b50905060005b8281101561177857846001600160a01b0316601082815481106116f2576116f2614f31565b6000918252602090912001546001600160a01b031614611770576010818154811061171f5761171f614f31565b9060005260206000200160009054906101000a90046001600160a01b031682828151811061174f5761174f614f31565b60200260200101906001600160a01b031690816001600160a01b0316815250505b6001016116cd565b506001600160a01b038416600090815260086020908152604080832080546001600160a01b0319169055600a825290912080546001600160f81b031916815560010180546001600160e81b031916905581516117da916010919084019061483c565b506040516001600160a01b038516907f488733c9036773a9b7eb54c8bae0a80e83af9310b561ccd1d92a293a1c74ccf890600090a250505050565b808060000361183a576040516302ee6a2560e21b815260048101829052602401610d38565b611842612ada565b611855670de0b6b3a76400006064614f47565b821115611875576040516358d620b360e01b815260040160405180910390fd5b60015460408051918252602082018490527f24867dfb6fcb9970a07be21024956524abe7a1837faa903ff0e99aaa40cf893e910160405180910390a150600155565b6118bf612ada565b610f7e6000613546565b805160609060008167ffffffffffffffff8111156118e9576118e96149ab565b60405190808252806020026020018201604052801561191c57816020015b60608152602001906001900390816119075790505b50905060005b82811015611a9257600085828151811061193e5761193e614f31565b602002602001015190506000600267ffffffffffffffff811115611964576119646149ab565b60405190808252806020026020018201604052801561198d578160200160208202803683370190505b506001600160a01b0383166000908152600a60205260409020549091506119d390600160781b81046001600160801b0316906201000090046001600160681b0316614f5e565b6001600160801b0316816000815181106119ef576119ef614f31565b602002602001018181525050600a6000836001600160a01b03166001600160a01b0316815260200190815260200160002060010160109054906101000a90046001600160681b03166001600160681b031681600181518110611a5357611a53614f31565b60200260200101818152505080848481518110611a7257611a72614f31565b602002602001018190525050508080611a8a90614f7e565b915050611922565b509392505050565b611aa2612ada565b60dd80546001600160a01b038381166001600160a01b0319831681179093556040519116919082907f90cc2f570a6eb594b1580ea3e41247d2d73a55281889e86bd4ec2fc29c7e62d690600090a35050565b611afc612ada565b6001600160a01b03808316600090815260086020526040902054839116611b4157604051630188053b60e41b81526001600160a01b0382166004820152602401610d38565b8180600003611b66576040516302ee6a2560e21b815260048101829052602401610d38565b6000611b73856000613489565b905080841015611ba05760405163740a50c160e11b81526004810182905260248101859052604401610d38565b611ba984613598565b6001600160a01b0385166000818152600a602090815260409182902060018101548351600160801b9091046001600160681b0316815291820188905292917f113914a326da83d9b14b874c5cc74c6602b1ef1dc38916f0a4b3f618952f77ab910160405180910390a260010180546001600160681b03909516600160801b02600160801b600160e81b03199095169490941790935550505050565b611c4c612ada565b610f7e6135e2565b6001600160a01b038082166000908152600860205260408120549091839116611c9b57604051630188053b60e41b81526001600160a01b0382166004820152602401610d38565b6001600160a01b0383166000908152600a6020526040812054611cdd906201000081046001600160681b031690600160781b90046001600160801b0316614f5e565b6001600160801b03169050611d2d611cf48561361f565b6001600160a01b0386166000908152600a60205260409020548390600160781b90046001600160801b0316611d2888612ede565b613676565b949350505050565b8080600003611d5a576040516302ee6a2560e21b815260048101829052602401610d38565b611d62612ada565b60115460408051918252602082018490527fac4d6cbdebeba4fa044c5641092397b33e96cd72cd2a1f98bd9990376d47a1c8910160405180910390a150601155565b611dac612b34565b611db4612ada565b815181518114611de4578151604051632db9197d60e11b8152610d38918391600401918252602082015260400190565b60005b818160ff161015611e8a576000848260ff1681518110611e0957611e09614f31565b602002602001015190506000848360ff1681518110611e2a57611e2a614f31565b6020908102919091018101516001600160a01b0384166000908152600990925260409091205490915060ff16611e75576000611e668383613489565b9050611e738383836136b6565b505b50508080611e8290614f97565b915050611de7565b505061151b600160a955565b604354610100900460ff1615808015611eb65750604354600160ff909116105b80611ed05750303b158015611ed0575060435460ff166001145b611f335760405162461bcd60e51b815260206004820152602e60248201527f496e697469616c697a61626c653a20636f6e747261637420697320616c72656160448201526d191e481a5b9a5d1a585b1a5e995960921b6064820152608401610d38565b6043805460ff191660011790558015611f56576043805461ff0019166101001790555b611f5e61380e565b611f6661383d565b600080600080600080600088806020019051810190611f859190614fb6565b600580546001600160a01b038089166001600160a01b0319928316179092556007805483891690831617905560008054838b16908316179055600680548388169216919091179055600480546002805460ff19908116600190811790925593871661010002939093166001600160a81b0319909116179091179055959c50939a50919850965094509250905061201a82612a12565b61202381611815565b61202c87610c95565b61203586611a9a565b61203e8761289c565b50505050505050801561151b576043805461ff0019169055604051600181527f7f26b83ff96e1f2b6a682f133852f6798a09c465da95921460cefb38474024989060200160405180910390a15050565b6001600160a01b0380821660009081526008602052604081205490918391166120d557604051630188053b60e41b81526001600160a01b0382166004820152602401610d38565b50506001600160a01b03166000908152600a6020526040902054600160781b90046001600160801b031690565b61210a612b34565b6001600160a01b0380831660009081526008602052604090205483911661214f57604051630188053b60e41b81526001600160a01b0382166004820152602401610d38565b8180600003612174576040516302ee6a2560e21b815260048101829052602401610d38565b6001600160a01b038416600090815260096020526040902054849060ff16156121bb57604051631398937760e11b81526001600160a01b0382166004820152602401610d38565b6121c3612b8d565b6121cc84613598565b6121de856121d98661386c565b6138d9565b6001600160a01b0385166000818152600a602090815260409182902054825188815261ffff9091169181019190915233917f8dda9b4ee6f22899748425b372667196fbbe2eb03059e0ff8643fcb7765549ef9101611506565b6001600160a01b0380831660009081526008602052604081205490918291829186911661228257604051630188053b60e41b81526001600160a01b0382166004820152602401610d38565b846001600160a01b0381166122b557604051633202e20d60e21b81526001600160a01b0382166004820152602401610d38565b6001600160a01b038681166000908152600e60209081526040808320938b168352928152908290208251608081018452815461ffff81168083526201000082046001600160681b0390811695840195909552600160781b9091046001600160801b03169482019490945260019182015490921660608301529091101561234e5761233f8888612912565b600080955095509550506123b3565b6001600160a01b0388166000908152600a6020526040812054825161238f9161ffff169061237d908c90612f6f565b6123868c612ede565b85929190612fdb565b905061239b8989612912565b816123aa836114598d8d612912565b96509650965050505b50509250925092565b6123c4612b34565b6001600160a01b0380831660009081526008602052604090205483911661240957604051630188053b60e41b81526001600160a01b0382166004820152602401610d38565b818060000361242e576040516302ee6a2560e21b815260048101829052602401610d38565b6001600160a01b038416600090815260096020526040902054849060ff161561247557604051631398937760e11b81526001600160a01b0382166004820152602401610d38565b61247d612b8d565b6124878585613a54565b6040518481526001600160a01b0386169033907f0d9825b9d0727eac03dd1f1d6f3f63f66f3f7fc2f580ddbfdc1f735b37ed20df90602001611506565b6124cc612ada565b6001600160a01b0380831660009081526008602052604090205483911661251157604051630188053b60e41b81526001600160a01b0382166004820152602401610d38565b6001600160a01b038316600081815260096020908152604091829020805460ff191686151590811790915591519182527f633e1d52330dad07f84c6baea85e346c63aef6d6f8c8fac74eb2933474070913910160405180910390a2505050565b612579612ada565b6001600160a01b0381161561261f576040516301ffc9a760e01b815263736bd41d60e11b60048201526001600160a01b038216906301ffc9a790602401602060405180830381865afa1580156125d3573d6000803e3d6000fd5b505050506040513d601f19601f820116820180604052508101906125f7919061503e565b61261f576040516358b7533f60e11b81526001600160a01b0382166004820152602401610d38565b60db80546001600160a01b0319166001600160a01b0383169081179091556040519081527f1151116914515bc0891ff9047a6cb32cf902546f83066499bcf8ba33d2353fa29060200160405180910390a150565b81336001600160a01b038216146126ae5760405163c55ddc9760e01b81523360048201526001600160a01b0382166024820152604401610d38565b846001600160a01b0381166126e157604051633202e20d60e21b81526001600160a01b0382166004820152602401610d38565b846001600160a01b03811661271457604051633202e20d60e21b81526001600160a01b0382166004820152602401610d38565b61271c612b34565b73eeeeeeeeeeeeeeeeeeeeeeeeeeeeeeeeeeeeeeed196001600160a01b038816016127bb576000866001600160a01b03168560405160006040518083038185875af1925050503d806000811461278e576040519150601f19603f3d011682016040523d82523d6000602084013e612793565b606091505b50509050806127b557604051639d4a106d60e01b815260040160405180910390fd5b506127cf565b6127cf6001600160a01b0388168786613c88565b866001600160a01b0316866001600160a01b03167fbf6f25202b58108bd03c94f2f54b0367607a091cf7f728d71268f61542534a8e8660405161281491815260200190565b60405180910390a3612826600160a955565b50505050505050565b6000610db78383600154612eb0565b612846612ada565b806001600160a01b03811661287957604051633202e20d60e21b81526001600160a01b0382166004820152602401610d38565b50600080546001600160a01b0319166001600160a01b0392909216919091179055565b6128a4612ada565b6001600160a01b0381166129095760405162461bcd60e51b815260206004820152602660248201527f4f776e61626c653a206e6577206f776e657220697320746865207a65726f206160448201526564647265737360d01b6064820152608401610d38565b610da581613546565b6001600160a01b03808316600090815260086020526040812054909184911661295957604051630188053b60e41b81526001600160a01b0382166004820152602401610d38565b826001600160a01b03811661298c57604051633202e20d60e21b81526001600160a01b0382166004820152602401610d38565b6001600160a01b03858116600090815260086020526040908190205490516370a0823160e01b815286831660048201529116906370a0823190602401602060405180830381865afa1580156129e5573d6000803e3d6000fd5b505050506040513d601f19601f82011682018060405250810190612a099190614f18565b95945050505050565b612a1a612ada565b8080600003612a3f576040516302ee6a2560e21b815260048101829052602401610d38565b612a52670de0b6b3a76400006064614f47565b821115612a72576040516358d620b360e01b815260040160405180910390fd5b601154600090612a9490612a8e85670de0b6b3a7640000613cbd565b90613cc9565b60035460408051918252602082018690529192507f4e874b007ab14f7e263baefd44951834c8266f4f224d1092e49e9c254354cc54910160405180910390a16003555050565b6076546001600160a01b03163314610f7e5760405162461bcd60e51b815260206004820181905260248201527f4f776e61626c653a2063616c6c6572206973206e6f7420746865206f776e65726044820152606401610d38565b600260a95403612b865760405162461bcd60e51b815260206004820152601f60248201527f5265656e7472616e637947756172643a207265656e7472616e742063616c6c006044820152606401610d38565b600260a955565b60a85460ff1615610f7e5760405162461bcd60e51b815260206004820152601060248201526f14185d5cd8589b194e881c185d5cd95960821b6044820152606401610d38565b336000908152600d602090815260408083206001600160a01b03851684528252808320600a90925282208154919290916001600160801b03620100008204169161ffff90911690612c2386612ede565b6001600160a01b0387166000908152600a602052604081205491925061ffff90911690849003612c665760405163fd9149a960e01b815260040160405180910390fd5b8061ffff168361ffff1603612c9c57604051632963a7c560e11b815261ffff808516600483015282166024820152604401610d38565b855462010000600160901b03191686556001850154612cc4906001600160801b031685613cd5565b6001860180546001600160801b0319166001600160801b03929092169190911790556001600160a01b0387166000908152600f6020908152604080832061ffff87168452909152812054612d1a9086908561304c565b336000908152600e602090815260408083206001600160a01b038d1684529091529020909150612d4982613598565b60018101546001600160681b0316821115612d75576001810180546001600160681b0319169055612db1565b6001810154612d8e9083906001600160681b031661505b565b6001820180546001600160681b0319166001600160681b03929092169190911790555b6001600160a01b0389166000908152600b6020526040902054612dd49083613cd5565b6001600160a01b038a81166000908152600b602090815260408083209490945560089052829020549151632770a7eb60e21b815233600482015260248101899052911690639dc29fac90604401600060405180830381600087803b158015612e3b57600080fd5b505af1158015612e4f573d6000803e3d6000fd5b50505050612e5e893384613ce1565b6040518281526001600160a01b038a169033907f5a8ef618c615c5121afbe93f4653c3515e11603aa4f15240e5aaa013f107851c9060200160405180910390a3505050505050505050565b600160a955565b6000611d2d612ec0846064614f47565b612a8e670de0b6b3a76400008188612ed8888a613cbd565b90613cbd565b600073eeeeeeeeeeeeeeeeeeeeeeeeeeeeeeeeeeeeeeed196001600160a01b03831601612f0d57506012919050565b816001600160a01b031663313ce5676040518163ffffffff1660e01b8152600401602060405180830381865afa158015612f4b573d6000803e3d6000fd5b505050506040513d601f19601f82011682018060405250810190610dba9190614f18565b6001600160a01b0382166000908152600f6020908152604080832061ffff851684529091528120548103612fac5750670de0b6b3a7640000610dba565b506001600160a01b0382166000908152600f6020908152604080832061ffff8516845290915290205492915050565b835160009061ffff1615801590612ff65750845161ffff1684115b1561303857600061301586602001516001600160681b03168585613e0f565b6040870151909150613030906001600160801b0316826130ae565b915050611d2d565b50505050604001516001600160801b031690565b6000600183116130965760405162461bcd60e51b8152602060048201526015602482015274496e76616c6964206173736574506572536861726560581b6044820152606401610d38565b611d2d6130a483600a61515f565b612a8e8686613cbd565b6000610db7828461516b565b6130c2613e72565b60a8805460ff191690557f5db9ee0a495bf2e6ff9c91a7834c1ba4fdd244a5e8aa4e537bd38aeae4b073aa335b6040516001600160a01b03909116815260200160405180910390a1565b6000808260601b9050604051733d602d80600a3d3981f3363d3d373d3d3d363d7360601b81528160148201526e5af43d82803e903d91602b57fd5bf360881b60288201526037816000f0949350505050565b6001600160a01b0382166000908152600a602052604081208054909161ffff9091169061318a85612ede565b336000908152600e602090815260408083206001600160a01b038a168085529083528184208251608081018452815461ffff80821683526201000082046001600160681b0390811684890152600160781b9092046001600160801b031683870152600190930154166060820152918552600f845282852082518216865290935290832054939450926132229184919087169086612fdb565b8251909150869061ffff90811690861603613256576020830151600090613252906001600160681b0316896130ae565b9150505b6060830151600090613271906001600160681b0316896130ae565b905060405180608001604052808761ffff168152602001836001600160681b03168152602001846001600160801b03168152602001826001600160681b0316815250600e6000336001600160a01b03166001600160a01b0316815260200190815260200160002060008b6001600160a01b03166001600160a01b0316815260200190815260200160002060008201518160000160006101000a81548161ffff021916908361ffff16021790555060208201518160000160026101000a8154816001600160681b0302191690836001600160681b03160217905550604082015181600001600f6101000a8154816001600160801b0302191690836001600160801b0316021790555060608201518160010160006101000a8154816001600160681b0302191690836001600160681b0316021790555090505060006133dd8989600001600f9054906101000a90046001600160801b03166001600160801b03166130ae90919063ffffffff16565b90506133e881613ebb565b87546001600160801b03909116600160781b02600160781b600160f81b0319909116179096555050505050505050565b6040516001600160a01b03808516602483015283166044820152606481018290526134839085906323b872dd60e01b906084015b60408051601f198184030181529190526020810180516001600160e01b03166001600160e01b031990931692909217909152613f05565b50505050565b6000816000036135405773eeeeeeeeeeeeeeeeeeeeeeeeeeeeeeeeeeeeeeed196001600160a01b038416016134cb57506005546001600160a01b031631610dba565b6005546040516370a0823160e01b81526001600160a01b039182166004820152908416906370a0823190602401602060405180830381865afa158015613515573d6000803e3d6000fd5b505050506040513d601f19601f820116820180604052508101906135399190614f18565b9050610dba565b50919050565b607680546001600160a01b038381166001600160a01b0319831681179093556040519116919082907f8be0079c531659141344cd1fd0a4f28419497f9722a3daafe3b4186f6b6457e090600090a35050565b6001600160681b03811115610da55760405162461bcd60e51b815260206004820152601060248201526f13dd995c999b1bddc81d5a5b9d0c4c0d60821b6044820152606401610d38565b6135ea612b8d565b60a8805460ff191660011790557f62e78cea01bee320cd4e420270b5ea74000d11b0c9f74754ebdbfc544b05a2586130ef3390565b6001600160a01b0380821660009081526008602090815260408083205481516318160ddd60e01b81529151939416926318160ddd926004808401939192918290030181865afa158015612f4b573d6000803e3d6000fd5b60008061368483600a61515f565b90506000861161369457806136ac565b6136ac86612a8e6136a58888613cd5565b8490613cbd565b9695505050505050565b6001600160a01b038084166000908152600860205260409020548491166136fb57604051630188053b60e41b81526001600160a01b0382166004820152602401610d38565b613706848484613fd7565b6001600160a01b0384166000908152600c6020908152604080832054600b9092528220546001600160801b0390911691908190613746908890858961408e565b6001600160a01b0389166000908152600b60209081526040808320849055600a90915281206001810154939550919350909161378b906001600160801b0316866130ae565b905061379681613ebb565b6001820180546001600160801b0383166001600160801b0319918216179091556001600160a01b038a166000908152600c60205260409020805490911690556137de84613598565b5080546001600160681b03909316620100000262010000600160781b031990931692909217909155505050505050565b604354610100900460ff166138355760405162461bcd60e51b8152600401610d389061517e565b610f7e6142fa565b604354610100900460ff166138645760405162461bcd60e51b8152600401610d389061517e565b610f7e61432a565b60006001600160681b038211156138d55760405162461bcd60e51b815260206004820152602760248201527f53616665436173743a2076616c756520646f65736e27742066697420696e20316044820152663034206269747360c81b6064820152608401610d38565b5090565b336000908152600e602090815260408083206001600160a01b03861684528252808320600a9092529091208054825461ffff918216911680821461393e57604051632963a7c560e11b815261ffff808316600483015283166024820152604401610d38565b83546001600160681b03620100009091048116908616811015613986576040516319b9b33960e31b8152600481018290526001600160681b0387166024820152604401610d38565b613998866001600160681b0316613598565b6139ab816001600160681b038816613cd5565b855462010000600160781b031916620100006001600160681b039283160217865560018601546139dd9188911661505b565b6001860180546001600160681b0319166001600160681b039283161790558454613a1a91600160781b9091046001600160801b0316908816613cd5565b84546001600160801b0391909116600160781b02600160781b600160f81b031990911617845561282687336001600160681b038916613ce1565b6001600160a01b0382166000818152600a6020908152604080832054338452600e835281842085855283528184208251608081018452815461ffff80821683526201000082046001600160681b0390811684890152600160781b9092046001600160801b031683870152600190930154166060820152958552600f8452828520865182168652909352908320549116929190613af590849061238688612ede565b905080841115613b225760405163306f6e1960e11b81526004810182905260248101859052604401610d38565b600082602001516001600160681b03161180613b4b5750600082604001516001600160801b0316115b15613b5d57613b5d8583868487614351565b336000908152600d602090815260408083206001600160a01b038916845290915281208054909161ffff86811690831614916201000090046001600160801b0316908215613bb657613baf82896130ae565b9050613bea565b8115613bd85760405163af12574160e01b815260048101839052602401610d38565b50825461ffff191661ffff8716178355865b613bf381613ebb565b83546001600160801b03808316620100000262010000600160901b03199092169190911785556001600160a01b038a166000908152600c6020526040902054613c4691613c4191168a6130ae565b614412565b6001600160a01b03999099166000908152600c6020526040902080546001600160801b0319166001600160801b03909a16999099179098555050505050505050565b6040516001600160a01b038316602482015260448101829052613cb890849063a9059cbb60e01b9060640161344c565b505050565b6000610db78284614f47565b6000610db782846151c9565b6000610db782846151eb565b6006546040516001600160a01b038086166024830152808516604483015290911660648201526084810182905260009060a40160408051601f198184030181529181526020820180516001600160e01b031663e3c6a66560e01b17905260055460048054925163468721a760e01b81529394506001600160a01b039182169363468721a793613d809361010090910416916000918791600191016151fe565b6020604051808303816000875af1158015613d9f573d6000803e3d6000fd5b505050506040513d601f19601f82011682018060405250810190613dc3919061503e565b6134835760405162461bcd60e51b815260206004820152601860248201527f6661696c656420746f207472616e736665722066756e647300000000000000006044820152606401610d38565b600060018311613e595760405162461bcd60e51b8152602060048201526015602482015274496e76616c6964206173736574506572536861726560581b6044820152606401610d38565b611d2d83612a8e613e6b85600a61515f565b8790613cbd565b60a85460ff16610f7e5760405162461bcd60e51b815260206004820152601460248201527314185d5cd8589b194e881b9bdd081c185d5cd95960621b6044820152606401610d38565b6001600160801b03811115610da55760405162461bcd60e51b815260206004820152601060248201526f09eeccae4ccd8deee40ead2dce86264760831b6044820152606401610d38565b6000613f5a826040518060400160405280602081526020017f5361666545524332303a206c6f772d6c6576656c2063616c6c206661696c6564815250856001600160a01b031661447b9092919063ffffffff16565b805190915015613cb85780806020019051810190613f78919061503e565b613cb85760405162461bcd60e51b815260206004820152602a60248201527f5361666545524332303a204552433230206f7065726174696f6e20646964206e6044820152691bdd081cdd58d8d9595960b21b6064820152608401610d38565b6001600160a01b0383166000908152600a602052604081205461401990600160781b81046001600160801b0316906201000090046001600160681b0316614f5e565b6001600160801b0316905082600003614057578082101561405757604051630920c19160e41b81526004810182905260248101839052604401610d38565b60008311801561406657508083105b1561348357604051630920c19160e41b81526004810182905260248101849052604401610d38565b6001600160a01b0384166000908152600a6020526040808220815160a0810190925282918291829182906140f9908b90806140c883612ede565b81526020016140d78e8c613489565b81526020016140e58e61361f565b81526020018c81526020018b81525061448a565b809750819850829550839950849a50505050505060008260000160009054906101000a900461ffff16905081600f60008d6001600160a01b03166001600160a01b0316815260200190815260200160002060008361ffff1661ffff16815260200190815260200160002081905550600083600001600f6101000a8154816001600160801b0302191690836001600160801b0316021790555080600161419e9190615254565b835461ffff191661ffff9190911690811784556001600160a01b038c81166000818152600f602090815260408083209583529481528482206001905591815260089091528290205491516340c10f1960e01b8152306004820152602481018890529116906340c10f1990604401600060405180830381600087803b15801561422557600080fd5b505af1158015614239573d6000803e3d6000fd5b5050505060008411156142a25760005461425e908c906001600160a01b031686613ce1565b8a6001600160a01b03167f2057011bdf5b1ba089ee23fec4fc3df7cb7f231730f4452940200510e1734f2d8560405161429991815260200190565b60405180910390a25b604080518381526020810189905261ffff8316916001600160a01b038e16917fc8d6fd2b6502d24b631c5d0bb16ece6e2864469d00c75491e60fc0aba60ca65c910160405180910390a3505050505094509492505050565b604354610100900460ff166143215760405162461bcd60e51b8152600401610d389061517e565b610f7e33613546565b604354610100900460ff16612ea95760405162461bcd60e51b8152600401610d389061517e565b835161ffff8083169116101561439557336000908152600e602090815260408083206001600160a01b03891684529091529020805462010000600160781b03191690555b61439e83613ebb565b6143a88284613cd5565b336000818152600e602090815260408083206001600160a01b038b8116855290835281842080546001600160801b0397909716600160781b02600160781b600160f81b031990971696909617909555600890915290205461440b92169085613c88565b5050505050565b60006001600160801b038211156138d55760405162461bcd60e51b815260206004820152602760248201527f53616665436173743a2076616c756520646f65736e27742066697420696e20316044820152663238206269747360c81b6064820152608401610d38565b6060611d2d84846000856145c5565b6001600160a01b0382166000908152600a60209081526040808320815160a081018352815461ffff811682526001600160681b0362010000820481168387018190526001600160801b03600160781b90930483169584018690526001909401549182166060808501829052600160801b909304909116608084015294870151908701518695869586958695949391929091614533908d9061452c908790613cd5565b85856146a0565b955061453f8487613cd5565b935061457461455b828d60400151613cd590919063ffffffff16565b60608d015161456b908790613cd5565b8d518690613676565b975061459761458c8c608001518a8e6000015161304c565b60608d0151906130ae565b98506145a883898d60000151613e0f565b96506145b4848a613cd5565b995050505050509295509295909350565b6060824710156146265760405162461bcd60e51b815260206004820152602660248201527f416464726573733a20696e73756666696369656e742062616c616e636520666f6044820152651c8818d85b1b60d21b6064820152608401610d38565b600080866001600160a01b03168587604051614642919061526f565b60006040518083038185875af1925050503d806000811461467f576040519150601f19603f3d011682016040523d82523d6000602084013e614684565b606091505b509150915061469587838387614752565b979650505050505050565b6000808385116146b15760006146bb565b6146bb8585613cd5565b905060008060006146cb89612ede565b6146d690600a61515f565b90508584111561473b5760025460ff1615614712576000600154116146fc57600061470f565b61470f6147098588613cd5565b8261282f565b92505b60045460ff161561473b5760006003541161472e576000614738565b6147388482610da8565b91505b61474583836130ae565b9998505050505050505050565b606083156147c15782516000036147ba576001600160a01b0385163b6147ba5760405162461bcd60e51b815260206004820152601d60248201527f416464726573733a2063616c6c20746f206e6f6e2d636f6e74726163740000006044820152606401610d38565b5081611d2d565b611d2d83838151156147d65781518083602001fd5b8060405162461bcd60e51b8152600401610d38919061528b565b8280548282559060005260206000209081019282156148305760005260206000209182015b82811115614830578254825591600101919060010190614815565b506138d5929150614891565b828054828255906000526020600020908101928215614830579160200282015b8281111561483057825182546001600160a01b0319166001600160a01b0390911617825560209092019160019091019061485c565b5b808211156138d55760008155600101614892565b6001600160a01b0381168114610da557600080fd5b6000602082840312156148cd57600080fd5b81356148d8816148a6565b9392505050565b600080604083850312156148f257600080fd5b50508035926020909101359150565b6000806040838503121561491457600080fd5b823561491f816148a6565b9150602083013561492f816148a6565b809150509250929050565b6000806040838503121561494d57600080fd5b8235614958816148a6565b9150602083013561ffff8116811461492f57600080fd5b8015158114610da557600080fd5b6000806040838503121561499057600080fd5b823561499b8161496f565b9150602083013561492f8161496f565b634e487b7160e01b600052604160045260246000fd5b604051601f8201601f1916810167ffffffffffffffff811182821017156149ea576149ea6149ab565b604052919050565b600067ffffffffffffffff831115614a0c57614a0c6149ab565b614a1f601f8401601f19166020016149c1565b9050828152838383011115614a3357600080fd5b828260208301376000602084830101529392505050565b600082601f830112614a5b57600080fd5b610db7838335602085016149f2565b60008060008060808587031215614a8057600080fd5b843567ffffffffffffffff80821115614a9857600080fd5b614aa488838901614a4a565b95506020870135915080821115614aba57600080fd5b50614ac787828801614a4a565b9350506040850135614ad8816148a6565b915060608501356001600160681b0381168114614af457600080fd5b939692955090935050565b60008060408385031215614b1257600080fd5b8235614b1d816148a6565b946020939093013593505050565b600060208284031215614b3d57600080fd5b5035919050565b600067ffffffffffffffff821115614b5e57614b5e6149ab565b5060051b60200190565b600082601f830112614b7957600080fd5b81356020614b8e614b8983614b44565b6149c1565b82815260059290921b84018101918181019086841115614bad57600080fd5b8286015b84811015614bd1578035614bc4816148a6565b8352918301918301614bb1565b509695505050505050565b600060208284031215614bee57600080fd5b813567ffffffffffffffff811115614c0557600080fd5b611d2d84828501614b68565b6000602080830181845280855180835260408601915060408160051b87010192508387016000805b83811015614c8d57888603603f19018552825180518088529088019088880190845b81811015614c775783518352928a0192918a0191600101614c5b565b5090975050509386019391860191600101614c39565b509398975050505050505050565b60008060408385031215614cae57600080fd5b823567ffffffffffffffff80821115614cc657600080fd5b614cd286838701614b68565b9350602091508185013581811115614ce957600080fd5b85019050601f81018613614cfc57600080fd5b8035614d0a614b8982614b44565b81815260059190911b82018301908381019088831115614d2957600080fd5b928401925b82841015614d4757833582529284019290840190614d2e565b80955050505050509250929050565b600060208284031215614d6857600080fd5b813567ffffffffffffffff811115614d7f57600080fd5b8201601f81018413614d9057600080fd5b611d2d848235602084016149f2565b60008060408385031215614db257600080fd5b823561499b816148a6565b60008060008060808587031215614dd357600080fd5b8435614dde816148a6565b93506020850135614dee816148a6565b92506040850135614dfe816148a6565b9396929550929360600135925050565b634e487b7160e01b600052601160045260246000fd5b61ffff828116828216039080821115614e3f57614e3f614e0e565b5092915050565b60005b83811015614e61578181015183820152602001614e49565b50506000910152565b60008151808452614e82816020860160208601614e46565b601f01601f19169290920160200192915050565b606081526000614ea96060830186614e6a565b8281036020840152614ebb8186614e6a565b91505060ff83166040830152949350505050565b608081526000614ee26080830187614e6a565b8281036020840152614ef48187614e6a565b91505060ff841660408301526001600160681b038316606083015295945050505050565b600060208284031215614f2a57600080fd5b5051919050565b634e487b7160e01b600052603260045260246000fd5b8082028115828204841417610dba57610dba614e0e565b6001600160801b03818116838216019080821115614e3f57614e3f614e0e565b600060018201614f9057614f90614e0e565b5060010190565b600060ff821660ff8103614fad57614fad614e0e565b60010192915050565b600080600080600080600060e0888a031215614fd157600080fd5b8751614fdc816148a6565b6020890151909750614fed816148a6565b6040890151909650614ffe816148a6565b606089015190955061500f816148a6565b6080890151909450615020816148a6565b8093505060a0880151915060c0880151905092959891949750929550565b60006020828403121561505057600080fd5b81516148d88161496f565b6001600160681b03828116828216039080821115614e3f57614e3f614e0e565b600181815b808511156150b657816000190482111561509c5761509c614e0e565b808516156150a957918102915b93841c9390800290615080565b509250929050565b6000826150cd57506001610dba565b816150da57506000610dba565b81600181146150f057600281146150fa57615116565b6001915050610dba565b60ff84111561510b5761510b614e0e565b50506001821b610dba565b5060208310610133831016604e8410600b8410161715615139575081810a610dba565b615143838361507b565b806000190482111561515757615157614e0e565b029392505050565b6000610db783836150be565b80820180821115610dba57610dba614e0e565b6020808252602b908201527f496e697469616c697a61626c653a20636f6e7472616374206973206e6f74206960408201526a6e697469616c697a696e6760a81b606082015260800190565b6000826151e657634e487b7160e01b600052601260045260246000fd5b500490565b81810381811115610dba57610dba614e0e565b60018060a01b03851681528360208201526080604082015260006152256080830185614e6a565b90506002831061524557634e487b7160e01b600052602160045260246000fd5b82606083015295945050505050565b61ffff818116838216019080821115614e3f57614e3f614e0e565b60008251615281818460208701614e46565b9190910192915050565b602081526000610db76020830184614e6a56fea2646970667358221220faaf538452b431ee4d6f22f2316ac917d5e668c0cfe8653683e59c49d332013c64736f6c63430008120033",
  "devdoc": {
    "events": {
      "AvatarSet(address,address)": {
        "details": "Emitted each time the avatar is set."
      },
      "Initialized(uint8)": {
        "details": "Triggered when the contract has been initialized or reinitialized."
      },
      "Paused(address)": {
        "details": "Emitted when the pause is triggered by `account`."
      },
      "TargetSet(address,address)": {
        "details": "Emitted each time the Target is set."
      },
      "Unpaused(address)": {
        "details": "Emitted when the pause is lifted by `account`."
      }
    },
    "kind": "dev",
    "methods": {
      "changeAssetStatus(address,bool)": {
        "params": {
          "status": "enable/disable status of asset",
          "token": "asset address"
        }
      },
      "closeTokensRound(address[],uint256[])": {
        "params": {
          "totalTokensBalance": "- array of token balances."
        }
      },
      "createToken(string,string,address,uint104)": {
        "params": {
          "name": "name of crtoken  .",
          "symbol": "symbol of crtoken ."
        }
      },
      "deListTokens(address)": {
        "params": {
          "token": "- asset to delist from the contract."
        }
      },
      "deposit(address,uint256)": {
        "params": {
          "amount": "is the amount of `asset` to deposit.",
          "token": "depositing token address."
        }
      },
      "initiateWithdrawal(address,uint256)": {
        "params": {
          "numShares": "is the number of shares to withdraw",
          "token": "withdrawal `asset` address."
        }
      },
      "instantWithdrawal(address,uint256)": {
        "params": {
          "amount": "is the amount to withdraw.",
          "token": "withdrawal `asset` address."
        }
      },
      "owner()": {
        "details": "Returns the address of the current owner."
      },
      "pause()": {
        "details": "Triggers stopped state. Requirements: - The contract must not be paused."
      },
      "paused()": {
        "details": "Returns true if the contract is paused, and false otherwise."
      },
      "renounceOwnership()": {
        "details": "Leaves the contract without owner. It will not be possible to call `onlyOwner` functions anymore. Can only be called by the current owner. NOTE: Renouncing ownership will leave the contract without an owner, thereby removing any functionality that is only available to the owner."
      },
      "setAvatar(address)": {
        "details": "Sets the avatar to a new avatar (`newAvatar`)."
      },
      "setCap(address,uint256)": {
        "params": {
          "newCap": "is the new cap for deposits.",
          "token": "is the address for which we have to set new cap."
        }
      },
      "setFeeRecipient(address)": {
        "params": {
          "newFeeRecipient": "is the address of the new feeRecipient_."
        }
      },
      "setFeeStatus(bool,bool)": {
        "params": {
          "_managementFee": "is the management fee status",
          "_performanceFee": "is the performance fee status"
        }
      },
      "setGuard(address)": {
        "details": "Set a guard that checks transactions before execution.",
        "params": {
          "_guard": "The address of the guard to be used or the 0 address to disable the guard."
        }
      },
      "setManagementFee(uint256)": {
        "params": {
          "newManagementFee": "is the management fee (18 decimals). ex: 2 * 10 ** 18 = 2%"
        }
      },
      "setPerformanceFee(uint256)": {
        "params": {
          "newPerformanceFee": "is the performance fee (18 decimals). ex: 20 * 10 ** 18 = 20%"
        }
      },
      "setTarget(address)": {
        "details": "Sets the target to a new target (`newTarget`)."
      },
      "setUp(bytes)": {
        "details": "Initialize function, will be triggered when a new Cruize contract deployed.",
        "params": {
          "initializeParams": "Parameters of initialization encoded."
        }
      },
      "shareBalances(address,address)": {
        "params": {
          "account": "is the account to lookup share balance for.",
          "token": "is the `asset` address for which shares are calculating."
        },
        "returns": {
          "heldByAccount": "is the shares held by account.",
          "heldByVault": "is the shares held on the vault (unredeemedShares)."
        }
      },
      "standardWithdrawal(address)": {
        "params": {
          "token": "depositing token address."
        }
      },
      "transferFromSafe(address,address,address,uint256)": {
        "params": {
          "_amount": "the transfer amount",
          "_paymentToken": "withdrawal token address.",
          "_receiver": "is the receiving address."
        }
      },
      "transferOwnership(address)": {
        "details": "Transfers ownership of the contract to a new account (`newOwner`). Can only be called by the current owner."
      },
      "unpause()": {
        "details": "Returns to normal state. Requirements: - The contract must be paused."
      }
    },
    "version": 1
  },
  "userdoc": {
    "errors": {
      "NotIERC165Compliant(address)": [
        {
          "notice": "`guard_` does not implement IERC165."
        }
      ]
    },
    "kind": "user",
    "methods": {
      "ETH()": {
        "notice": "ETH 0xEeeeeEeeeEeEeeEeEeEeeEEEeeeeEeeeeeeeEEeE"
      },
      "balanceOf(address,address)": {
        "notice": "Returns the cr`token` balance."
      },
      "changeAssetStatus(address,bool)": {
        "notice": "Enable or Disable the asset status, so cruize can stop/resume token operations"
      },
      "closeTokensRound(address[],uint256[])": {
        "notice": "function closeRound  will be responsible for closing vault rounds."
      },
      "crContract()": {
        "notice": "crContract address that will be used to create new crcontract clone"
      },
      "createToken(string,string,address,uint104)": {
        "notice": "createToken will Clone CRTokenUpgradeable (ERC20 token)."
      },
      "cruizeProxy()": {
        "notice": "gnosis safe address where all the fund will be locked"
      },
      "cruizeTokens(address)": {
        "notice": "crtokens mint for user's share's"
      },
      "currentQueuedWithdrawalShares(address)": {
        "notice": "Queued withdraw shares for the current round"
      },
      "deposit(address,uint256)": {
        "notice": "Deposits the `asset` from msg.sender"
      },
      "depositReceipts(address,address)": {
        "notice": "Stores the user's pending deposit for the round"
      },
      "feeRecipient()": {
        "notice": "Fee recipient for the management fees"
      },
      "getManagementFee(uint256,uint256)": {
        "notice": "Returns the vault managementFee."
      },
      "getPerformanceFee(uint256,uint256)": {
        "notice": "Returns the vault performanceFee."
      },
      "gnosisSafe()": {
        "notice": "gnosis safe address where all the fund will be locked"
      },
      "initiateWithdrawal(address,uint256)": {
        "notice": "Initiates a withdrawal that can be processed once the round completes"
      },
      "instantWithdrawal(address,uint256)": {
        "notice": "Withdraws the assets on the vault using the outstanding `DepositReceipt.amount`"
      },
      "isDisable(address)": {
        "notice": "Enable/Disable tokens"
      },
      "lastQueuedWithdrawAmounts(address)": {
        "notice": "Queued withdrawal amount in the last round"
      },
      "managementFee()": {
        "notice": "Management fee charged on entire AUM in rollToNextOption. Only charged when there is no loss."
      },
      "module()": {
        "notice": "role in charge of weekly vault operations such as transfer fund and burn tokens"
      },
      "performanceFee()": {
        "notice": "Performance fee charged on premiums earned in rollToNextOption. Only charged when there is no loss."
      },
      "roundPricePerShare(address,uint16)": {
        "notice": "On every round's close, the pricePerShare value of an crToken token is stored This is used to determine the number of shares to be returned to a user with their DepositReceipt.depositAmount"
      },
      "setAvatar(address)": {
        "notice": "Can only be called by the current owner."
      },
      "setCap(address,uint256)": {
        "notice": "Sets a new cap for deposits."
      },
      "setFeeRecipient(address)": {
        "notice": "Sets the new newFeeRecipient_."
      },
      "setFeeStatus(bool,bool)": {
        "notice": "Sets the management/performance fee status enable/disable."
      },
      "setManagementFee(uint256)": {
        "notice": "Sets the management fee for the rounds."
      },
      "setPerformanceFee(uint256)": {
        "notice": "Sets the performance fee for the vault"
      },
      "setTarget(address)": {
        "notice": "Can only be called by the current owner."
      },
      "setUp(bytes)": {
        "notice": "Initializes the gnosis Module contract with storage variables."
      },
      "shareBalances(address,address)": {
        "notice": "Getter for returning the account's share balance split between account and vault holdings"
      },
      "standardWithdrawal(address)": {
        "notice": "Completes a scheduled withdrawal from a past round. Uses finalized pps for the round"
      },
      "totalTokenPending(address)": {
        "notice": "Returns the vault total pending."
      },
      "transferFromSafe(address,address,address,uint256)": {
        "notice": "Main function to make delegatecall on Gnosis Safe to transfer either an ETH transfer or ERC20 transfer."
      },
      "vaults(address)": {
        "notice": "Stores vaults state for every round"
      },
      "withdrawals(address,address)": {
        "notice": "Stores pending user withdrawals"
      }
    },
    "version": 1
  },
  "storageLayout": {
    "storage": [
      {
        "astId": 11122,
        "contract": "contracts/Cruize.sol:Cruize",
        "label": "feeRecipient",
        "offset": 0,
        "slot": "0",
        "type": "t_address"
      },
      {
        "astId": 11125,
        "contract": "contracts/Cruize.sol:Cruize",
        "label": "performanceFee",
        "offset": 0,
        "slot": "1",
        "type": "t_uint256"
      },
      {
        "astId": 11127,
        "contract": "contracts/Cruize.sol:Cruize",
        "label": "isPerformanceFeeEnabled",
        "offset": 0,
        "slot": "2",
        "type": "t_bool"
      },
      {
        "astId": 11130,
        "contract": "contracts/Cruize.sol:Cruize",
        "label": "managementFee",
        "offset": 0,
        "slot": "3",
        "type": "t_uint256"
      },
      {
        "astId": 11132,
        "contract": "contracts/Cruize.sol:Cruize",
        "label": "isManagementFeeEnable",
        "offset": 0,
        "slot": "4",
        "type": "t_bool"
      },
      {
        "astId": 11135,
        "contract": "contracts/Cruize.sol:Cruize",
        "label": "module",
        "offset": 1,
        "slot": "4",
        "type": "t_address"
      },
      {
        "astId": 11138,
        "contract": "contracts/Cruize.sol:Cruize",
        "label": "gnosisSafe",
        "offset": 0,
        "slot": "5",
        "type": "t_address"
      },
      {
        "astId": 11141,
        "contract": "contracts/Cruize.sol:Cruize",
        "label": "cruizeProxy",
        "offset": 0,
        "slot": "6",
        "type": "t_address"
      },
      {
        "astId": 11144,
        "contract": "contracts/Cruize.sol:Cruize",
        "label": "crContract",
        "offset": 0,
        "slot": "7",
        "type": "t_address"
      },
      {
        "astId": 11162,
        "contract": "contracts/Cruize.sol:Cruize",
        "label": "cruizeTokens",
        "offset": 0,
        "slot": "8",
        "type": "t_mapping(t_address,t_address)"
      },
      {
        "astId": 11167,
        "contract": "contracts/Cruize.sol:Cruize",
        "label": "isDisable",
        "offset": 0,
        "slot": "9",
        "type": "t_mapping(t_address,t_bool)"
      },
      {
        "astId": 11173,
        "contract": "contracts/Cruize.sol:Cruize",
        "label": "vaults",
        "offset": 0,
        "slot": "10",
        "type": "t_mapping(t_address,t_struct(VaultState)8846_storage)"
      },
      {
        "astId": 11178,
        "contract": "contracts/Cruize.sol:Cruize",
        "label": "lastQueuedWithdrawAmounts",
        "offset": 0,
        "slot": "11",
        "type": "t_mapping(t_address,t_uint256)"
      },
      {
        "astId": 11183,
        "contract": "contracts/Cruize.sol:Cruize",
        "label": "currentQueuedWithdrawalShares",
        "offset": 0,
        "slot": "12",
        "type": "t_mapping(t_address,t_uint128)"
      },
      {
        "astId": 11191,
        "contract": "contracts/Cruize.sol:Cruize",
        "label": "withdrawals",
        "offset": 0,
        "slot": "13",
        "type": "t_mapping(t_address,t_mapping(t_address,t_struct(Withdrawal)8860_storage))"
      },
      {
        "astId": 11199,
        "contract": "contracts/Cruize.sol:Cruize",
        "label": "depositReceipts",
        "offset": 0,
        "slot": "14",
        "type": "t_mapping(t_address,t_mapping(t_address,t_struct(DepositReceipt)8855_storage))"
      },
      {
        "astId": 11206,
        "contract": "contracts/Cruize.sol:Cruize",
        "label": "roundPricePerShare",
        "offset": 0,
        "slot": "15",
        "type": "t_mapping(t_address,t_mapping(t_uint16,t_uint256))"
      },
      {
        "astId": 11209,
        "contract": "contracts/Cruize.sol:Cruize",
        "label": "tokens",
        "offset": 0,
        "slot": "16",
        "type": "t_array(t_address)dyn_storage"
      },
      {
        "astId": 11212,
        "contract": "contracts/Cruize.sol:Cruize",
        "label": "ROUND_PER_YEAR",
        "offset": 0,
        "slot": "17",
        "type": "t_uint256"
      },
      {
        "astId": 11217,
        "contract": "contracts/Cruize.sol:Cruize",
        "label": "__cruize_gap",
        "offset": 0,
        "slot": "18",
        "type": "t_array(t_uint256)49_storage"
      },
      {
        "astId": 9101,
        "contract": "contracts/Cruize.sol:Cruize",
        "label": "_initialized",
        "offset": 0,
        "slot": "67",
        "type": "t_uint8"
      },
      {
        "astId": 9104,
        "contract": "contracts/Cruize.sol:Cruize",
        "label": "_initializing",
        "offset": 1,
        "slot": "67",
        "type": "t_bool"
      },
      {
        "astId": 9588,
        "contract": "contracts/Cruize.sol:Cruize",
        "label": "__context_gap",
        "offset": 0,
        "slot": "68",
        "type": "t_array(t_uint256)50_storage"
      },
      {
        "astId": 8973,
        "contract": "contracts/Cruize.sol:Cruize",
        "label": "_owner",
        "offset": 0,
        "slot": "118",
        "type": "t_address"
      },
      {
        "astId": 9093,
        "contract": "contracts/Cruize.sol:Cruize",
        "label": "__ownable_gap",
        "offset": 0,
        "slot": "119",
        "type": "t_array(t_uint256)49_storage"
      },
      {
        "astId": 9607,
        "contract": "contracts/Cruize.sol:Cruize",
        "label": "_paused",
        "offset": 0,
        "slot": "168",
        "type": "t_bool"
      },
      {
        "astId": 9722,
        "contract": "contracts/Cruize.sol:Cruize",
        "label": "_status",
        "offset": 0,
        "slot": "169",
        "type": "t_uint256"
      },
      {
        "astId": 9780,
        "contract": "contracts/Cruize.sol:Cruize",
        "label": "__reentrancy_gap",
        "offset": 0,
        "slot": "170",
        "type": "t_array(t_uint256)49_storage"
      },
      {
        "astId": 10428,
        "contract": "contracts/Cruize.sol:Cruize",
        "label": "guard",
        "offset": 0,
        "slot": "219",
        "type": "t_address"
      },
      {
        "astId": 10106,
        "contract": "contracts/Cruize.sol:Cruize",
        "label": "avatar",
        "offset": 0,
        "slot": "220",
        "type": "t_address"
      },
      {
        "astId": 10109,
        "contract": "contracts/Cruize.sol:Cruize",
        "label": "target",
        "offset": 0,
        "slot": "221",
        "type": "t_address"
      }
    ],
    "types": {
      "t_address": {
        "encoding": "inplace",
        "label": "address",
        "numberOfBytes": "20"
      },
      "t_array(t_address)dyn_storage": {
        "base": "t_address",
        "encoding": "dynamic_array",
        "label": "address[]",
        "numberOfBytes": "32"
      },
      "t_array(t_uint256)49_storage": {
        "base": "t_uint256",
        "encoding": "inplace",
        "label": "uint256[49]",
        "numberOfBytes": "1568"
      },
      "t_array(t_uint256)50_storage": {
        "base": "t_uint256",
        "encoding": "inplace",
        "label": "uint256[50]",
        "numberOfBytes": "1600"
      },
      "t_bool": {
        "encoding": "inplace",
        "label": "bool",
        "numberOfBytes": "1"
      },
      "t_mapping(t_address,t_address)": {
        "encoding": "mapping",
        "key": "t_address",
        "label": "mapping(address => address)",
        "numberOfBytes": "32",
        "value": "t_address"
      },
      "t_mapping(t_address,t_bool)": {
        "encoding": "mapping",
        "key": "t_address",
        "label": "mapping(address => bool)",
        "numberOfBytes": "32",
        "value": "t_bool"
      },
      "t_mapping(t_address,t_mapping(t_address,t_struct(DepositReceipt)8855_storage))": {
        "encoding": "mapping",
        "key": "t_address",
        "label": "mapping(address => mapping(address => struct Types.DepositReceipt))",
        "numberOfBytes": "32",
        "value": "t_mapping(t_address,t_struct(DepositReceipt)8855_storage)"
      },
      "t_mapping(t_address,t_mapping(t_address,t_struct(Withdrawal)8860_storage))": {
        "encoding": "mapping",
        "key": "t_address",
        "label": "mapping(address => mapping(address => struct Types.Withdrawal))",
        "numberOfBytes": "32",
        "value": "t_mapping(t_address,t_struct(Withdrawal)8860_storage)"
      },
      "t_mapping(t_address,t_mapping(t_uint16,t_uint256))": {
        "encoding": "mapping",
        "key": "t_address",
        "label": "mapping(address => mapping(uint16 => uint256))",
        "numberOfBytes": "32",
        "value": "t_mapping(t_uint16,t_uint256)"
      },
      "t_mapping(t_address,t_struct(DepositReceipt)8855_storage)": {
        "encoding": "mapping",
        "key": "t_address",
        "label": "mapping(address => struct Types.DepositReceipt)",
        "numberOfBytes": "32",
        "value": "t_struct(DepositReceipt)8855_storage"
      },
      "t_mapping(t_address,t_struct(VaultState)8846_storage)": {
        "encoding": "mapping",
        "key": "t_address",
        "label": "mapping(address => struct Types.VaultState)",
        "numberOfBytes": "32",
        "value": "t_struct(VaultState)8846_storage"
      },
      "t_mapping(t_address,t_struct(Withdrawal)8860_storage)": {
        "encoding": "mapping",
        "key": "t_address",
        "label": "mapping(address => struct Types.Withdrawal)",
        "numberOfBytes": "32",
        "value": "t_struct(Withdrawal)8860_storage"
      },
      "t_mapping(t_address,t_uint128)": {
        "encoding": "mapping",
        "key": "t_address",
        "label": "mapping(address => uint128)",
        "numberOfBytes": "32",
        "value": "t_uint128"
      },
      "t_mapping(t_address,t_uint256)": {
        "encoding": "mapping",
        "key": "t_address",
        "label": "mapping(address => uint256)",
        "numberOfBytes": "32",
        "value": "t_uint256"
      },
      "t_mapping(t_uint16,t_uint256)": {
        "encoding": "mapping",
        "key": "t_uint16",
        "label": "mapping(uint16 => uint256)",
        "numberOfBytes": "32",
        "value": "t_uint256"
      },
      "t_struct(DepositReceipt)8855_storage": {
        "encoding": "inplace",
        "label": "struct Types.DepositReceipt",
        "members": [
          {
            "astId": 8848,
            "contract": "contracts/Cruize.sol:Cruize",
            "label": "round",
            "offset": 0,
            "slot": "0",
            "type": "t_uint16"
          },
          {
            "astId": 8850,
            "contract": "contracts/Cruize.sol:Cruize",
            "label": "amount",
            "offset": 2,
            "slot": "0",
            "type": "t_uint104"
          },
          {
            "astId": 8852,
            "contract": "contracts/Cruize.sol:Cruize",
            "label": "unredeemedShares",
            "offset": 15,
            "slot": "0",
            "type": "t_uint128"
          },
          {
            "astId": 8854,
            "contract": "contracts/Cruize.sol:Cruize",
            "label": "totalDeposit",
            "offset": 0,
            "slot": "1",
            "type": "t_uint104"
          }
        ],
        "numberOfBytes": "64"
      },
      "t_struct(VaultState)8846_storage": {
        "encoding": "inplace",
        "label": "struct Types.VaultState",
        "members": [
          {
            "astId": 8837,
            "contract": "contracts/Cruize.sol:Cruize",
            "label": "round",
            "offset": 0,
            "slot": "0",
            "type": "t_uint16"
          },
          {
            "astId": 8839,
            "contract": "contracts/Cruize.sol:Cruize",
            "label": "lockedAmount",
            "offset": 2,
            "slot": "0",
            "type": "t_uint104"
          },
          {
            "astId": 8841,
            "contract": "contracts/Cruize.sol:Cruize",
            "label": "totalPending",
            "offset": 15,
            "slot": "0",
            "type": "t_uint128"
          },
          {
            "astId": 8843,
            "contract": "contracts/Cruize.sol:Cruize",
            "label": "queuedWithdrawShares",
            "offset": 0,
            "slot": "1",
            "type": "t_uint128"
          },
          {
            "astId": 8845,
            "contract": "contracts/Cruize.sol:Cruize",
            "label": "cap",
            "offset": 16,
            "slot": "1",
            "type": "t_uint104"
          }
        ],
        "numberOfBytes": "64"
      },
      "t_struct(Withdrawal)8860_storage": {
        "encoding": "inplace",
        "label": "struct Types.Withdrawal",
        "members": [
          {
            "astId": 8857,
            "contract": "contracts/Cruize.sol:Cruize",
            "label": "round",
            "offset": 0,
            "slot": "0",
            "type": "t_uint16"
          },
          {
            "astId": 8859,
            "contract": "contracts/Cruize.sol:Cruize",
            "label": "shares",
            "offset": 2,
            "slot": "0",
            "type": "t_uint128"
          }
        ],
        "numberOfBytes": "32"
      },
      "t_uint104": {
        "encoding": "inplace",
        "label": "uint104",
        "numberOfBytes": "13"
      },
      "t_uint128": {
        "encoding": "inplace",
        "label": "uint128",
        "numberOfBytes": "16"
      },
      "t_uint16": {
        "encoding": "inplace",
        "label": "uint16",
        "numberOfBytes": "2"
      },
      "t_uint256": {
        "encoding": "inplace",
        "label": "uint256",
        "numberOfBytes": "32"
      },
      "t_uint8": {
        "encoding": "inplace",
        "label": "uint8",
        "numberOfBytes": "1"
      }
    }
  }
}