{
  "address": "0x53aa75afa9D266619B561397D964931C007dfc5C",
  "abi": [
    {
      "inputs": [
        {
          "internalType": "address",
          "name": "_logic",
          "type": "address"
        },
        {
          "internalType": "address",
          "name": "crAdmin",
          "type": "address"
        },
        {
          "internalType": "bytes",
          "name": "_data",
          "type": "bytes"
        }
      ],
      "stateMutability": "nonpayable",
      "type": "constructor"
    },
    {
      "anonymous": false,
      "inputs": [
        {
          "indexed": false,
          "internalType": "address",
          "name": "previousAdmin",
          "type": "address"
        },
        {
          "indexed": false,
          "internalType": "address",
          "name": "newAdmin",
          "type": "address"
        }
      ],
      "name": "AdminChanged",
      "type": "event"
    },
    {
      "anonymous": false,
      "inputs": [
        {
          "indexed": true,
          "internalType": "address",
          "name": "beacon",
          "type": "address"
        }
      ],
      "name": "BeaconUpgraded",
      "type": "event"
    },
    {
      "anonymous": false,
      "inputs": [
        {
          "indexed": true,
          "internalType": "address",
          "name": "implementation",
          "type": "address"
        }
      ],
      "name": "Upgraded",
      "type": "event"
    },
    {
      "stateMutability": "payable",
      "type": "fallback"
    },
    {
      "inputs": [],
      "name": "MAX_LOCK",
      "outputs": [
        {
          "internalType": "uint256",
          "name": "",
          "type": "uint256"
        }
      ],
      "stateMutability": "view",
      "type": "function"
    },
    {
      "inputs": [],
      "name": "POOL",
      "outputs": [
        {
          "internalType": "address",
          "name": "",
          "type": "address"
        }
      ],
      "stateMutability": "view",
      "type": "function"
    },
    {
      "inputs": [],
      "name": "PRECISION",
      "outputs": [
        {
          "internalType": "uint248",
          "name": "",
          "type": "uint248"
        }
      ],
      "stateMutability": "view",
      "type": "function"
    },
    {
      "inputs": [],
      "name": "RAMSES_GAUGE",
      "outputs": [
        {
          "internalType": "contract IGauge",
          "name": "",
          "type": "address"
        }
      ],
      "stateMutability": "view",
      "type": "function"
    },
    {
      "inputs": [],
      "name": "RAMSES_ROUTER",
      "outputs": [
        {
          "internalType": "contract IRouter",
          "name": "",
          "type": "address"
        }
      ],
      "stateMutability": "view",
      "type": "function"
    },
    {
      "inputs": [],
      "name": "RAMSES_VOTER",
      "outputs": [
        {
          "internalType": "contract IVoter",
          "name": "",
          "type": "address"
        }
      ],
      "stateMutability": "view",
      "type": "function"
    },
    {
      "inputs": [],
      "name": "RAMSES_VOTING_ESCROW",
      "outputs": [
        {
          "internalType": "contract IVotingEscrow",
          "name": "",
          "type": "address"
        }
      ],
      "stateMutability": "view",
      "type": "function"
    },
    {
      "inputs": [],
      "name": "RAM_TOKEN",
      "outputs": [
        {
          "internalType": "contract IERC20",
          "name": "",
          "type": "address"
        }
      ],
      "stateMutability": "view",
      "type": "function"
    },
    {
      "inputs": [],
      "name": "admin",
      "outputs": [
        {
          "internalType": "address",
          "name": "admin_",
          "type": "address"
        }
      ],
      "stateMutability": "nonpayable",
      "type": "function"
    },
    {
      "inputs": [
        {
          "internalType": "address",
          "name": "newAdmin",
          "type": "address"
        }
      ],
      "name": "changeAdmin",
      "outputs": [],
      "stateMutability": "nonpayable",
      "type": "function"
    },
    {
      "inputs": [
        {
          "internalType": "address",
          "name": "",
          "type": "address"
        }
      ],
      "name": "deposits",
      "outputs": [
        {
          "internalType": "uint256",
          "name": "amount0",
          "type": "uint256"
        },
        {
          "internalType": "uint256",
          "name": "amount1",
          "type": "uint256"
        },
        {
          "internalType": "uint256",
          "name": "liquidity",
          "type": "uint256"
        },
        {
          "internalType": "bool",
          "name": "onlyLiquidity",
          "type": "bool"
        }
      ],
      "stateMutability": "view",
      "type": "function"
    },
    {
      "inputs": [
        {
          "internalType": "address",
          "name": "",
          "type": "address"
        }
      ],
      "name": "derivedBalances",
      "outputs": [
        {
          "internalType": "uint256",
          "name": "",
          "type": "uint256"
        }
      ],
      "stateMutability": "view",
      "type": "function"
    },
    {
      "inputs": [],
      "name": "derivedSupply",
      "outputs": [
        {
          "internalType": "uint256",
          "name": "",
          "type": "uint256"
        }
      ],
      "stateMutability": "view",
      "type": "function"
    },
    {
      "inputs": [],
      "name": "feeRecipient",
      "outputs": [
        {
          "internalType": "address",
          "name": "",
          "type": "address"
        }
      ],
      "stateMutability": "view",
      "type": "function"
    },
    {
      "inputs": [],
      "name": "implementation",
      "outputs": [
        {
          "internalType": "address",
          "name": "implementation_",
          "type": "address"
        }
      ],
      "stateMutability": "nonpayable",
      "type": "function"
    },
    {
      "inputs": [],
      "name": "lp",
      "outputs": [
        {
          "internalType": "contract IPair",
          "name": "",
          "type": "address"
        }
      ],
      "stateMutability": "view",
      "type": "function"
    },
    {
      "inputs": [],
      "name": "rewardPerTokenStored",
      "outputs": [
        {
          "internalType": "uint256",
          "name": "",
          "type": "uint256"
        }
      ],
      "stateMutability": "view",
      "type": "function"
    },
    {
      "inputs": [],
      "name": "stable",
      "outputs": [
        {
          "internalType": "bool",
          "name": "",
          "type": "bool"
        }
      ],
      "stateMutability": "view",
      "type": "function"
    },
    {
      "inputs": [
        {
          "internalType": "address",
          "name": "",
          "type": "address"
        }
      ],
      "name": "storedRewardsPerUser",
      "outputs": [
        {
          "internalType": "uint256",
          "name": "",
          "type": "uint256"
        }
      ],
      "stateMutability": "view",
      "type": "function"
    },
    {
      "inputs": [],
      "name": "token0",
      "outputs": [
        {
          "internalType": "contract IERC20",
          "name": "",
          "type": "address"
        }
      ],
      "stateMutability": "view",
      "type": "function"
    },
    {
      "inputs": [],
      "name": "token1",
      "outputs": [
        {
          "internalType": "contract IERC20",
          "name": "",
          "type": "address"
        }
      ],
      "stateMutability": "view",
      "type": "function"
    },
    {
      "inputs": [],
      "name": "tokenId",
      "outputs": [
        {
          "internalType": "uint256",
          "name": "",
          "type": "uint256"
        }
      ],
      "stateMutability": "view",
      "type": "function"
    },
    {
      "inputs": [
        {
          "internalType": "address",
          "name": "newImplementation",
          "type": "address"
        }
      ],
      "name": "upgradeTo",
      "outputs": [],
      "stateMutability": "nonpayable",
      "type": "function"
    },
    {
      "inputs": [
        {
          "internalType": "address",
          "name": "newImplementation",
          "type": "address"
        },
        {
          "internalType": "bytes",
          "name": "data",
          "type": "bytes"
        }
      ],
      "name": "upgradeToAndCall",
      "outputs": [],
      "stateMutability": "payable",
      "type": "function"
    },
    {
      "inputs": [
        {
          "internalType": "address",
          "name": "",
          "type": "address"
        }
      ],
      "name": "userRewardPerTokenStored",
      "outputs": [
        {
          "internalType": "uint256",
          "name": "",
          "type": "uint256"
        }
      ],
      "stateMutability": "view",
      "type": "function"
    },
    {
      "stateMutability": "payable",
      "type": "receive"
    }
  ],
  "transactionHash": "0x96a28008a30fedd6e476ffd8154041c242652264a6ba5047a19396810553e7b7",
  "args": [
    "0xe84c8b640D05B424327269f209eD569570145271",
    "0x96d331Ca0D9c9D1b53A46CD050A698ae4c4c246F",
    "0x"
  ],
  "numDeployments": 2,
  "solcInputHash": "8f92f93d454d0d8f43ce2d8577a7fc5a",
  "bytecode": "0x6080604052600080546001600160a01b0319908116735513a48f3692df1d9c793eeab1349146b21403861790915560018054821673aaa2564deb34763e3d05162ed3f5c2658691f49917905560028054821673aaa6c1e32c55a7bfa8066a6fae9b42650f26241817905560038054821673dba865f11bb0a9cd803574edd782d8b26ee6576717905560048054821673aaa87963efeb6f7e0a2711f397663105acb1805e1790556005805490911673aaa343032aa79ee9a6897dab03bef967c3289a06179055600680547fff0000000000000000000000000000000000000000000000000000000000000016670de0b6b3a764000017905562093a80600d553480156200010a57600080fd5b5060405162001378380380620013788339810160408190526200012d91620005a4565b828282828162000140828260006200015a565b506200014e90508262000197565b505050505050620006d7565b6200016583620001f2565b600082511180620001735750805b1562000192576200019083836200023460201b620006481760201c565b505b505050565b7f7e644d79422f17c01e4894b5f4f588d331ebfa28653d42ae832dc59e38c9798f620001c262000263565b604080516001600160a01b03928316815291841660208301520160405180910390a1620001ef816200029c565b50565b620001fd8162000351565b6040516001600160a01b038216907fbc7cd75a20ee27fd9adebab32041f755214dbc6bffa90cc0225b39da2e5c2d3b90600090a250565b60606200025c8383604051806060016040528060278152602001620013516027913962000405565b9392505050565b60006200028d6000805160206200133183398151915260001b6200048460201b620006041760201c565b546001600160a01b0316919050565b6001600160a01b038116620003075760405162461bcd60e51b815260206004820152602660248201527f455243313936373a206e65772061646d696e20697320746865207a65726f206160448201526564647265737360d01b60648201526084015b60405180910390fd5b80620003306000805160206200133183398151915260001b6200048460201b620006041760201c565b80546001600160a01b0319166001600160a01b039290921691909117905550565b62000367816200048760201b620006741760201c565b620003cb5760405162461bcd60e51b815260206004820152602d60248201527f455243313936373a206e657720696d706c656d656e746174696f6e206973206e60448201526c1bdd08184818dbdb9d1c9858dd609a1b6064820152608401620002fe565b80620003307f360894a13ba1a3210667c828492db98dca3e2076cc3735a920a3ca505d382bbc60001b6200048460201b620006041760201c565b6060600080856001600160a01b03168560405162000424919062000684565b600060405180830381855af49150503d806000811462000461576040519150601f19603f3d011682016040523d82523d6000602084013e62000466565b606091505b5090925090506200047a8683838762000496565b9695505050505050565b90565b6001600160a01b03163b151590565b606083156200050a57825160000362000502576001600160a01b0385163b620005025760405162461bcd60e51b815260206004820152601d60248201527f416464726573733a2063616c6c20746f206e6f6e2d636f6e74726163740000006044820152606401620002fe565b508162000516565b6200051683836200051e565b949350505050565b8151156200052f5781518083602001fd5b8060405162461bcd60e51b8152600401620002fe9190620006a2565b80516001600160a01b03811681146200056357600080fd5b919050565b634e487b7160e01b600052604160045260246000fd5b60005b838110156200059b57818101518382015260200162000581565b50506000910152565b600080600060608486031215620005ba57600080fd5b620005c5846200054b565b9250620005d5602085016200054b565b60408501519092506001600160401b0380821115620005f357600080fd5b818601915086601f8301126200060857600080fd5b8151818111156200061d576200061d62000568565b604051601f8201601f19908116603f0116810190838211818310171562000648576200064862000568565b816040528281528960208487010111156200066257600080fd5b620006758360208301602088016200057e565b80955050505050509250925092565b60008251620006988184602087016200057e565b9190910192915050565b6020815260008251806020840152620006c38160408501602087016200057e565b601f01601f19169190910160400192915050565b610c4a80620006e76000396000f3fe60806040526004361061016a5760003560e01c80635c60da1b116100d1578063d21220a71161008a578063e51af7ec11610064578063e51af7ec1461045c578063f851a4401461047c578063fc7e286d14610491578063ffb34d21146104f857610179565b8063d21220a714610410578063d7da4bb014610430578063df136d651461044657610179565b80635c60da1b1461034057806363fb415b1461035557806365a5d5f0146103825780637535d246146103985780638f283970146103b8578063aaf5eb68146103d857610179565b80633659cfe6116101235780633659cfe6146102805780633df060f3146102a05780634172da5e146102cd578063452e7eaf146102ed578063469048401461030d5780634f1ef2861461032d57610179565b806302e8ac8d146101815780630a638c2e146101c15780630dfe1681146101f957806317d70f7c1461021957806322be3de11461022f578063313c06a01461026057610179565b3661017957610177610518565b005b610177610518565b34801561018d57600080fd5b506101ae61019c366004610adc565b60126020526000908152604090205481565b6040519081526020015b60405180910390f35b3480156101cd57600080fd5b506002546101e1906001600160a01b031681565b6040516001600160a01b0390911681526020016101b8565b34801561020557600080fd5b506008546101e1906001600160a01b031681565b34801561022557600080fd5b506101ae600a5481565b34801561023b57600080fd5b5060065461025090600160f81b900460ff1681565b60405190151581526020016101b8565b34801561026c57600080fd5b506007546101e1906001600160a01b031681565b34801561028c57600080fd5b5061017761029b366004610adc565b610532565b3480156102ac57600080fd5b506101ae6102bb366004610adc565b60116020526000908152604090205481565b3480156102d957600080fd5b506004546101e1906001600160a01b031681565b3480156102f957600080fd5b506003546101e1906001600160a01b031681565b34801561031957600080fd5b50600b546101e1906001600160a01b031681565b61017761033b366004610af7565b61056f565b34801561034c57600080fd5b506101e16105d6565b34801561036157600080fd5b506101ae610370366004610adc565b60106020526000908152604090205481565b34801561038e57600080fd5b506101ae600d5481565b3480156103a457600080fd5b506000546101e1906001600160a01b031681565b3480156103c457600080fd5b506101776103d3366004610adc565b610607565b3480156103e457600080fd5b506006546103f8906001600160f81b031681565b6040516001600160f81b0390911681526020016101b8565b34801561041c57600080fd5b506009546101e1906001600160a01b031681565b34801561043c57600080fd5b506101ae600c5481565b34801561045257600080fd5b506101ae600e5481565b34801561046857600080fd5b506005546101e1906001600160a01b031681565b34801561048857600080fd5b506101e1610627565b34801561049d57600080fd5b506104d66104ac366004610adc565b600f6020526000908152604090208054600182015460028301546003909301549192909160ff1684565b60408051948552602085019390935291830152151560608201526080016101b8565b34801561050457600080fd5b506001546101e1906001600160a01b031681565b610520610683565b61053061052b610718565b610722565b565b61053a610746565b6001600160a01b031633036105675761056481604051806020016040528060008152506000610779565b50565b610564610518565b610577610746565b6001600160a01b031633036105ce576105c98383838080601f01602080910402602001604051908101604052809392919081815260200183838082843760009201919091525060019250610779915050565b505050565b6105c9610518565b60006105e0610746565b6001600160a01b031633036105fc576105f7610718565b905090565b610604610518565b90565b61060f610746565b6001600160a01b0316330361056757610564816107a4565b6000610631610746565b6001600160a01b031633036105fc576105f7610746565b606061066d8383604051806060016040528060278152602001610bee602791396107f8565b9392505050565b6001600160a01b03163b151590565b61068b610746565b6001600160a01b031633036105305760405162461bcd60e51b815260206004820152604260248201527f5472616e73706172656e745570677261646561626c6550726f78793a2061646d60448201527f696e2063616e6e6f742066616c6c6261636b20746f2070726f78792074617267606482015261195d60f21b608482015260a4015b60405180910390fd5b60006105f7610870565b3660008037600080366000845af43d6000803e808015610741573d6000f35b3d6000fd5b60007fb53127684a568b3173ae13b9f8a6016e243e63b6e8ee1178d6a717850b5d61035b546001600160a01b0316919050565b61078283610898565b60008251118061078f5750805b156105c95761079e8383610648565b50505050565b7f7e644d79422f17c01e4894b5f4f588d331ebfa28653d42ae832dc59e38c9798f6107cd610746565b604080516001600160a01b03928316815291841660208301520160405180910390a1610564816108d8565b6060600080856001600160a01b0316856040516108159190610b9e565b600060405180830381855af49150503d8060008114610850576040519150601f19603f3d011682016040523d82523d6000602084013e610855565b606091505b509150915061086686838387610981565b9695505050505050565b60007f360894a13ba1a3210667c828492db98dca3e2076cc3735a920a3ca505d382bbc61076a565b6108a181610a02565b6040516001600160a01b038216907fbc7cd75a20ee27fd9adebab32041f755214dbc6bffa90cc0225b39da2e5c2d3b90600090a250565b6001600160a01b03811661093d5760405162461bcd60e51b815260206004820152602660248201527f455243313936373a206e65772061646d696e20697320746865207a65726f206160448201526564647265737360d01b606482015260840161070f565b807fb53127684a568b3173ae13b9f8a6016e243e63b6e8ee1178d6a717850b5d61035b80546001600160a01b0319166001600160a01b039290921691909117905550565b606083156109f05782516000036109e9576001600160a01b0385163b6109e95760405162461bcd60e51b815260206004820152601d60248201527f416464726573733a2063616c6c20746f206e6f6e2d636f6e7472616374000000604482015260640161070f565b50816109fa565b6109fa8383610a96565b949350505050565b6001600160a01b0381163b610a6f5760405162461bcd60e51b815260206004820152602d60248201527f455243313936373a206e657720696d706c656d656e746174696f6e206973206e60448201526c1bdd08184818dbdb9d1c9858dd609a1b606482015260840161070f565b807f360894a13ba1a3210667c828492db98dca3e2076cc3735a920a3ca505d382bbc610960565b815115610aa65781518083602001fd5b8060405162461bcd60e51b815260040161070f9190610bba565b80356001600160a01b0381168114610ad757600080fd5b919050565b600060208284031215610aee57600080fd5b61066d82610ac0565b600080600060408486031215610b0c57600080fd5b610b1584610ac0565b9250602084013567ffffffffffffffff80821115610b3257600080fd5b818601915086601f830112610b4657600080fd5b813581811115610b5557600080fd5b876020828501011115610b6757600080fd5b6020830194508093505050509250925092565b60005b83811015610b95578181015183820152602001610b7d565b50506000910152565b60008251610bb0818460208701610b7a565b9190910192915050565b6020815260008251806020840152610bd9816040850160208701610b7a565b601f01601f1916919091016040019291505056fe416464726573733a206c6f772d6c6576656c2064656c65676174652063616c6c206661696c6564a26469706673582212207dfc2c14f0ef8014af520f93552a095f7292b666b19c6c3b01e750de7d23ca8764736f6c63430008120033b53127684a568b3173ae13b9f8a6016e243e63b6e8ee1178d6a717850b5d6103416464726573733a206c6f772d6c6576656c2064656c65676174652063616c6c206661696c6564",
  "devdoc": {
    "events": {
      "AdminChanged(address,address)": {
        "details": "Emitted when the admin account has changed."
      },
      "BeaconUpgraded(address)": {
        "details": "Emitted when the beacon is upgraded."
      },
      "Upgraded(address)": {
        "details": "Emitted when the implementation is upgraded."
      }
    },
    "kind": "dev",
    "methods": {
      "admin()": {
        "details": "Returns the current admin. NOTE: Only the admin can call this function. See {ProxyAdmin-getProxyAdmin}. TIP: To get this value clients can read directly from the storage slot shown below (specified by EIP1967) using the https://eth.wiki/json-rpc/API#eth_getstorageat[`eth_getStorageAt`] RPC call. `0xb53127684a568b3173ae13b9f8a6016e243e63b6e8ee1178d6a717850b5d6103`"
      },
      "changeAdmin(address)": {
        "details": "Changes the admin of the proxy. Emits an {AdminChanged} event. NOTE: Only the admin can call this function. See {ProxyAdmin-changeProxyAdmin}."
      },
      "implementation()": {
        "details": "Returns the current implementation. NOTE: Only the admin can call this function. See {ProxyAdmin-getProxyImplementation}. TIP: To get this value clients can read directly from the storage slot shown below (specified by EIP1967) using the https://eth.wiki/json-rpc/API#eth_getstorageat[`eth_getStorageAt`] RPC call. `0x360894a13ba1a3210667c828492db98dca3e2076cc3735a920a3ca505d382bbc`"
      },
      "upgradeTo(address)": {
        "details": "Upgrade the implementation of the proxy. NOTE: Only the admin can call this function. See {ProxyAdmin-upgrade}."
      },
      "upgradeToAndCall(address,bytes)": {
        "details": "Upgrade the implementation of the proxy, and then call a function from the new implementation as specified by `data`, which should be an encoded function call. This is useful to initialize new storage variables in the proxied contract. NOTE: Only the admin can call this function. See {ProxyAdmin-upgradeAndCall}."
      }
    },
    "version": 1
  },
  "userdoc": {
    "kind": "user",
    "methods": {},
    "version": 1
  },
  "storageLayout": {
    "storage": [
      {
        "astId": 12791,
        "contract": "contracts/proxies/RamsesVaultProxy.sol:RamsesVaultProxy",
        "label": "POOL",
        "offset": 0,
        "slot": "0",
        "type": "t_address"
      },
      {
        "astId": 12797,
        "contract": "contracts/proxies/RamsesVaultProxy.sol:RamsesVaultProxy",
        "label": "RAMSES_VOTER",
        "offset": 0,
        "slot": "1",
        "type": "t_contract(IVoter)9741"
      },
      {
        "astId": 12803,
        "contract": "contracts/proxies/RamsesVaultProxy.sol:RamsesVaultProxy",
        "label": "RAM_TOKEN",
        "offset": 0,
        "slot": "2",
        "type": "t_contract(IERC20)2581"
      },
      {
        "astId": 12809,
        "contract": "contracts/proxies/RamsesVaultProxy.sol:RamsesVaultProxy",
        "label": "RAMSES_GAUGE",
        "offset": 0,
        "slot": "3",
        "type": "t_contract(IGauge)9390"
      },
      {
        "astId": 12815,
        "contract": "contracts/proxies/RamsesVaultProxy.sol:RamsesVaultProxy",
        "label": "RAMSES_ROUTER",
        "offset": 0,
        "slot": "4",
        "type": "t_contract(IRouter)9625"
      },
      {
        "astId": 12821,
        "contract": "contracts/proxies/RamsesVaultProxy.sol:RamsesVaultProxy",
        "label": "RAMSES_VOTING_ESCROW",
        "offset": 0,
        "slot": "5",
        "type": "t_contract(IVotingEscrow)9943"
      },
      {
        "astId": 12824,
        "contract": "contracts/proxies/RamsesVaultProxy.sol:RamsesVaultProxy",
        "label": "PRECISION",
        "offset": 0,
        "slot": "6",
        "type": "t_uint248"
      },
      {
        "astId": 12826,
        "contract": "contracts/proxies/RamsesVaultProxy.sol:RamsesVaultProxy",
        "label": "stable",
        "offset": 31,
        "slot": "6",
        "type": "t_bool"
      },
      {
        "astId": 12829,
        "contract": "contracts/proxies/RamsesVaultProxy.sol:RamsesVaultProxy",
        "label": "lp",
        "offset": 0,
        "slot": "7",
        "type": "t_contract(IPair)9495"
      },
      {
        "astId": 12832,
        "contract": "contracts/proxies/RamsesVaultProxy.sol:RamsesVaultProxy",
        "label": "token0",
        "offset": 0,
        "slot": "8",
        "type": "t_contract(IERC20)2581"
      },
      {
        "astId": 12835,
        "contract": "contracts/proxies/RamsesVaultProxy.sol:RamsesVaultProxy",
        "label": "token1",
        "offset": 0,
        "slot": "9",
        "type": "t_contract(IERC20)2581"
      },
      {
        "astId": 12837,
        "contract": "contracts/proxies/RamsesVaultProxy.sol:RamsesVaultProxy",
        "label": "tokenId",
        "offset": 0,
        "slot": "10",
        "type": "t_uint256"
      },
      {
        "astId": 12839,
        "contract": "contracts/proxies/RamsesVaultProxy.sol:RamsesVaultProxy",
        "label": "feeRecipient",
        "offset": 0,
        "slot": "11",
        "type": "t_address"
      },
      {
        "astId": 12841,
        "contract": "contracts/proxies/RamsesVaultProxy.sol:RamsesVaultProxy",
        "label": "derivedSupply",
        "offset": 0,
        "slot": "12",
        "type": "t_uint256"
      },
      {
        "astId": 12844,
        "contract": "contracts/proxies/RamsesVaultProxy.sol:RamsesVaultProxy",
        "label": "MAX_LOCK",
        "offset": 0,
        "slot": "13",
        "type": "t_uint256"
      },
      {
        "astId": 12846,
        "contract": "contracts/proxies/RamsesVaultProxy.sol:RamsesVaultProxy",
        "label": "rewardPerTokenStored",
        "offset": 0,
        "slot": "14",
        "type": "t_uint256"
      },
      {
        "astId": 12851,
        "contract": "contracts/proxies/RamsesVaultProxy.sol:RamsesVaultProxy",
        "label": "deposits",
        "offset": 0,
        "slot": "15",
        "type": "t_mapping(t_address,t_struct(Deposits)12788_storage)"
      },
      {
        "astId": 12855,
        "contract": "contracts/proxies/RamsesVaultProxy.sol:RamsesVaultProxy",
        "label": "derivedBalances",
        "offset": 0,
        "slot": "16",
        "type": "t_mapping(t_address,t_uint256)"
      },
      {
        "astId": 12859,
        "contract": "contracts/proxies/RamsesVaultProxy.sol:RamsesVaultProxy",
        "label": "storedRewardsPerUser",
        "offset": 0,
        "slot": "17",
        "type": "t_mapping(t_address,t_uint256)"
      },
      {
        "astId": 12863,
        "contract": "contracts/proxies/RamsesVaultProxy.sol:RamsesVaultProxy",
        "label": "userRewardPerTokenStored",
        "offset": 0,
        "slot": "18",
        "type": "t_mapping(t_address,t_uint256)"
      },
      {
        "astId": 12868,
        "contract": "contracts/proxies/RamsesVaultProxy.sol:RamsesVaultProxy",
        "label": "__cruize_ramese_gap",
        "offset": 0,
        "slot": "19",
        "type": "t_array(t_uint256)50_storage"
      }
    ],
    "types": {
      "t_address": {
        "encoding": "inplace",
        "label": "address",
        "numberOfBytes": "20"
      },
      "t_array(t_uint256)50_storage": {
        "base": "t_uint256",
        "encoding": "inplace",
        "label": "uint256[50]",
        "numberOfBytes": "1600"
      },
      "t_bool": {
        "encoding": "inplace",
        "label": "bool",
        "numberOfBytes": "1"
      },
      "t_contract(IERC20)2581": {
        "encoding": "inplace",
        "label": "contract IERC20",
        "numberOfBytes": "20"
      },
      "t_contract(IGauge)9390": {
        "encoding": "inplace",
        "label": "contract IGauge",
        "numberOfBytes": "20"
      },
      "t_contract(IPair)9495": {
        "encoding": "inplace",
        "label": "contract IPair",
        "numberOfBytes": "20"
      },
      "t_contract(IRouter)9625": {
        "encoding": "inplace",
        "label": "contract IRouter",
        "numberOfBytes": "20"
      },
      "t_contract(IVoter)9741": {
        "encoding": "inplace",
        "label": "contract IVoter",
        "numberOfBytes": "20"
      },
      "t_contract(IVotingEscrow)9943": {
        "encoding": "inplace",
        "label": "contract IVotingEscrow",
        "numberOfBytes": "20"
      },
      "t_mapping(t_address,t_struct(Deposits)12788_storage)": {
        "encoding": "mapping",
        "key": "t_address",
        "label": "mapping(address => struct RamsesVaultStorage.Deposits)",
        "numberOfBytes": "32",
        "value": "t_struct(Deposits)12788_storage"
      },
      "t_mapping(t_address,t_uint256)": {
        "encoding": "mapping",
        "key": "t_address",
        "label": "mapping(address => uint256)",
        "numberOfBytes": "32",
        "value": "t_uint256"
      },
      "t_struct(Deposits)12788_storage": {
        "encoding": "inplace",
        "label": "struct RamsesVaultStorage.Deposits",
        "members": [
          {
            "astId": 12781,
            "contract": "contracts/proxies/RamsesVaultProxy.sol:RamsesVaultProxy",
            "label": "amount0",
            "offset": 0,
            "slot": "0",
            "type": "t_uint256"
          },
          {
            "astId": 12783,
            "contract": "contracts/proxies/RamsesVaultProxy.sol:RamsesVaultProxy",
            "label": "amount1",
            "offset": 0,
            "slot": "1",
            "type": "t_uint256"
          },
          {
            "astId": 12785,
            "contract": "contracts/proxies/RamsesVaultProxy.sol:RamsesVaultProxy",
            "label": "liquidity",
            "offset": 0,
            "slot": "2",
            "type": "t_uint256"
          },
          {
            "astId": 12787,
            "contract": "contracts/proxies/RamsesVaultProxy.sol:RamsesVaultProxy",
            "label": "onlyLiquidity",
            "offset": 0,
            "slot": "3",
            "type": "t_bool"
          }
        ],
        "numberOfBytes": "128"
      },
      "t_uint248": {
        "encoding": "inplace",
        "label": "uint248",
        "numberOfBytes": "31"
      },
      "t_uint256": {
        "encoding": "inplace",
        "label": "uint256",
        "numberOfBytes": "32"
      }
    }
  }
}