{
  "address": "0xe84c8b640D05B424327269f209eD569570145271",
  "abi": [
    {
      "inputs": [],
      "name": "ZERO_AMOUNT",
      "type": "error"
    },
    {
      "anonymous": false,
      "inputs": [
        {
          "indexed": false,
          "internalType": "uint256",
          "name": "amount0",
          "type": "uint256"
        },
        {
          "indexed": false,
          "internalType": "uint256",
          "name": "amount1",
          "type": "uint256"
        },
        {
          "indexed": false,
          "internalType": "uint256",
          "name": "liquidity",
          "type": "uint256"
        }
      ],
      "name": "Deposit",
      "type": "event"
    },
    {
      "anonymous": false,
      "inputs": [
        {
          "indexed": false,
          "internalType": "uint8",
          "name": "version",
          "type": "uint8"
        }
      ],
      "name": "Initialized",
      "type": "event"
    },
    {
      "anonymous": false,
      "inputs": [
        {
          "indexed": true,
          "internalType": "address",
          "name": "previousOwner",
          "type": "address"
        },
        {
          "indexed": true,
          "internalType": "address",
          "name": "newOwner",
          "type": "address"
        }
      ],
      "name": "OwnershipTransferred",
      "type": "event"
    },
    {
      "anonymous": false,
      "inputs": [
        {
          "indexed": false,
          "internalType": "address",
          "name": "account",
          "type": "address"
        }
      ],
      "name": "Paused",
      "type": "event"
    },
    {
      "anonymous": false,
      "inputs": [
        {
          "indexed": false,
          "internalType": "address",
          "name": "account",
          "type": "address"
        }
      ],
      "name": "Unpaused",
      "type": "event"
    },
    {
      "anonymous": false,
      "inputs": [
        {
          "indexed": false,
          "internalType": "uint256",
          "name": "amount0",
          "type": "uint256"
        },
        {
          "indexed": false,
          "internalType": "uint256",
          "name": "amount1",
          "type": "uint256"
        },
        {
          "indexed": false,
          "internalType": "uint256",
          "name": "liquidity",
          "type": "uint256"
        },
        {
          "indexed": false,
          "internalType": "uint256",
          "name": "reward",
          "type": "uint256"
        }
      ],
      "name": "Withdraw",
      "type": "event"
    },
    {
      "inputs": [],
      "name": "MAX_LOCK",
      "outputs": [
        {
          "internalType": "uint256",
          "name": "",
          "type": "uint256"
        }
      ],
      "stateMutability": "view",
      "type": "function"
    },
    {
      "inputs": [],
      "name": "POOL",
      "outputs": [
        {
          "internalType": "address",
          "name": "",
          "type": "address"
        }
      ],
      "stateMutability": "view",
      "type": "function"
    },
    {
      "inputs": [],
      "name": "PRECISION",
      "outputs": [
        {
          "internalType": "uint248",
          "name": "",
          "type": "uint248"
        }
      ],
      "stateMutability": "view",
      "type": "function"
    },
    {
      "inputs": [],
      "name": "RAMSES_GAUGE",
      "outputs": [
        {
          "internalType": "contract IGauge",
          "name": "",
          "type": "address"
        }
      ],
      "stateMutability": "view",
      "type": "function"
    },
    {
      "inputs": [],
      "name": "RAMSES_ROUTER",
      "outputs": [
        {
          "internalType": "contract IRouter",
          "name": "",
          "type": "address"
        }
      ],
      "stateMutability": "view",
      "type": "function"
    },
    {
      "inputs": [],
      "name": "RAMSES_VOTER",
      "outputs": [
        {
          "internalType": "contract IVoter",
          "name": "",
          "type": "address"
        }
      ],
      "stateMutability": "view",
      "type": "function"
    },
    {
      "inputs": [],
      "name": "RAMSES_VOTING_ESCROW",
      "outputs": [
        {
          "internalType": "contract IVotingEscrow",
          "name": "",
          "type": "address"
        }
      ],
      "stateMutability": "view",
      "type": "function"
    },
    {
      "inputs": [],
      "name": "RAM_TOKEN",
      "outputs": [
        {
          "internalType": "contract IERC20",
          "name": "",
          "type": "address"
        }
      ],
      "stateMutability": "view",
      "type": "function"
    },
    {
      "inputs": [
        {
          "internalType": "uint256",
          "name": "amount0",
          "type": "uint256"
        },
        {
          "internalType": "uint256",
          "name": "amount1",
          "type": "uint256"
        }
      ],
      "name": "deposit",
      "outputs": [],
      "stateMutability": "nonpayable",
      "type": "function"
    },
    {
      "inputs": [
        {
          "internalType": "uint256",
          "name": "liquidity",
          "type": "uint256"
        }
      ],
      "name": "depositLP",
      "outputs": [],
      "stateMutability": "nonpayable",
      "type": "function"
    },
    {
      "inputs": [
        {
          "internalType": "address",
          "name": "",
          "type": "address"
        }
      ],
      "name": "deposits",
      "outputs": [
        {
          "internalType": "uint256",
          "name": "amount0",
          "type": "uint256"
        },
        {
          "internalType": "uint256",
          "name": "amount1",
          "type": "uint256"
        },
        {
          "internalType": "uint256",
          "name": "liquidity",
          "type": "uint256"
        },
        {
          "internalType": "bool",
          "name": "onlyLiquidity",
          "type": "bool"
        }
      ],
      "stateMutability": "view",
      "type": "function"
    },
    {
      "inputs": [
        {
          "internalType": "address",
          "name": "",
          "type": "address"
        }
      ],
      "name": "derivedBalances",
      "outputs": [
        {
          "internalType": "uint256",
          "name": "",
          "type": "uint256"
        }
      ],
      "stateMutability": "view",
      "type": "function"
    },
    {
      "inputs": [],
      "name": "derivedSupply",
      "outputs": [
        {
          "internalType": "uint256",
          "name": "",
          "type": "uint256"
        }
      ],
      "stateMutability": "view",
      "type": "function"
    },
    {
      "inputs": [],
      "name": "feeRecipient",
      "outputs": [
        {
          "internalType": "address",
          "name": "",
          "type": "address"
        }
      ],
      "stateMutability": "view",
      "type": "function"
    },
    {
      "inputs": [
        {
          "internalType": "address",
          "name": "_token0",
          "type": "address"
        },
        {
          "internalType": "address",
          "name": "_token1",
          "type": "address"
        },
        {
          "internalType": "bool",
          "name": "_stable",
          "type": "bool"
        },
        {
          "internalType": "address",
          "name": "_feeRecipient",
          "type": "address"
        }
      ],
      "name": "initialize",
      "outputs": [],
      "stateMutability": "nonpayable",
      "type": "function"
    },
    {
      "inputs": [],
      "name": "lp",
      "outputs": [
        {
          "internalType": "contract IPair",
          "name": "",
          "type": "address"
        }
      ],
      "stateMutability": "view",
      "type": "function"
    },
    {
      "inputs": [],
      "name": "owner",
      "outputs": [
        {
          "internalType": "address",
          "name": "",
          "type": "address"
        }
      ],
      "stateMutability": "view",
      "type": "function"
    },
    {
      "inputs": [],
      "name": "pause",
      "outputs": [],
      "stateMutability": "nonpayable",
      "type": "function"
    },
    {
      "inputs": [],
      "name": "paused",
      "outputs": [
        {
          "internalType": "bool",
          "name": "",
          "type": "bool"
        }
      ],
      "stateMutability": "view",
      "type": "function"
    },
    {
      "inputs": [],
      "name": "renounceOwnership",
      "outputs": [],
      "stateMutability": "nonpayable",
      "type": "function"
    },
    {
      "inputs": [],
      "name": "rewardPerTokenStored",
      "outputs": [
        {
          "internalType": "uint256",
          "name": "",
          "type": "uint256"
        }
      ],
      "stateMutability": "view",
      "type": "function"
    },
    {
      "inputs": [
        {
          "internalType": "uint256",
          "name": "_time",
          "type": "uint256"
        }
      ],
      "name": "setLockTime",
      "outputs": [],
      "stateMutability": "nonpayable",
      "type": "function"
    },
    {
      "inputs": [],
      "name": "stable",
      "outputs": [
        {
          "internalType": "bool",
          "name": "",
          "type": "bool"
        }
      ],
      "stateMutability": "view",
      "type": "function"
    },
    {
      "inputs": [
        {
          "internalType": "address",
          "name": "",
          "type": "address"
        }
      ],
      "name": "storedRewardsPerUser",
      "outputs": [
        {
          "internalType": "uint256",
          "name": "",
          "type": "uint256"
        }
      ],
      "stateMutability": "view",
      "type": "function"
    },
    {
      "inputs": [],
      "name": "token0",
      "outputs": [
        {
          "internalType": "contract IERC20",
          "name": "",
          "type": "address"
        }
      ],
      "stateMutability": "view",
      "type": "function"
    },
    {
      "inputs": [],
      "name": "token1",
      "outputs": [
        {
          "internalType": "contract IERC20",
          "name": "",
          "type": "address"
        }
      ],
      "stateMutability": "view",
      "type": "function"
    },
    {
      "inputs": [],
      "name": "tokenId",
      "outputs": [
        {
          "internalType": "uint256",
          "name": "",
          "type": "uint256"
        }
      ],
      "stateMutability": "view",
      "type": "function"
    },
    {
      "inputs": [
        {
          "internalType": "address",
          "name": "newOwner",
          "type": "address"
        }
      ],
      "name": "transferOwnership",
      "outputs": [],
      "stateMutability": "nonpayable",
      "type": "function"
    },
    {
      "inputs": [],
      "name": "unpause",
      "outputs": [],
      "stateMutability": "nonpayable",
      "type": "function"
    },
    {
      "inputs": [
        {
          "internalType": "address",
          "name": "",
          "type": "address"
        }
      ],
      "name": "userRewardPerTokenStored",
      "outputs": [
        {
          "internalType": "uint256",
          "name": "",
          "type": "uint256"
        }
      ],
      "stateMutability": "view",
      "type": "function"
    },
    {
      "inputs": [],
      "name": "withdraw",
      "outputs": [],
      "stateMutability": "nonpayable",
      "type": "function"
    }
  ],
  "transactionHash": "0x688288c68dd1b1235a6a6182905c93cc7d4783e73c97fba2333586d8308e4e38",
  "args": [],
  "numDeployments": 2,
  "solcInputHash": "8f92f93d454d0d8f43ce2d8577a7fc5a",
  "bytecode": "0x6080604052600080546001600160a01b0319908116735513a48f3692df1d9c793eeab1349146b21403861790915560018054821673aaa2564deb34763e3d05162ed3f5c2658691f49917905560028054821673aaa6c1e32c55a7bfa8066a6fae9b42650f26241817905560038054821673dba865f11bb0a9cd803574edd782d8b26ee6576717905560048054821673aaa87963efeb6f7e0a2711f397663105acb1805e1790556005805490911673aaa343032aa79ee9a6897dab03bef967c3289a06179055600680547fff0000000000000000000000000000000000000000000000000000000000000016670de0b6b3a764000017905562093a80600d5534801561010957600080fd5b50611d2a806101196000396000f3fe608060405234801561001057600080fd5b50600436106101e55760003560e01c8063715018a61161010f578063df136d65116100a2578063f2fde38b11610071578063f2fde38b1461040a578063fb162e031461041d578063fc7e286d14610430578063ffb34d211461048a57600080fd5b8063df136d65146103c8578063e2bbb158146103d1578063e51af7ec146103e4578063eb37acfc146103f757600080fd5b8063aaf5eb68116100de578063aaf5eb681461036e578063ae04d45d14610399578063d21220a7146103ac578063d7da4bb0146103bf57600080fd5b8063715018a61461033a5780637535d246146103425780638456cb59146103555780638da5cb5b1461035d57600080fd5b80633df060f311610187578063469048401161015657806346904840146102f35780635c975abb1461030657806363fb415b1461031157806365a5d5f01461033157600080fd5b80633df060f3146102a55780633f4ba83a146102c55780634172da5e146102cd578063452e7eaf146102e057600080fd5b806317d70f7c116101c357806317d70f7c1461025b57806322be3de114610264578063313c06a0146102885780633ccfd60b1461029b57600080fd5b806302e8ac8d146101ea5780630a638c2e1461021d5780630dfe168114610248575b600080fd5b61020a6101f8366004611a54565b60126020526000908152604090205481565b6040519081526020015b60405180910390f35b600254610230906001600160a01b031681565b6040516001600160a01b039091168152602001610214565b600854610230906001600160a01b031681565b61020a600a5481565b60065461027890600160f81b900460ff1681565b6040519015158152602001610214565b600754610230906001600160a01b031681565b6102a361049d565b005b61020a6102b3366004611a54565b60116020526000908152604090205481565b6102a36107c2565b600454610230906001600160a01b031681565b600354610230906001600160a01b031681565b600b54610230906001600160a01b031681565b60aa5460ff16610278565b61020a61031f366004611a54565b60106020526000908152604090205481565b61020a600d5481565b6102a36107d2565b600054610230906001600160a01b031681565b6102a36107e4565b6078546001600160a01b0316610230565b600654610381906001600160f81b031681565b6040516001600160f81b039091168152602001610214565b6102a36103a7366004611a78565b6107f4565b600954610230906001600160a01b031681565b61020a600c5481565b61020a600e5481565b6102a36103df366004611a91565b610822565b600554610230906001600160a01b031681565b6102a3610405366004611a78565b610ab9565b6102a3610418366004611a54565b610c10565b6102a361042b366004611ac1565b610c8b565b61046861043e366004611a54565b600f6020526000908152604090208054600182015460028301546003909301549192909160ff1684565b6040805194855260208501939093529183015215156060820152608001610214565b600154610230906001600160a01b031681565b6104a5610e8d565b336000818152600f602090815260409182902082516080810184528154815260018201549281019290925260028101549282019290925260039091015460ff16151560608201526104f4610ee6565b6003546040808301519051632e1a7d4d60e01b81526001600160a01b0390921691632e1a7d4d9161052b9160040190815260200190565b600060405180830381600087803b15801561054557600080fd5b505af1158015610559573d6000803e3d6000fd5b5050505061056682610f95565b600080610572846110b9565b6001600160a01b0386166000908152601160205260409020549193509150801580159061060957506002546040516370a0823160e01b815230600482015282916001600160a01b0316906370a0823190602401602060405180830381865afa1580156105e2573d6000803e3d6000fd5b505050506040513d601f19601f820116820180604052508101906106069190611b1d565b10155b15610714576001600160a01b038581166000908152601160205260408082209190915560025490516370a0823160e01b815230600482015291169063a9059cbb9087906106a390859085906370a0823190602401602060405180830381865afa15801561067a573d6000803e3d6000fd5b505050506040513d601f19601f8201168201806040525081019061069e9190611b1d565b61126a565b6040516001600160e01b031960e085901b1681526001600160a01b03909216600483015260248201526044016020604051808303816000875af11580156106ee573d6000803e3d6000fd5b505050506040513d601f19601f820116820180604052508101906107129190611b36565b505b61071d85611284565b6001600160a01b038616600090815260106020908152604091829020929092558581015181518681529283018590528282015260608201839052517fb088a38065873c9d2da855cf4a2e4aa012b28e45ead53c5b9edbcf71614cfb239181900360800190a1505050506001600160a01b03166000908152600f6020526040812081815560018082018390556002820192909255600301805460ff1916905560ab55565b565b6107ca6112df565b6107c0611339565b6107da6112df565b6107c0600061138b565b6107ec6112df565b6107c06113dd565b6107fc6112df565b8060000361081d57604051630f6fa54560e41b815260040160405180910390fd5b600d55565b61082a610e8d565b811580610835575080155b1561085357604051630f6fa54560e41b815260040160405180910390fd5b6000806000610862858561141a565b336000908152600f6020908152604091829020825160808101845281548082526001830154938201939093526002820154938101939093526003015460ff1615156060830152939650919450925090849082906108c0908390611b69565b9052506020810180518491906108d7908390611b69565b9052506040810180518391906108ee908390611b69565b905250336000908152600f60209081526040918290208351815590830151600182015590820151600282015560608201516003909101805460ff1916911515919091179055838611156109c8576008546001600160a01b031663a9059cbb336109578988611706565b6040516001600160e01b031960e085901b1681526001600160a01b03909216600483015260248201526044016020604051808303816000875af11580156109a2573d6000803e3d6000fd5b505050506040513d601f19601f820116820180604052508101906109c69190611b36565b505b82851115610a5d576009546001600160a01b031663a9059cbb336109ec8887611706565b6040516001600160e01b031960e085901b1681526001600160a01b03909216600483015260248201526044016020604051808303816000875af1158015610a37573d6000803e3d6000fd5b505050506040513d601f19601f82011682018060405250810190610a5b9190611b36565b505b610a6682611712565b60408051858152602081018590529081018390527f33da4f9b82b3e18a281ca2cabbe2f076925692abb593b7ea3f850009e8ec97709060600160405180910390a150505050610ab5600160ab55565b5050565b610ac1610e8d565b80600003610ae257604051630f6fa54560e41b815260040160405180910390fd5b6007546040516323b872dd60e01b8152336004820152306024820152604481018390526001600160a01b03909116906323b872dd906064016020604051808303816000875af1158015610b39573d6000803e3d6000fd5b505050506040513d601f19601f82011682018060405250810190610b5d9190611b36565b50336000908152600f6020908152604091829020825160808101845281548152600182015492810192909252600281015492820183815260039091015460ff16151560608301529091839190610bb4908390611b69565b905250336000908152600f60209081526040918290208351815590830151600182015590820151600282015560608201516003909101805460ff1916911515919091179055610c0282611712565b50610c0d600160ab55565b50565b610c186112df565b6001600160a01b038116610c825760405162461bcd60e51b815260206004820152602660248201527f4f776e61626c653a206e6577206f776e657220697320746865207a65726f206160448201526564647265737360d01b60648201526084015b60405180910390fd5b610c0d8161138b565b604554610100900460ff1615808015610cab5750604554600160ff909116105b80610cc55750303b158015610cc5575060455460ff166001145b610d285760405162461bcd60e51b815260206004820152602e60248201527f496e697469616c697a61626c653a20636f6e747261637420697320616c72656160448201526d191e481a5b9a5d1a585b1a5e995960921b6064820152608401610c79565b6045805460ff191660011790558015610d4b576045805461ff0019166101001790555b610d53611818565b610d5b611847565b6004805460405163260f701f60e11b81526001600160a01b03888116938201939093528683166024820152851515604482015260009290911690634c1ee03e90606401602060405180830381865afa158015610dbb573d6000803e3d6000fd5b505050506040513d601f19601f82011682018060405250810190610ddf9190611b7c565b600780546001600160a01b03199081166001600160a01b0393841617909155600880548216898416179055600980548216888416179055600680546001600160f81b0316600160f81b88151502179055600b8054909116918516919091179055508015610e86576045805461ff0019169055604051600181527f7f26b83ff96e1f2b6a682f133852f6798a09c465da95921460cefb38474024989060200160405180910390a15b5050505050565b600260ab5403610edf5760405162461bcd60e51b815260206004820152601f60248201527f5265656e7472616e637947756172643a207265656e7472616e742063616c6c006044820152606401610c79565b600260ab55565b60408051600180825281830190925260009160208083019080368337505060025482519293506001600160a01b031691839150600090610f2857610f28611b99565b6001600160a01b0392831660209182029290920101526003546040516331279d3d60e01b81529116906331279d3d90610f679030908590600401611baf565b600060405180830381600087803b158015610f8157600080fd5b505af1158015610e86573d6000803e3d6000fd5b600360009054906101000a90046001600160a01b03166001600160a01b031663d7da4bb06040518163ffffffff1660e01b8152600401602060405180830381865afa158015610fe8573d6000803e3d6000fd5b505050506040513d601f19601f8201168201806040525081019061100c9190611b1d565b600c5560035460025460405163f122977760e01b81526001600160a01b03918216600482015291169063f122977790602401602060405180830381865afa15801561105b573d6000803e3d6000fd5b505050506040513d601f19601f8201168201806040525081019061107f9190611b1d565b600e5561108b81611876565b6001600160a01b03909116600090815260116020908152604080832093909355600e54601290915291902055565b6001600160a01b038181166000908152600f60209081526040808320815160808101835281548152600182015493810193909352600281015483830181905260039091015460ff161515606084015260075460048054935163095ea7b360e01b815293871690840152602483019190915292938493169063095ea7b3906044016020604051808303816000875af1158015611158573d6000803e3d6000fd5b505050506040513d601f19601f8201168201806040525081019061117c9190611b36565b5060045460085460095460065460408501516001600160a01b0394851694630dede6c4948116931691600160f81b900460ff16906000808b6111c042610258611b69565b60405160e08a901b6001600160e01b03191681526001600160a01b039889166004820152968816602488015294151560448701526064860193909352608485019190915260a484015290921660c482015260e48101919091526101040160408051808303816000875af115801561123b573d6000803e3d6000fd5b505050506040513d601f19601f8201168201806040525081019061125f9190611c0b565b909590945092505050565b6000818310611279578161127b565b825b90505b92915050565b6001600160a01b0381166000908152600f60205260408120600201548160646112ae836028611c2f565b6112b89190611c46565b905060006112cf6112c98284611b69565b8461126a565b95945050505050565b600160ab55565b6078546001600160a01b031633146107c05760405162461bcd60e51b815260206004820181905260248201527f4f776e61626c653a2063616c6c6572206973206e6f7420746865206f776e65726044820152606401610c79565b611341611959565b60aa805460ff191690557f5db9ee0a495bf2e6ff9c91a7834c1ba4fdd244a5e8aa4e537bd38aeae4b073aa335b6040516001600160a01b03909116815260200160405180910390a1565b607880546001600160a01b038381166001600160a01b0319831681179093556040519116919082907f8be0079c531659141344cd1fd0a4f28419497f9722a3daafe3b4186f6b6457e090600090a35050565b6113e56119a2565b60aa805460ff191660011790557f62e78cea01bee320cd4e420270b5ea74000d11b0c9f74754ebdbfc544b05a25861136e3390565b6008546040516323b872dd60e01b815233600482015230602482015260448101849052600091829182916001600160a01b0316906323b872dd906064016020604051808303816000875af1158015611476573d6000803e3d6000fd5b505050506040513d601f19601f8201168201806040525081019061149a9190611b36565b506009546040516323b872dd60e01b8152336004820152306024820152604481018690526001600160a01b03909116906323b872dd906064016020604051808303816000875af11580156114f2573d6000803e3d6000fd5b505050506040513d601f19601f820116820180604052508101906115169190611b36565b506008546004805460405163095ea7b360e01b81526001600160a01b0391821692810192909252602482018890529091169063095ea7b3906044016020604051808303816000875af1158015611570573d6000803e3d6000fd5b505050506040513d601f19601f820116820180604052508101906115949190611b36565b506009546004805460405163095ea7b360e01b81526001600160a01b0391821692810192909252602482018790529091169063095ea7b3906044016020604051808303816000875af11580156115ee573d6000803e3d6000fd5b505050506040513d601f19601f820116820180604052508101906116129190611b36565b506004546008546009546006546001600160a01b0393841693635a47ddc3938116921690600160f81b900460ff1689896000803061165242610258611b69565b60405160e08b901b6001600160e01b03191681526001600160a01b03998a166004820152978916602489015295151560448801526064870194909452608486019290925260a485015260c484015290921660e4820152610104810191909152610124016060604051808303816000875af11580156116d4573d6000803e3d6000fd5b505050506040513d601f19601f820116820180604052508101906116f89190611c68565b919790965090945092505050565b600061127b8284611c96565b60075460035460405163095ea7b360e01b81526001600160a01b0391821660048201526024810184905291169063095ea7b3906044016020604051808303816000875af1158015611767573d6000803e3d6000fd5b505050506040513d601f19601f8201168201806040525081019061178b9190611b36565b50600354600a5460405163c6f678bd60e01b81526001600160a01b039092169163c6f678bd916117c19160040190815260200190565b600060405180830381600087803b1580156117db57600080fd5b505af11580156117ef573d6000803e3d6000fd5b505050506117fc33610f95565b61180533611284565b3360009081526010602052604090205550565b604554610100900460ff1661183f5760405162461bcd60e51b8152600401610c7990611ca9565b6107c06119e8565b604554610100900460ff1661186e5760405162461bcd60e51b8152600401610c7990611ca9565b6107c0611a18565b6001600160a01b03818116600090815260116020908152604080832054600654601290935281842054600354600254935163f122977760e01b81529387166004850152949591946001600160f81b0390941693909291169063f122977790602401602060405180830381865afa1580156118f4573d6000803e3d6000fd5b505050506040513d601f19601f820116820180604052508101906119189190611b1d565b6119229190611c96565b6001600160a01b0385166000908152601060205260409020546119459190611c2f565b61194f9190611c46565b61127e9190611b69565b60aa5460ff166107c05760405162461bcd60e51b815260206004820152601460248201527314185d5cd8589b194e881b9bdd081c185d5cd95960621b6044820152606401610c79565b60aa5460ff16156107c05760405162461bcd60e51b815260206004820152601060248201526f14185d5cd8589b194e881c185d5cd95960821b6044820152606401610c79565b604554610100900460ff16611a0f5760405162461bcd60e51b8152600401610c7990611ca9565b6107c03361138b565b604554610100900460ff166112d85760405162461bcd60e51b8152600401610c7990611ca9565b6001600160a01b0381168114610c0d57600080fd5b600060208284031215611a6657600080fd5b8135611a7181611a3f565b9392505050565b600060208284031215611a8a57600080fd5b5035919050565b60008060408385031215611aa457600080fd5b50508035926020909101359150565b8015158114610c0d57600080fd5b60008060008060808587031215611ad757600080fd5b8435611ae281611a3f565b93506020850135611af281611a3f565b92506040850135611b0281611ab3565b91506060850135611b1281611a3f565b939692955090935050565b600060208284031215611b2f57600080fd5b5051919050565b600060208284031215611b4857600080fd5b8151611a7181611ab3565b634e487b7160e01b600052601160045260246000fd5b8082018082111561127e5761127e611b53565b600060208284031215611b8e57600080fd5b8151611a7181611a3f565b634e487b7160e01b600052603260045260246000fd5b6001600160a01b038381168252604060208084018290528451918401829052600092858201929091906060860190855b81811015611bfd578551851683529483019491830191600101611bdf565b509098975050505050505050565b60008060408385031215611c1e57600080fd5b505080516020909101519092909150565b808202811582820484141761127e5761127e611b53565b600082611c6357634e487b7160e01b600052601260045260246000fd5b500490565b600080600060608486031215611c7d57600080fd5b8351925060208401519150604084015190509250925092565b8181038181111561127e5761127e611b53565b6020808252602b908201527f496e697469616c697a61626c653a20636f6e7472616374206973206e6f74206960408201526a6e697469616c697a696e6760a81b60608201526080019056fea2646970667358221220728900e16031dacd80d3d29cb69c640a63a43d1bda44486a493605638051eb5364736f6c63430008120033",
  "devdoc": {
    "events": {
      "Initialized(uint8)": {
        "details": "Triggered when the contract has been initialized or reinitialized."
      },
      "Paused(address)": {
        "details": "Emitted when the pause is triggered by `account`."
      },
      "Unpaused(address)": {
        "details": "Emitted when the pause is lifted by `account`."
      }
    },
    "kind": "dev",
    "methods": {
      "deposit(uint256,uint256)": {
        "details": "deposit function will take amount of tokens",
        "params": {
          "amount0": "amount of token0",
          "amount1": "amount of token1"
        }
      },
      "owner()": {
        "details": "Returns the address of the current owner."
      },
      "pause()": {
        "details": "Triggers stopped state. Requirements: - The contract must not be paused."
      },
      "paused()": {
        "details": "Returns true if the contract is paused, and false otherwise."
      },
      "renounceOwnership()": {
        "details": "Leaves the contract without owner. It will not be possible to call `onlyOwner` functions anymore. Can only be called by the current owner. NOTE: Renouncing ownership will leave the contract without an owner, thereby removing any functionality that is only available to the owner."
      },
      "transferOwnership(address)": {
        "details": "Transfers ownership of the contract to a new account (`newOwner`). Can only be called by the current owner."
      },
      "unpause()": {
        "details": "Returns to normal state. Requirements: - The contract must be paused."
      }
    },
    "version": 1
  },
  "userdoc": {
    "kind": "user",
    "methods": {
      "deposit(uint256,uint256)": {
        "notice": "be careful when you pass arguments pass amount0 according to the token0 decimals and others"
      }
    },
    "version": 1
  },
  "storageLayout": {
    "storage": [
      {
        "astId": 12791,
        "contract": "contracts/vaults/ramses/RamsesVault.sol:RamsesVault",
        "label": "POOL",
        "offset": 0,
        "slot": "0",
        "type": "t_address"
      },
      {
        "astId": 12797,
        "contract": "contracts/vaults/ramses/RamsesVault.sol:RamsesVault",
        "label": "RAMSES_VOTER",
        "offset": 0,
        "slot": "1",
        "type": "t_contract(IVoter)9741"
      },
      {
        "astId": 12803,
        "contract": "contracts/vaults/ramses/RamsesVault.sol:RamsesVault",
        "label": "RAM_TOKEN",
        "offset": 0,
        "slot": "2",
        "type": "t_contract(IERC20)2581"
      },
      {
        "astId": 12809,
        "contract": "contracts/vaults/ramses/RamsesVault.sol:RamsesVault",
        "label": "RAMSES_GAUGE",
        "offset": 0,
        "slot": "3",
        "type": "t_contract(IGauge)9390"
      },
      {
        "astId": 12815,
        "contract": "contracts/vaults/ramses/RamsesVault.sol:RamsesVault",
        "label": "RAMSES_ROUTER",
        "offset": 0,
        "slot": "4",
        "type": "t_contract(IRouter)9625"
      },
      {
        "astId": 12821,
        "contract": "contracts/vaults/ramses/RamsesVault.sol:RamsesVault",
        "label": "RAMSES_VOTING_ESCROW",
        "offset": 0,
        "slot": "5",
        "type": "t_contract(IVotingEscrow)9943"
      },
      {
        "astId": 12824,
        "contract": "contracts/vaults/ramses/RamsesVault.sol:RamsesVault",
        "label": "PRECISION",
        "offset": 0,
        "slot": "6",
        "type": "t_uint248"
      },
      {
        "astId": 12826,
        "contract": "contracts/vaults/ramses/RamsesVault.sol:RamsesVault",
        "label": "stable",
        "offset": 31,
        "slot": "6",
        "type": "t_bool"
      },
      {
        "astId": 12829,
        "contract": "contracts/vaults/ramses/RamsesVault.sol:RamsesVault",
        "label": "lp",
        "offset": 0,
        "slot": "7",
        "type": "t_contract(IPair)9495"
      },
      {
        "astId": 12832,
        "contract": "contracts/vaults/ramses/RamsesVault.sol:RamsesVault",
        "label": "token0",
        "offset": 0,
        "slot": "8",
        "type": "t_contract(IERC20)2581"
      },
      {
        "astId": 12835,
        "contract": "contracts/vaults/ramses/RamsesVault.sol:RamsesVault",
        "label": "token1",
        "offset": 0,
        "slot": "9",
        "type": "t_contract(IERC20)2581"
      },
      {
        "astId": 12837,
        "contract": "contracts/vaults/ramses/RamsesVault.sol:RamsesVault",
        "label": "tokenId",
        "offset": 0,
        "slot": "10",
        "type": "t_uint256"
      },
      {
        "astId": 12839,
        "contract": "contracts/vaults/ramses/RamsesVault.sol:RamsesVault",
        "label": "feeRecipient",
        "offset": 0,
        "slot": "11",
        "type": "t_address"
      },
      {
        "astId": 12841,
        "contract": "contracts/vaults/ramses/RamsesVault.sol:RamsesVault",
        "label": "derivedSupply",
        "offset": 0,
        "slot": "12",
        "type": "t_uint256"
      },
      {
        "astId": 12844,
        "contract": "contracts/vaults/ramses/RamsesVault.sol:RamsesVault",
        "label": "MAX_LOCK",
        "offset": 0,
        "slot": "13",
        "type": "t_uint256"
      },
      {
        "astId": 12846,
        "contract": "contracts/vaults/ramses/RamsesVault.sol:RamsesVault",
        "label": "rewardPerTokenStored",
        "offset": 0,
        "slot": "14",
        "type": "t_uint256"
      },
      {
        "astId": 12851,
        "contract": "contracts/vaults/ramses/RamsesVault.sol:RamsesVault",
        "label": "deposits",
        "offset": 0,
        "slot": "15",
        "type": "t_mapping(t_address,t_struct(Deposits)12788_storage)"
      },
      {
        "astId": 12855,
        "contract": "contracts/vaults/ramses/RamsesVault.sol:RamsesVault",
        "label": "derivedBalances",
        "offset": 0,
        "slot": "16",
        "type": "t_mapping(t_address,t_uint256)"
      },
      {
        "astId": 12859,
        "contract": "contracts/vaults/ramses/RamsesVault.sol:RamsesVault",
        "label": "storedRewardsPerUser",
        "offset": 0,
        "slot": "17",
        "type": "t_mapping(t_address,t_uint256)"
      },
      {
        "astId": 12863,
        "contract": "contracts/vaults/ramses/RamsesVault.sol:RamsesVault",
        "label": "userRewardPerTokenStored",
        "offset": 0,
        "slot": "18",
        "type": "t_mapping(t_address,t_uint256)"
      },
      {
        "astId": 12868,
        "contract": "contracts/vaults/ramses/RamsesVault.sol:RamsesVault",
        "label": "__cruize_ramese_gap",
        "offset": 0,
        "slot": "19",
        "type": "t_array(t_uint256)50_storage"
      },
      {
        "astId": 10629,
        "contract": "contracts/vaults/ramses/RamsesVault.sol:RamsesVault",
        "label": "_initialized",
        "offset": 0,
        "slot": "69",
        "type": "t_uint8"
      },
      {
        "astId": 10632,
        "contract": "contracts/vaults/ramses/RamsesVault.sol:RamsesVault",
        "label": "_initializing",
        "offset": 1,
        "slot": "69",
        "type": "t_bool"
      },
      {
        "astId": 11116,
        "contract": "contracts/vaults/ramses/RamsesVault.sol:RamsesVault",
        "label": "__context_gap",
        "offset": 0,
        "slot": "70",
        "type": "t_array(t_uint256)50_storage"
      },
      {
        "astId": 10501,
        "contract": "contracts/vaults/ramses/RamsesVault.sol:RamsesVault",
        "label": "_owner",
        "offset": 0,
        "slot": "120",
        "type": "t_address"
      },
      {
        "astId": 10621,
        "contract": "contracts/vaults/ramses/RamsesVault.sol:RamsesVault",
        "label": "__ownable_gap",
        "offset": 0,
        "slot": "121",
        "type": "t_array(t_uint256)49_storage"
      },
      {
        "astId": 11135,
        "contract": "contracts/vaults/ramses/RamsesVault.sol:RamsesVault",
        "label": "_paused",
        "offset": 0,
        "slot": "170",
        "type": "t_bool"
      },
      {
        "astId": 11250,
        "contract": "contracts/vaults/ramses/RamsesVault.sol:RamsesVault",
        "label": "_status",
        "offset": 0,
        "slot": "171",
        "type": "t_uint256"
      },
      {
        "astId": 11308,
        "contract": "contracts/vaults/ramses/RamsesVault.sol:RamsesVault",
        "label": "__reentrancy_gap",
        "offset": 0,
        "slot": "172",
        "type": "t_array(t_uint256)49_storage"
      }
    ],
    "types": {
      "t_address": {
        "encoding": "inplace",
        "label": "address",
        "numberOfBytes": "20"
      },
      "t_array(t_uint256)49_storage": {
        "base": "t_uint256",
        "encoding": "inplace",
        "label": "uint256[49]",
        "numberOfBytes": "1568"
      },
      "t_array(t_uint256)50_storage": {
        "base": "t_uint256",
        "encoding": "inplace",
        "label": "uint256[50]",
        "numberOfBytes": "1600"
      },
      "t_bool": {
        "encoding": "inplace",
        "label": "bool",
        "numberOfBytes": "1"
      },
      "t_contract(IERC20)2581": {
        "encoding": "inplace",
        "label": "contract IERC20",
        "numberOfBytes": "20"
      },
      "t_contract(IGauge)9390": {
        "encoding": "inplace",
        "label": "contract IGauge",
        "numberOfBytes": "20"
      },
      "t_contract(IPair)9495": {
        "encoding": "inplace",
        "label": "contract IPair",
        "numberOfBytes": "20"
      },
      "t_contract(IRouter)9625": {
        "encoding": "inplace",
        "label": "contract IRouter",
        "numberOfBytes": "20"
      },
      "t_contract(IVoter)9741": {
        "encoding": "inplace",
        "label": "contract IVoter",
        "numberOfBytes": "20"
      },
      "t_contract(IVotingEscrow)9943": {
        "encoding": "inplace",
        "label": "contract IVotingEscrow",
        "numberOfBytes": "20"
      },
      "t_mapping(t_address,t_struct(Deposits)12788_storage)": {
        "encoding": "mapping",
        "key": "t_address",
        "label": "mapping(address => struct RamsesVaultStorage.Deposits)",
        "numberOfBytes": "32",
        "value": "t_struct(Deposits)12788_storage"
      },
      "t_mapping(t_address,t_uint256)": {
        "encoding": "mapping",
        "key": "t_address",
        "label": "mapping(address => uint256)",
        "numberOfBytes": "32",
        "value": "t_uint256"
      },
      "t_struct(Deposits)12788_storage": {
        "encoding": "inplace",
        "label": "struct RamsesVaultStorage.Deposits",
        "members": [
          {
            "astId": 12781,
            "contract": "contracts/vaults/ramses/RamsesVault.sol:RamsesVault",
            "label": "amount0",
            "offset": 0,
            "slot": "0",
            "type": "t_uint256"
          },
          {
            "astId": 12783,
            "contract": "contracts/vaults/ramses/RamsesVault.sol:RamsesVault",
            "label": "amount1",
            "offset": 0,
            "slot": "1",
            "type": "t_uint256"
          },
          {
            "astId": 12785,
            "contract": "contracts/vaults/ramses/RamsesVault.sol:RamsesVault",
            "label": "liquidity",
            "offset": 0,
            "slot": "2",
            "type": "t_uint256"
          },
          {
            "astId": 12787,
            "contract": "contracts/vaults/ramses/RamsesVault.sol:RamsesVault",
            "label": "onlyLiquidity",
            "offset": 0,
            "slot": "3",
            "type": "t_bool"
          }
        ],
        "numberOfBytes": "128"
      },
      "t_uint248": {
        "encoding": "inplace",
        "label": "uint248",
        "numberOfBytes": "31"
      },
      "t_uint256": {
        "encoding": "inplace",
        "label": "uint256",
        "numberOfBytes": "32"
      },
      "t_uint8": {
        "encoding": "inplace",
        "label": "uint8",
        "numberOfBytes": "1"
      }
    }
  }
}